{
  "contracts/verifier.sol": {
    "Verifier": {
      "abi": [
        {
          "inputs": [
            {
              "internalType": "uint256[2]",
              "name": "a",
              "type": "uint256[2]"
            },
            {
              "internalType": "uint256[2][2]",
              "name": "b",
              "type": "uint256[2][2]"
            },
            {
              "internalType": "uint256[2]",
              "name": "c",
              "type": "uint256[2]"
            },
            {
              "internalType": "uint256[102]",
              "name": "input",
              "type": "uint256[102]"
            }
          ],
          "name": "verifyProof",
          "outputs": [
            {
              "internalType": "bool",
              "name": "r",
              "type": "bool"
            }
          ],
          "stateMutability": "view",
          "type": "function"
        }
      ],
      "evm": {
        "bytecode": {
          "linkReferences": {},
          "object": "608060405234801561001057600080fd5b506160f680620000216000396000f3fe608060405234801561001057600080fd5b506004361061002b5760003560e01c8063274182f814610030575b600080fd5b61004a60048036038101906100459190615aa7565b610060565b6040516100579190615bed565b60405180910390f35b600061006a6157b2565b6040518060400160405280876000600281106100af577f4e487b7100000000000000000000000000000000000000000000000000000000600052603260045260246000fd5b60200201518152602001876001600281106100f3577f4e487b7100000000000000000000000000000000000000000000000000000000600052603260045260246000fd5b602002015181525081600001819052506040518060400160405280604051806040016040528088600060028110610153577f4e487b7100000000000000000000000000000000000000000000000000000000600052603260045260246000fd5b6020020151600060028110610191577f4e487b7100000000000000000000000000000000000000000000000000000000600052603260045260246000fd5b60200201518152602001886000600281106101d5577f4e487b7100000000000000000000000000000000000000000000000000000000600052603260045260246000fd5b6020020151600160028110610213577f4e487b7100000000000000000000000000000000000000000000000000000000600052603260045260246000fd5b60200201518152508152602001604051806040016040528088600160028110610265577f4e487b7100000000000000000000000000000000000000000000000000000000600052603260045260246000fd5b60200201516000600281106102a3577f4e487b7100000000000000000000000000000000000000000000000000000000600052603260045260246000fd5b60200201518152602001886001600281106102e7577f4e487b7100000000000000000000000000000000000000000000000000000000600052603260045260246000fd5b6020020151600160028110610325577f4e487b7100000000000000000000000000000000000000000000000000000000600052603260045260246000fd5b6020020151815250815250816020018190525060405180604001604052808560006002811061037d577f4e487b7100000000000000000000000000000000000000000000000000000000600052603260045260246000fd5b60200201518152602001856001600281106103c1577f4e487b7100000000000000000000000000000000000000000000000000000000600052603260045260246000fd5b602002015181525081604001819052506000606667ffffffffffffffff811115610414577f4e487b7100000000000000000000000000000000000000000000000000000000600052604160045260246000fd5b6040519080825280602002602001820160405280156104425781602001602082028036833780820191505090505b50905060005b60668110156104e75784816066811061048a577f4e487b7100000000000000000000000000000000000000000000000000000000600052603260045260246000fd5b60200201518282815181106104c8577f4e487b7100000000000000000000000000000000000000000000000000000000600052603260045260246000fd5b60200260200101818152505080806104df90615e9b565b915050610448565b5060006104f48284610514565b14156105055760019250505061050c565b6000925050505b949350505050565b6000807f30644e72e131a029b85045b68181585d2833e84879b9709143e1f593f00000019050600061054461079f565b90508060800151516001865161055a9190615d70565b1461059a576040517f08c379a000000000000000000000000000000000000000000000000000000000815260040161059190615c08565b60405180910390fd5b60006040518060400160405280600081526020016000815250905060005b86518110156106fb57838782815181106105fb577f4e487b7100000000000000000000000000000000000000000000000000000000600052603260045260246000fd5b602002602001015110610643576040517f08c379a000000000000000000000000000000000000000000000000000000000815260040161063a90615c48565b60405180910390fd5b6106e6826106e1856080015160018561065c9190615d70565b81518110610693577f4e487b7100000000000000000000000000000000000000000000000000000000600052603260045260246000fd5b60200260200101518a85815181106106d4577f4e487b7100000000000000000000000000000000000000000000000000000000600052603260045260246000fd5b6020026020010151614a67565b614bb6565b915080806106f390615e9b565b9150506105b8565b5061074b81836080015160008151811061073e577f4e487b7100000000000000000000000000000000000000000000000000000000600052603260045260246000fd5b6020026020010151614bb6565b905061078161075d8660000151614d51565b8660200151846000015185602001518587604001518b604001518960600151614df6565b6107915760019350505050610799565b600093505050505b92915050565b6107a76157e5565b60405180604001604052807f2d4d9aa7e302d9df41749d5507949d05dbea33fbb16c643b22f599a2be6df2e281526020017f14bedd503c37ceb061d8ec60209fe345ce89830a19230301f076caff004d19268152508160000181905250604051806040016040528060405180604001604052807f0967032fcbf776d1afc985f88877f182d38480a653f2decaa9794cbc3bf3060c81526020017f0e187847ad4c798374d0d6732bf501847dd68bc0e071241e0213bc7fc13db7ab815250815260200160405180604001604052807f304cfbd1e08a704a99f5e847d93f8c3caafddec46b7a0d379da69a4d112346a781526020017f1739c1b1a457a8c7313123d24d2f9192f896b7c63eea05a9d57f06547ad0cec88152508152508160200181905250604051806040016040528060405180604001604052807f198e9393920d483a7260bfb731fb5d25f1aa493335a9e71297e485b7aef312c281526020017f1800deef121f1e76426a00665e5c4479674322d4f75edadd46debd5cd992f6ed815250815260200160405180604001604052807f090689d0585ff075ec9e99ad690c3395bc4b313370b38ef355acdadcd122975b81526020017f12c85ea5db8c6deb4aab71808dcb408fe3d1e7690c43d37b4ce6cc0166fa7daa8152508152508160400181905250604051806040016040528060405180604001604052807f296b0055638c2dadba71b4f72e8cf72ed0da7c87ece4fbc8e7acd58b4520ffa481526020017f03414d9b026d673c76eae373cc3d5e6f29b8e38290d0f78bc8449be29cdaaedf815250815260200160405180604001604052807f11a7ebc5c81b8c8a7e0b7165c13c32f95b32aba3a8b38d8abdfb8ccb8138ca3081526020017f1f5d08adbda7fa78fc1a45ee0e0ba31c6d6a6ba8ead0a17b46e661a4974636018152508152508160600181905250606767ffffffffffffffff811115610a94577f4e487b7100000000000000000000000000000000000000000000000000000000600052604160045260246000fd5b604051908082528060200260200182016040528015610acd57816020015b610aba61582c565b815260200190600190039081610ab25790505b50816080018190525060405180604001604052807f29796e846a749dcd734930507d0185716b2acad5431d3e85370ba661f8929a4e81526020017f048e907d498131cc8180ea7aabd3dbefcca4cca7d612ba2655f8caa74fc632af8152508160800151600081518110610b69577f4e487b7100000000000000000000000000000000000000000000000000000000600052603260045260246000fd5b602002602001018190525060405180604001604052807f02bade2ab5b1ade3ec4de452d34c3058a532e6c7cb5550b3bad0a45e54877a3681526020017f2378f290013eabbdcf585b7253032b7e2136fae0abaf1873f67bef468a4ced598152508160800151600181518110610c07577f4e487b7100000000000000000000000000000000000000000000000000000000600052603260045260246000fd5b602002602001018190525060405180604001604052807f27c378d1c6b8f015a8c24e3aa585317ad0abf1de16a2c9e9043a3d3932bd4daa81526020017f2c4bf33473c0fce7adca8b0096f3adefd52089fa540cca3dc8bb37dad3499f558152508160800151600281518110610ca5577f4e487b7100000000000000000000000000000000000000000000000000000000600052603260045260246000fd5b602002602001018190525060405180604001604052807f02c9f242d3a6203e39f04baba8de50e15e9e3bb3a8ba9e3bcb5d8fc17eeed3a781526020017f041ec240c61de56f1f8c0bfbbfcb5e85792696b00ec6fc3e01250dbee850d1398152508160800151600381518110610d43577f4e487b7100000000000000000000000000000000000000000000000000000000600052603260045260246000fd5b602002602001018190525060405180604001604052807f0b586e2cf33d3005e9daeea9c641e7c4e92811f16a511ab710139a6f8975998c81526020017f1420779858bce25bc8da9ab69a8e1cb5901544e718f1d42ea2ebcbcbdf38b4188152508160800151600481518110610de1577f4e487b7100000000000000000000000000000000000000000000000000000000600052603260045260246000fd5b602002602001018190525060405180604001604052807f28d1585d5dba6e6d962f76d34c090f5da503b90217eedcd7dc1baeb751f3db1f81526020017f110f396ec3bbba293177c10f2cafaa74fba7b24966573ecb156965e335704b568152508160800151600581518110610e7f577f4e487b7100000000000000000000000000000000000000000000000000000000600052603260045260246000fd5b602002602001018190525060405180604001604052807f29af5619b8868b3329cb2fedfefb13598f8e371418dfe338645b2ac0e42a3ab481526020017f2e8b790bdb1f9263366464a1f61cb584305d85c03f9a609078ab2dbec76f653a8152508160800151600681518110610f1d577f4e487b7100000000000000000000000000000000000000000000000000000000600052603260045260246000fd5b602002602001018190525060405180604001604052807f2dcb7477faca14a1032bba7c554709c593850aa24055c18b86df4645057f78b481526020017f1b2ff1b88a86b439397fe610f17ada44f1d33348834024e1d843752c7ce20d308152508160800151600781518110610fbb577f4e487b7100000000000000000000000000000000000000000000000000000000600052603260045260246000fd5b602002602001018190525060405180604001604052807f0e4ead8f21a959468bb9896f75cdc8e63ad7d36327b6aa140bc8a5d041c9591281526020017f2784b4b70c4f6fb5743cf5b4f5f2c223836408262d0f603898d23c2f539174e38152508160800151600881518110611059577f4e487b7100000000000000000000000000000000000000000000000000000000600052603260045260246000fd5b602002602001018190525060405180604001604052807f0e0351c6d8e9473d3c6231670bc95f68a2fff080a3fb2b399405232902ee216381526020017f14621f146d6396926e38dfd15fb9dd47ea943fd04f8b277a58aab9939fdc1d4f81525081608001516009815181106110f7577f4e487b7100000000000000000000000000000000000000000000000000000000600052603260045260246000fd5b602002602001018190525060405180604001604052807f0b54c0090e642a6f80e4805e3586f4bc43bfc12c67621742c9b74f5bdf2dc4cf81526020017f0c022d73988f5fc723fecf39fe12cf4d6936701d15da8968b59c053834856d2d8152508160800151600a81518110611195577f4e487b7100000000000000000000000000000000000000000000000000000000600052603260045260246000fd5b602002602001018190525060405180604001604052807f21a11ca35fb39b1091b18180e9410756dfbd77134239b08e76c87de2d6cfbc2e81526020017f1178ce1765e7817c4d6ccc4900956466b6a221fefade887f61ea374b571337418152508160800151600b81518110611233577f4e487b7100000000000000000000000000000000000000000000000000000000600052603260045260246000fd5b602002602001018190525060405180604001604052807f2d76e53b85ba0e328ceccb949f657594cf7dca06669d9c337be0645a17cc37f381526020017f1dcfb6dbf63b33921fa410f73e8103be05e1c1938084e6ff89e43e0fbd22f7bb8152508160800151600c815181106112d1577f4e487b7100000000000000000000000000000000000000000000000000000000600052603260045260246000fd5b602002602001018190525060405180604001604052807f1f5b408de9d2af603a4a6354fb761854cecc21c56f9b2e496fc006100463fe2181526020017f02f86816883ecd88465abd70139d548ba2d34080810a80185ee53d092b3536388152508160800151600d8151811061136f577f4e487b7100000000000000000000000000000000000000000000000000000000600052603260045260246000fd5b602002602001018190525060405180604001604052807f2143eaa9f7823d7a82f246d1a6bb43be437a374c31121c7a39bbf6651287160781526020017f2521042bac1aebe442cf88bc8c023d2c701b223b971f953b90418a9d772f46e88152508160800151600e8151811061140d577f4e487b7100000000000000000000000000000000000000000000000000000000600052603260045260246000fd5b602002602001018190525060405180604001604052807f22a584fa75c9793d9713ffd130d962e4b27a35013751113ad8c7b27dcfb86d2d81526020017f09bf9922b3045386467e1e9466dd55a5b1d0ada578b8363eb28489c6b7025f248152508160800151600f815181106114ab577f4e487b7100000000000000000000000000000000000000000000000000000000600052603260045260246000fd5b602002602001018190525060405180604001604052807f13d2aa7943f908f21d7e3af189455d1c5a9cbc0684958be483daf37e99b9231181526020017f1ff5d37d4f31f3b0a5f3817c54de43f61558d573977bcc35f87a5836a701aa6c8152508160800151601081518110611549577f4e487b7100000000000000000000000000000000000000000000000000000000600052603260045260246000fd5b602002602001018190525060405180604001604052807f1171c8de8ca6a0266380748c0fb4a1b9bdd679df995e960bf275f8c9de12fcc381526020017f1fc676e336f81e4fb5c8a1fd75d35850281a0930b36e3fe79b29139d66bfd59481525081608001516011815181106115e7577f4e487b7100000000000000000000000000000000000000000000000000000000600052603260045260246000fd5b602002602001018190525060405180604001604052807f0d6e2afa674077fb3b2558375c128d8076a0dc9458bc55d2d2d7c446a3afe4cd81526020017f28aeeea230c8bb3104394e906579994c5edf82e84919c86e267ba7a4777723918152508160800151601281518110611685577f4e487b7100000000000000000000000000000000000000000000000000000000600052603260045260246000fd5b602002602001018190525060405180604001604052807f100022d40483d31d6a34a4ae44513613e361210e0862a915a161159dc308930281526020017f02bd7b6cb51b40f19915141efff8dfcec1d4b91f2ed793cd7f4cc8f87f0ee5558152508160800151601381518110611723577f4e487b7100000000000000000000000000000000000000000000000000000000600052603260045260246000fd5b602002602001018190525060405180604001604052807f2e84a0c542ad98801eec77e733fcf7fcb98dff04315ed2675c0b15d983eb546381526020017ed2ea15f0fc2fdb5f755fa3cf4ca5d5e975932c3169950e094274979efa608a81525081608001516014815181106117c0577f4e487b7100000000000000000000000000000000000000000000000000000000600052603260045260246000fd5b602002602001018190525060405180604001604052807f26689f5a417e0d8b598492e94bb46f22c9550b8494eb2d1ff6f632881603ccd381526020017f137eddf34bf5da42e5483c565194d5ab207c9b0c29d1afe8f7dc67c57a63522e815250816080015160158151811061185e577f4e487b7100000000000000000000000000000000000000000000000000000000600052603260045260246000fd5b602002602001018190525060405180604001604052807f0d78696ab4ce2c0e83c04bc3db32bb42b9fa75d3e7eac11ae1db113ecae719f181526020017f12d1e956daa7e71280c1d58faaa334e96e8a502a4e5e455ffa30edda58868ea581525081608001516016815181106118fc577f4e487b7100000000000000000000000000000000000000000000000000000000600052603260045260246000fd5b602002602001018190525060405180604001604052807f2061b2c0e4334e2044c73d96511f0c8e313358840dccefe339817faa6a1288d781526020017f23bf096bac8aa662364d718b4b3476579a786f4c8f2b2dcd268c3c82873ab675815250816080015160178151811061199a577f4e487b7100000000000000000000000000000000000000000000000000000000600052603260045260246000fd5b602002602001018190525060405180604001604052807f16b2ca3bc5fc62dc4b84e9e61c7818fdce30a8c94519a1ce859b642100b9bd2481526020017f10cef99c15c177ed2ae65d83939a9cc9d2c3dc7ab061d87e3fa9aa2be21193cb8152508160800151601881518110611a38577f4e487b7100000000000000000000000000000000000000000000000000000000600052603260045260246000fd5b602002602001018190525060405180604001604052807f0e4a9ebe4c9f81cae4202a82f6c8188fcd4ef806019a72dc5eddbca1566285a281526020017f1ce9e8201f29dd862c4b3d773419a4deeaddcd0e40f0a87cc4ba3903cb5276bb8152508160800151601981518110611ad6577f4e487b7100000000000000000000000000000000000000000000000000000000600052603260045260246000fd5b602002602001018190525060405180604001604052807f134e76dfcf5e2a9a088f20552070268686addf94a388239d37b0925b78a9b83881526020017f02b480cce675c3bb4d8350fd6c2b013d24d0c1527e4c4a764ce1ca862c5d5d638152508160800151601a81518110611b74577f4e487b7100000000000000000000000000000000000000000000000000000000600052603260045260246000fd5b602002602001018190525060405180604001604052807f23f2b27de23fe472bb1479092accf5b1bf81d7e8f3aab7b1720d37f8a3004fdf81526020017f2f3a6b5abc5c259c024f2cb68d426e5ad755003cd9b48f7eb691421e98cd05ab8152508160800151601b81518110611c12577f4e487b7100000000000000000000000000000000000000000000000000000000600052603260045260246000fd5b602002602001018190525060405180604001604052807f1e9f2a3552d57d5a5568b5d39596de5e61b2b1dc351cc863b476203d68979fff81526020017f05d1a46cf93be588d47e1d96c48bfb392aac0256818646983cdcda7cbf4d71ad8152508160800151601c81518110611cb0577f4e487b7100000000000000000000000000000000000000000000000000000000600052603260045260246000fd5b602002602001018190525060405180604001604052807f069a23335b643131bda3fed8eb20dba9fe48b1db63eeb87f7f59dc78161b8a5681526020017f164fe9f8ea35a6645563671b6942485102ca3b7d4f985f404dafa74707191c498152508160800151601d81518110611d4e577f4e487b7100000000000000000000000000000000000000000000000000000000600052603260045260246000fd5b602002602001018190525060405180604001604052807f223ed3bddc9c964876093488f24c81b1a2bec07dbb9505fe595e6407af01f95b81526020017f0f75d5a2a141a758d4f7c757be6f0a068e1ff547d74a6a551703e570c65b9a008152508160800151601e81518110611dec577f4e487b7100000000000000000000000000000000000000000000000000000000600052603260045260246000fd5b602002602001018190525060405180604001604052807f2885c80b9c36a5e97fc4dc007f942d4073613c4427d2ba36608ce575788e1c9181526020017f213b5be1a2c321c63cd3245b53c297f07cc0385281879f10b49057f4c451b87a8152508160800151601f81518110611e8a577f4e487b7100000000000000000000000000000000000000000000000000000000600052603260045260246000fd5b602002602001018190525060405180604001604052807f03e6f3c950e2395d90710813c4b36a6535a30e06712c442c0b4cdaafc894fc5481526020017f0a2b23093de860a54b4543ee90b9f661a14195bf017aac718941fab3611738c28152508160800151602081518110611f28577f4e487b7100000000000000000000000000000000000000000000000000000000600052603260045260246000fd5b602002602001018190525060405180604001604052807f20037d38bd0d26d76514e76a0564287b20ce50543de6935a6b87f9679c2e29cc81526020017f038de38a1b7602c0dd645224dd27e9320a63556458f9a8248a81ebf059e6bbde8152508160800151602181518110611fc6577f4e487b7100000000000000000000000000000000000000000000000000000000600052603260045260246000fd5b602002602001018190525060405180604001604052807f28150e2842dd17a9e0c3ab4b88c73f6730e68bb82ae5be7068df23aa54d0af7c81526020017f2c08890979b69a1d777037da7150dca1757b95014979099b9970646a09831c838152508160800151602281518110612064577f4e487b7100000000000000000000000000000000000000000000000000000000600052603260045260246000fd5b602002602001018190525060405180604001604052807f168be867a9a3fc48483985b576802071334453f25ac3955231e57295f5b9888581526020017f14b5390f4301ec41d8999c5d731f8cc421ad64563bede9c8da9471e42d65185a8152508160800151602381518110612102577f4e487b7100000000000000000000000000000000000000000000000000000000600052603260045260246000fd5b602002602001018190525060405180604001604052807f2056dc0958cb2d13f45f267534e925e41264a3824c2152eb58c2eeb2a473469e81526020017f21833900ede9d4954078a9d750f8a1075f81dfbae0582a009ea5440d2e1ff30e81525081608001516024815181106121a0577f4e487b7100000000000000000000000000000000000000000000000000000000600052603260045260246000fd5b602002602001018190525060405180604001604052807e09a5405a2cf12729d1558b1082c8935e97340ab82cf2cf4980d601985fe91c81526020017f1d647ae71eb8163f110f001939b65307161cf075e7852e8794a9a0a6da8a5da2815250816080015160258151811061223d577f4e487b7100000000000000000000000000000000000000000000000000000000600052603260045260246000fd5b602002602001018190525060405180604001604052807f25c317a0f03425ab1f1f0e2ea5832083143a5a40568e421e46fcd6de9cd4d06a81526020017f1c777ecbf0cf713ecb6b36e208a47c0915e98b552c6b48e01f8f8aed9ab2930881525081608001516026815181106122db577f4e487b7100000000000000000000000000000000000000000000000000000000600052603260045260246000fd5b602002602001018190525060405180604001604052807f2dbe9ca88898eaad2889edf875297633e65c510a24b1f6c4b032a0da5c95138581526020017f155483c93e8a0165e71bd0c260ea7e298d4796b548392f7022cdf168b7e52fac8152508160800151602781518110612379577f4e487b7100000000000000000000000000000000000000000000000000000000600052603260045260246000fd5b602002602001018190525060405180604001604052807f129f0ff79977f94b064f338827bb399b529e75ed7994ce11489f6133a210847181526020017f025e46b2b18b59118e3dfd90b9f29b1e39dfb9cc5a04d2caf96178e5e573fb658152508160800151602881518110612417577f4e487b7100000000000000000000000000000000000000000000000000000000600052603260045260246000fd5b602002602001018190525060405180604001604052807f2fbf05e03f7a711f38072df42e44efdb96fcad3fcab16601253e930ecca23ef181526020017f25203b33f142f4c49cec661315552cd67ac42da5115691c76437a6d9f2155c3581525081608001516029815181106124b5577f4e487b7100000000000000000000000000000000000000000000000000000000600052603260045260246000fd5b602002602001018190525060405180604001604052807f20f81e468e4a84d12c4b612f5d96eff9e817881131d0beb06ac536b13689f42981526020017f21cf4a68b378ac3af736fe56b30b4996e7d766663419297c1bc5e5604cc6faea8152508160800151602a81518110612553577f4e487b7100000000000000000000000000000000000000000000000000000000600052603260045260246000fd5b602002602001018190525060405180604001604052807f095c05a804f4c9d68654e31deab6ff11f6a94105b9150ec0e30a96a4b8792a0781526020017f1dece945b270a6a57c35444db708710a68df24b3c296dcb0cd85e000d1c47d6a8152508160800151602b815181106125f1577f4e487b7100000000000000000000000000000000000000000000000000000000600052603260045260246000fd5b602002602001018190525060405180604001604052807f2186f6df764cd6397e38932bcc5bf1276b14bede303073e8dd3fdc13cb247b4d81526020017f1965b60459c26048a209efecca5a1404b04d5f30d425815b3fc67583a2bc36128152508160800151602c8151811061268f577f4e487b7100000000000000000000000000000000000000000000000000000000600052603260045260246000fd5b602002602001018190525060405180604001604052807f0a447b040a3dc6be32d08c6c8c6de350dcda39834799fb3eef52ce1733351b9181526020017f2e7faa62b9a86f0021883c7bfb07ef9c8baf7c33feb03ae46066a443febcf8aa8152508160800151602d8151811061272d577f4e487b7100000000000000000000000000000000000000000000000000000000600052603260045260246000fd5b602002602001018190525060405180604001604052807f0b588990b4cc0dd587dca13b2258b9731c19d60ed8d42556cac702f9838dc48a81526020017f0e30de37b599343c2fccf35ced8c105c9c7d0c42bf71fac68f9c94113d4284858152508160800151602e815181106127cb577f4e487b7100000000000000000000000000000000000000000000000000000000600052603260045260246000fd5b602002602001018190525060405180604001604052807f25a2ae564d55e15657da7a6afe3fed7659d6a1ea260a0e06701646f3714df8c681526020017f0a80bb02e9c81d0f2c3c3fdf65a0bbfff9506c9bd98b2b0b56766790363824d08152508160800151602f81518110612869577f4e487b7100000000000000000000000000000000000000000000000000000000600052603260045260246000fd5b602002602001018190525060405180604001604052807f157edaebaedb7fb80c24c77b09f2f9d21824c499d450cd790212dcbd20cb19ba81526020017f2573aa1bf4a3ad0b5db2643c5a336c180294cf45173c54eb866e96320e076c8d8152508160800151603081518110612907577f4e487b7100000000000000000000000000000000000000000000000000000000600052603260045260246000fd5b602002602001018190525060405180604001604052807f0dc200d7889ef7668d0d78769f1ca1e0d9b16f2afc031eb22674635ff1bb4acb81526020017f18e06bae3c0af6d0a1642a8db6cdc04969211cd707cde63fddb6084f5b77f6b381525081608001516031815181106129a5577f4e487b7100000000000000000000000000000000000000000000000000000000600052603260045260246000fd5b602002602001018190525060405180604001604052807f24aa3ba0370275105bf3261edf63b348a9c086e6406ae235a01b1d5f5ea86a3481526020017f123e736a38532c84fd46438a4daae54cf384c87c2a7448fafaf888630b59401c8152508160800151603281518110612a43577f4e487b7100000000000000000000000000000000000000000000000000000000600052603260045260246000fd5b602002602001018190525060405180604001604052807f080a3007b9af317b89fff488a3a3cef6ef16c2d67023f704905951e946fcc9a381526020017f0520afb5e90ee53c569f0fd7ed63946c3ce2514ec35e8796a3f896378339383f8152508160800151603381518110612ae1577f4e487b7100000000000000000000000000000000000000000000000000000000600052603260045260246000fd5b602002602001018190525060405180604001604052807f2a14272594f8f54348712330a23196194b64350a3af47594a688b29034fdef7b81526020017f2324d633d76e736c6b1c148df9e62babb73c74b8bcc6ce9b9cdf808e7df0b6158152508160800151603481518110612b7f577f4e487b7100000000000000000000000000000000000000000000000000000000600052603260045260246000fd5b602002602001018190525060405180604001604052807f17e72ca527cab08b689bc1136db470b54ff143cd3a5de28ba726871f15750bef81526020017f07afce5923876850af7f7316ebaad412fc9fe878f7e5b6ec84530bd3bb30380f8152508160800151603581518110612c1d577f4e487b7100000000000000000000000000000000000000000000000000000000600052603260045260246000fd5b602002602001018190525060405180604001604052807f1ab4be8e823dff613814606dea29b8594a6213b8c87c1e5ec95cd9d8c871125e81526020017f2b740654c51521bb8faeb3745b28a524dfdbb3cc3ce9250f8d802c27f40792118152508160800151603681518110612cbb577f4e487b7100000000000000000000000000000000000000000000000000000000600052603260045260246000fd5b602002602001018190525060405180604001604052807f0491ee1a4d9280e93b25e450c4a34ba85764afbe552b581efb427c210bf65e8981526020017f084a7a59b297324c3e225639d0569cde0f4e3f73aee463179e4261a3475261bd8152508160800151603781518110612d59577f4e487b7100000000000000000000000000000000000000000000000000000000600052603260045260246000fd5b602002602001018190525060405180604001604052807f2d158c060537018039a7f322be07bf60d05bcce10e11ce3e290257a7759eeb3381526020017f1f81df9ea1ea71527a5fe8a127327613a5882461949eefaa8e60a2f63b06fd4d8152508160800151603881518110612df7577f4e487b7100000000000000000000000000000000000000000000000000000000600052603260045260246000fd5b602002602001018190525060405180604001604052807f088e143679b45db54437a22c79e591a9f863f047e8450a7d54fdafdaf6e11b1581526020017f0e6b9872724759d3d97d99b83e923132dd2b1e35b34f0a256a82c1241e217d6c8152508160800151603981518110612e95577f4e487b7100000000000000000000000000000000000000000000000000000000600052603260045260246000fd5b602002602001018190525060405180604001604052807f1a222b587aee248d5bcac72594acf4c361eb9e15161737fc25e4bf7ccd5dd91a81526020017f2e8f9ef18e1f2d70313e987739493c27ed3139ca14af3a2abba55f6ce5010f3c8152508160800151603a81518110612f33577f4e487b7100000000000000000000000000000000000000000000000000000000600052603260045260246000fd5b602002602001018190525060405180604001604052807f2ab898ed251131ee539679597dec5e328a6597d75222084de485db0613498c5181526020017f2d78e473e892abe8226439110a0d0c14d6325b4d553ba8660a0a791a9b22b3878152508160800151603b81518110612fd1577f4e487b7100000000000000000000000000000000000000000000000000000000600052603260045260246000fd5b602002602001018190525060405180604001604052807f16528be4782ddef2caa67f01afd514d72c239f22acab6fefb02172cb1e18cdd981526020017e35281393e049aa3eef211bf042e229ee586dd432643e1d5072bd4a4e0887b88152508160800151603c8151811061306e577f4e487b7100000000000000000000000000000000000000000000000000000000600052603260045260246000fd5b602002602001018190525060405180604001604052807f1d4338696ad7e732c5205c93d5896f794b0909588319914ae0dd9e78622a9aa381526020017f034c082448b2a0010928e69fe31d8064298834e1264607f3068660ae4731efc28152508160800151603d8151811061310c577f4e487b7100000000000000000000000000000000000000000000000000000000600052603260045260246000fd5b602002602001018190525060405180604001604052807f2113e011908c5b043a343df00e47ab58c64b3ae53a6c2e55b2bac4bffae32b0881526020017f21f9696e2fb66b4cd50893be00330b56687ba527226e906b1a4bb97f6261fe788152508160800151603e815181106131aa577f4e487b7100000000000000000000000000000000000000000000000000000000600052603260045260246000fd5b602002602001018190525060405180604001604052807f0d5ed762711e6546f0d1326556504cb6533871d4f0d25645d6da8e8ed7361c6281526020017f29f9e8822cdf8b8c527db3346f0dbf5365b024c0a3c5c65149d6e6305f91b5508152508160800151603f81518110613248577f4e487b7100000000000000000000000000000000000000000000000000000000600052603260045260246000fd5b602002602001018190525060405180604001604052807f0e53649fd1047f50f3caeabca07c1377908ba5b32353517174dca0683ffbb28881526020017f1b8cc14e911280a6ee992e917c9ccb9dd93caa8b859756d8b06e45a92a71165c81525081608001516040815181106132e6577f4e487b7100000000000000000000000000000000000000000000000000000000600052603260045260246000fd5b602002602001018190525060405180604001604052807f2246d08f8d7032c85a318b1a3a3dede719d6c4cb816651bed96bbae66e9ec70681526020017f305411fdebba10f788775f7ad9011a1da66b18a44c1e6b247bbaaf20f49e6bae8152508160800151604181518110613384577f4e487b7100000000000000000000000000000000000000000000000000000000600052603260045260246000fd5b602002602001018190525060405180604001604052807f028e640966b3f043e4dd75ebcf1ede7ef14686d96b34501a3cc7293d8d3b7e4081526020017f17d9e9e3547d516d5ed92b45ad7a8012537a32112b25e023c4a0aaa86ef928428152508160800151604281518110613422577f4e487b7100000000000000000000000000000000000000000000000000000000600052603260045260246000fd5b602002602001018190525060405180604001604052807f1c3f51d4084e0986e3d11bd446cc103f1f8c15ea3b0f8f7b624d8d0e381f256681526020017f24e4b94a2faa6a5cd5784dd00a726d487c201b1a1b46ea0f6adc6b0aff23aad981525081608001516043815181106134c0577f4e487b7100000000000000000000000000000000000000000000000000000000600052603260045260246000fd5b602002602001018190525060405180604001604052807f0318ebd38bdf8e7147461846fc66b22a7c32b1284ed55a86a9c9f6f4e897a3ad81526020017f2523390a75f5f69a9c24127ad2ef9faad4dba65ca2fcd1528e437bc2c06061ab815250816080015160448151811061355e577f4e487b7100000000000000000000000000000000000000000000000000000000600052603260045260246000fd5b602002602001018190525060405180604001604052807f29d42c8783b3891cc60b9388837090cd1a16d47dbcbff1c3fb1fa37bbf3b3cb081526020017f0ee0126ee1773c3f2cf8f254983ec8ed938294a251b4b19c7d754ed3ec074a4c81525081608001516045815181106135fc577f4e487b7100000000000000000000000000000000000000000000000000000000600052603260045260246000fd5b602002602001018190525060405180604001604052807f15114e9fbd4872596ddd96cc3a99f9fef3b46473c21e079e8ccf37a38357cf1181526020017f04237469a5657edbe704f5f2d992b1bfd3f3c0a5942766416632b9c771f68dab815250816080015160468151811061369a577f4e487b7100000000000000000000000000000000000000000000000000000000600052603260045260246000fd5b602002602001018190525060405180604001604052807f2fd87762c626c6f4cf152f0aa07339ba6f5b1570f830c1dbf355d1ec922f80c581526020017f216562db7b1716c54cff25fc0309ca1a8d480168e71a9346f0dcdd0d186016078152508160800151604781518110613738577f4e487b7100000000000000000000000000000000000000000000000000000000600052603260045260246000fd5b602002602001018190525060405180604001604052807f151f3e00c3301c0aeaa603f10fcedcd4c436e86533a18bcaefeabacdf3f6365781526020017f057b646bcc1a80904878e33adfcdcacd795f95ce00ac036cacc7eb2729d2b7cf81525081608001516048815181106137d6577f4e487b7100000000000000000000000000000000000000000000000000000000600052603260045260246000fd5b602002602001018190525060405180604001604052807f1e97947c4ceff7d1121de817dbaf38751359ce29d39f603cec8f1d2b33352ab881526020017f039417e10dd19af88e776fc413915d59496012769c9ac1450c2507089c4e9dd98152508160800151604981518110613874577f4e487b7100000000000000000000000000000000000000000000000000000000600052603260045260246000fd5b602002602001018190525060405180604001604052807f20c97849f24e390d3cde6a4b8e75d1cecf47fbf08d85d43dd7005d21480367ca81526020017f029702a226be2a77b6cd5beccf4f499b6d68fe3915dc6b346ba89f93f58bd2b38152508160800151604a81518110613912577f4e487b7100000000000000000000000000000000000000000000000000000000600052603260045260246000fd5b602002602001018190525060405180604001604052807f027d36b0f40ef2acfa5061f4d2a4a51e6b8b3e58018ad3b89c4f48e495d396b381526020017f11999a2078dcc2835f2a8c7bbfc19c57239351ad5f2fa57fa5f8da94e8c55eb48152508160800151604b815181106139b0577f4e487b7100000000000000000000000000000000000000000000000000000000600052603260045260246000fd5b602002602001018190525060405180604001604052807f295d6e21e84acc99e078cb8dc48d809e08047fdb9306ec15447142e4a6da009a81526020017f1bfa6ff8ef804acb6f3ced122e530ffb93b3ed0e2f2e79240b1440505c734ea48152508160800151604c81518110613a4e577f4e487b7100000000000000000000000000000000000000000000000000000000600052603260045260246000fd5b602002602001018190525060405180604001604052807f0221b6650471efe73f800479e7d5ef58b6d976ce72b3666792298d0b79f4852a81526020017f27b48b31371cf0920ecd1c2abc8c38c40e1030375297652f1a8a24f4001941898152508160800151604d81518110613aec577f4e487b7100000000000000000000000000000000000000000000000000000000600052603260045260246000fd5b602002602001018190525060405180604001604052807ee46dbf6d71a2171df9bebada84c8239ce96d5250fa177941bbdbee5bafc28481526020017f21d157a5c3c1bde7c38a33e53ce2637c515e3e6e2354896c7a7b25e5db6077f18152508160800151604e81518110613b89577f4e487b7100000000000000000000000000000000000000000000000000000000600052603260045260246000fd5b602002602001018190525060405180604001604052807f1dec0d85eb9159106da37698a3be812cb5a90a1a1b4231e64fc0a0d4ea87e35c81526020017f13d524d446e57c8cc859b9851179dd23c16a2d543aa83325f42f467dbbd7257f8152508160800151604f81518110613c27577f4e487b7100000000000000000000000000000000000000000000000000000000600052603260045260246000fd5b602002602001018190525060405180604001604052807f2a594aac9d63adbe7408db9a58c91f20e8c72f88440d9c672362f38b0dc6566281526020017f027709366e71ebb61ef78d552b760063e89dde9e00914e13b76f324d7c14dc748152508160800151605081518110613cc5577f4e487b7100000000000000000000000000000000000000000000000000000000600052603260045260246000fd5b602002602001018190525060405180604001604052807f206f2d07c8e39fa4c8006c8cca145e6b5ae906be63edb1b8f1ef6882c291fd8481526020017f2a91ee6372d224f0a441026595b55b177749037da3b2e30dffe55b6718cc2bec8152508160800151605181518110613d63577f4e487b7100000000000000000000000000000000000000000000000000000000600052603260045260246000fd5b602002602001018190525060405180604001604052807f1f9f8c303d61b0d36fae5cf5e7cc4ce16571dfe1d5a8587355d68a317efbfe9e81526020017f2ebb01d91ab9ed2104297edff1a2f0bf647e017c1b72b0ab1db4db1d0430d2208152508160800151605281518110613e01577f4e487b7100000000000000000000000000000000000000000000000000000000600052603260045260246000fd5b602002602001018190525060405180604001604052807f2c9fe4766cd0552e3283b935605d8835520b262b9b19c1e2107a4745152936db81526020017f2af7908997b91aff66a29d00b3e1e91686fb925804692e4ca99a0781eb945b188152508160800151605381518110613e9f577f4e487b7100000000000000000000000000000000000000000000000000000000600052603260045260246000fd5b602002602001018190525060405180604001604052807f294e07d402984e773f25f66727cd05df24f992e9dcafb421340343d42d7515cc81526020017f28cc20292cb4e875d474ca8a940b0040335f773e9d1dcf0a30b897604bc561568152508160800151605481518110613f3d577f4e487b7100000000000000000000000000000000000000000000000000000000600052603260045260246000fd5b602002602001018190525060405180604001604052807f13f5bb7498dd0bcf617231d7f71bab2c4e799dea6703694b4793829a2f51e9d781526020017f03163cc05165d4fb93464b2a80f76347ec2f384305b9ce91687522835d86f8048152508160800151605581518110613fdb577f4e487b7100000000000000000000000000000000000000000000000000000000600052603260045260246000fd5b602002602001018190525060405180604001604052807f0fa3b1d0e44622188ee81434b8ef53e7a22e2e08a5181b1d0ca2fa6338e289c681526020017f03b53207b90f9bd529f6c278366f576811f8a41b1f9fe030ec3341ac0052d58d8152508160800151605681518110614079577f4e487b7100000000000000000000000000000000000000000000000000000000600052603260045260246000fd5b602002602001018190525060405180604001604052807f1888faf3dedcd2b953473aed6290a7a95892c704cb886db676b3f9eefb0aaf7781526020017f2c87a332293b04818f1373c6275331543b5f38adbe274859114a7c04f8d6a6cc8152508160800151605781518110614117577f4e487b7100000000000000000000000000000000000000000000000000000000600052603260045260246000fd5b602002602001018190525060405180604001604052807f231d4da933be6c41d1e2fa85d51ffac56f08ad9735afcdc4db8f96c535f294dd81526020017f01766c82a59e782687ac788841043dd2c391fb10b44541cd4dba30a6b931b29a81525081608001516058815181106141b5577f4e487b7100000000000000000000000000000000000000000000000000000000600052603260045260246000fd5b602002602001018190525060405180604001604052807f09b2409e0b20822941af67cd430eed2b29804f0aa45c314d2c85a4be99a364eb81526020017f270de143830058864fb0d5cab0a8e05d4aaa945abe905ef286c63142b1a232a58152508160800151605981518110614253577f4e487b7100000000000000000000000000000000000000000000000000000000600052603260045260246000fd5b602002602001018190525060405180604001604052807f104dead0fc29d76cd6de1a5a549277068270cb4015298d921661f8199200a8ae81526020017f0aa649111c5f6f7c159ac0a274287bb11752c10f747c8e45fcc27349201e24028152508160800151605a815181106142f1577f4e487b7100000000000000000000000000000000000000000000000000000000600052603260045260246000fd5b602002602001018190525060405180604001604052807f205bfc79cb4e8e493b52456959bb8181646de258cf9a90191c773ec905f83c3781526020017f133ffaa19820cce646d13f261af765113ab6fca3237fde1b13ab08298d367ece8152508160800151605b8151811061438f577f4e487b7100000000000000000000000000000000000000000000000000000000600052603260045260246000fd5b602002602001018190525060405180604001604052807f1de6e818307095b3516b5ac1d3b0a8ca6971fc923acb14d9d5bdfdccd510584781526020017f212a82d277f41acf1770544c9bb21d8daf43b5aa61e6560f718eb6d066a132788152508160800151605c8151811061442d577f4e487b7100000000000000000000000000000000000000000000000000000000600052603260045260246000fd5b602002602001018190525060405180604001604052807f1758c329b8c8f285cd143a7f742ab5f72681a30af9638b484d0b609fa16dba3381526020017f2a3f507a43aa1007c95e90710396958e2b683971301d40c94dacd57deba287c98152508160800151605d815181106144cb577f4e487b7100000000000000000000000000000000000000000000000000000000600052603260045260246000fd5b602002602001018190525060405180604001604052807f0159e23cb930eff47e82d165bb1fbd30833a0ea2c31a08cd8a0ecdcfe37363d981526020017f04a09552acf80ad6f65eb6dbb35131d548a8427e9c9a6d94cb8c8f2f6e7dbe8d8152508160800151605e81518110614569577f4e487b7100000000000000000000000000000000000000000000000000000000600052603260045260246000fd5b602002602001018190525060405180604001604052807f2dd012369cc7cd964b075b486432b3edba2e5d6cfab5a3899c8ef3544f98cfe181526020017f165df1d4d0a1c866fe74fdc13a64e93ac95a1b81628a12c122e84d402300e42d8152508160800151605f81518110614607577f4e487b7100000000000000000000000000000000000000000000000000000000600052603260045260246000fd5b602002602001018190525060405180604001604052807f17920821abfb661d6e3a48acebbcc939aad2fa80f042f5119ad61688bf3e3e7981526020017f03f9abb38381d7767fedd26556f1634da1e31b87b02750d6d46bcd4e899170d781525081608001516060815181106146a5577f4e487b7100000000000000000000000000000000000000000000000000000000600052603260045260246000fd5b602002602001018190525060405180604001604052807f09646bb2e0dd61491076ea5c3906e30367919331dad02c34a2e26214476a157a81526020017f09ac01c381ebe64361c521f7e6e6f0a89c62c4b7b2353898ca411cb9516959a28152508160800151606181518110614743577f4e487b7100000000000000000000000000000000000000000000000000000000600052603260045260246000fd5b602002602001018190525060405180604001604052807f13b5953b4ca80e7b6ca88f7328ade0820cb68950ecf60fe66cd98d49d3e6fda181526020017f2cb4e95b9c90f81eab0e734a0000a07d02dc9932cc69e5c5442cc7586f78591981525081608001516062815181106147e1577f4e487b7100000000000000000000000000000000000000000000000000000000600052603260045260246000fd5b602002602001018190525060405180604001604052807f2805aa50f2bc5c3feb8c0ceac9193e886909b0509b73cb2850165aa8fc835e8081526020017f10137839fea352db616d993d980e6e0e1d7f85877cf81359fba75c149b26f12f815250816080015160638151811061487f577f4e487b7100000000000000000000000000000000000000000000000000000000600052603260045260246000fd5b602002602001018190525060405180604001604052807f2e39297b06be560e820979f6bf3e357df6521fcb8f6d181bb62d485fa0010daa81526020017f2b50ebb4469a1b52e7d16282a84287291e880c35da7da0140a83aa1c9e981412815250816080015160648151811061491d577f4e487b7100000000000000000000000000000000000000000000000000000000600052603260045260246000fd5b602002602001018190525060405180604001604052807f052b05e56d12c7eb8db385f222f92b9d9cea5f119f6dd4aa6aac81e9d1116c1c81526020017f13f74c389cb66728d2d9ae6c4d5448ff143603100742f9f7bea56562f0511a0c81525081608001516065815181106149bb577f4e487b7100000000000000000000000000000000000000000000000000000000600052603260045260246000fd5b602002602001018190525060405180604001604052807f038dd8610d26eac884a83d3eedbd611bc010d9918e5f18325fa8d3b6e377749881526020017f17ac4cb2cc32ecb587a319ac1b263d799be4209436ad14773a422685f11a28448152508160800151606681518110614a59577f4e487b7100000000000000000000000000000000000000000000000000000000600052603260045260246000fd5b602002602001018190525090565b614a6f61582c565b614a77615846565b836000015181600060038110614ab6577f4e487b7100000000000000000000000000000000000000000000000000000000600052603260045260246000fd5b602002018181525050836020015181600160038110614afe577f4e487b7100000000000000000000000000000000000000000000000000000000600052603260045260246000fd5b6020020181815250508281600260038110614b42577f4e487b7100000000000000000000000000000000000000000000000000000000600052603260045260246000fd5b602002018181525050600060608360808460076107d05a03fa90508060008114614b6b57614b6d565bfe5b5080614bae576040517f08c379a0000000000000000000000000000000000000000000000000000000008152600401614ba590615c28565b60405180910390fd5b505092915050565b614bbe61582c565b614bc6615868565b836000015181600060048110614c05577f4e487b7100000000000000000000000000000000000000000000000000000000600052603260045260246000fd5b602002018181525050836020015181600160048110614c4d577f4e487b7100000000000000000000000000000000000000000000000000000000600052603260045260246000fd5b602002018181525050826000015181600260048110614c95577f4e487b7100000000000000000000000000000000000000000000000000000000600052603260045260246000fd5b602002018181525050826020015181600360048110614cdd577f4e487b7100000000000000000000000000000000000000000000000000000000600052603260045260246000fd5b602002018181525050600060608360c08460066107d05a03fa90508060008114614d0657614d08565bfe5b5080614d49576040517f08c379a0000000000000000000000000000000000000000000000000000000008152600401614d4090615c88565b60405180910390fd5b505092915050565b614d5961582c565b60007f30644e72e131a029b85045b68181585d97816a916871ca8d3c208c16d87cfd47905060008360000151148015614d96575060008360200151145b15614dba576040518060400160405280600081526020016000815250915050614df1565b604051806040016040528084600001518152602001828560200151614ddf9190615ee4565b83614dea9190615e20565b8152509150505b919050565b600080600467ffffffffffffffff811115614e3a577f4e487b7100000000000000000000000000000000000000000000000000000000600052604160045260246000fd5b604051908082528060200260200182016040528015614e7357816020015b614e6061582c565b815260200190600190039081614e585790505b5090506000600467ffffffffffffffff811115614eb9577f4e487b7100000000000000000000000000000000000000000000000000000000600052604160045260246000fd5b604051908082528060200260200182016040528015614ef257816020015b614edf61588a565b815260200190600190039081614ed75790505b5090508a82600081518110614f30577f4e487b7100000000000000000000000000000000000000000000000000000000600052603260045260246000fd5b60200260200101819052508882600181518110614f76577f4e487b7100000000000000000000000000000000000000000000000000000000600052603260045260246000fd5b60200260200101819052508682600281518110614fbc577f4e487b7100000000000000000000000000000000000000000000000000000000600052603260045260246000fd5b60200260200101819052508482600381518110615002577f4e487b7100000000000000000000000000000000000000000000000000000000600052603260045260246000fd5b60200260200101819052508981600081518110615048577f4e487b7100000000000000000000000000000000000000000000000000000000600052603260045260246000fd5b6020026020010181905250878160018151811061508e577f4e487b7100000000000000000000000000000000000000000000000000000000600052603260045260246000fd5b602002602001018190525085816002815181106150d4577f4e487b7100000000000000000000000000000000000000000000000000000000600052603260045260246000fd5b6020026020010181905250838160038151811061511a577f4e487b7100000000000000000000000000000000000000000000000000000000600052603260045260246000fd5b602002602001018190525061512f828261513f565b9250505098975050505050505050565b60008151835114615185576040517f08c379a000000000000000000000000000000000000000000000000000000000815260040161517c90615c68565b60405180910390fd5b600083519050600060068261519a9190615dc6565b905060008167ffffffffffffffff8111156151de577f4e487b7100000000000000000000000000000000000000000000000000000000600052604160045260246000fd5b60405190808252806020026020018201604052801561520c5781602001602082028036833780820191505090505b50905060005b838110156156f157868181518110615253577f4e487b7100000000000000000000000000000000000000000000000000000000600052603260045260246000fd5b60200260200101516000015182600060068461526f9190615dc6565b6152799190615d70565b815181106152b0577f4e487b7100000000000000000000000000000000000000000000000000000000600052603260045260246000fd5b6020026020010181815250508681815181106152f5577f4e487b7100000000000000000000000000000000000000000000000000000000600052603260045260246000fd5b6020026020010151602001518260016006846153119190615dc6565b61531b9190615d70565b81518110615352577f4e487b7100000000000000000000000000000000000000000000000000000000600052603260045260246000fd5b602002602001018181525050858181518110615397577f4e487b7100000000000000000000000000000000000000000000000000000000600052603260045260246000fd5b6020026020010151600001516000600281106153dc577f4e487b7100000000000000000000000000000000000000000000000000000000600052603260045260246000fd5b60200201518260026006846153f19190615dc6565b6153fb9190615d70565b81518110615432577f4e487b7100000000000000000000000000000000000000000000000000000000600052603260045260246000fd5b602002602001018181525050858181518110615477577f4e487b7100000000000000000000000000000000000000000000000000000000600052603260045260246000fd5b6020026020010151600001516001600281106154bc577f4e487b7100000000000000000000000000000000000000000000000000000000600052603260045260246000fd5b60200201518260036006846154d19190615dc6565b6154db9190615d70565b81518110615512577f4e487b7100000000000000000000000000000000000000000000000000000000600052603260045260246000fd5b602002602001018181525050858181518110615557577f4e487b7100000000000000000000000000000000000000000000000000000000600052603260045260246000fd5b60200260200101516020015160006002811061559c577f4e487b7100000000000000000000000000000000000000000000000000000000600052603260045260246000fd5b60200201518260046006846155b19190615dc6565b6155bb9190615d70565b815181106155f2577f4e487b7100000000000000000000000000000000000000000000000000000000600052603260045260246000fd5b602002602001018181525050858181518110615637577f4e487b7100000000000000000000000000000000000000000000000000000000600052603260045260246000fd5b60200260200101516020015160016002811061567c577f4e487b7100000000000000000000000000000000000000000000000000000000600052603260045260246000fd5b60200201518260056006846156919190615dc6565b61569b9190615d70565b815181106156d2577f4e487b7100000000000000000000000000000000000000000000000000000000600052603260045260246000fd5b60200260200101818152505080806156e990615e9b565b915050615212565b506156fa6158b0565b6000602082602086026020860160086107d05a03fa9050806000811461571f57615721565bfe5b5080615762576040517f08c379a000000000000000000000000000000000000000000000000000000000815260040161575990615ca8565b60405180910390fd5b60008260006001811061579e577f4e487b7100000000000000000000000000000000000000000000000000000000600052603260045260246000fd5b602002015114159550505050505092915050565b60405180606001604052806157c561582c565b81526020016157d261588a565b81526020016157df61582c565b81525090565b6040518060a001604052806157f861582c565b815260200161580561588a565b815260200161581261588a565b815260200161581f61588a565b8152602001606081525090565b604051806040016040528060008152602001600081525090565b6040518060600160405280600390602082028036833780820191505090505090565b6040518060800160405280600490602082028036833780820191505090505090565b604051806040016040528061589d6158d2565b81526020016158aa6158d2565b81525090565b6040518060200160405280600190602082028036833780820191505090505090565b6040518060400160405280600290602082028036833780820191505090505090565b600061590761590284615ced565b615cc8565b9050808285604086028201111561591d57600080fd5b60005b8581101561594d57816159338882615a6b565b845260208401935060408301925050600181019050615920565b5050509392505050565b600061596a61596584615d13565b615cc8565b9050808285602086028201111561598057600080fd5b60005b858110156159b057816159968882615a92565b845260208401935060208301925050600181019050615983565b5050509392505050565b60006159cd6159c884615d39565b615cc8565b905080828560208602820111156159e357600080fd5b60005b85811015615a1357816159f98882615a92565b8452602084019350602083019250506001810190506159e6565b5050509392505050565b600082601f830112615a2e57600080fd5b6002615a3b8482856158f4565b91505092915050565b600082601f830112615a5557600080fd5b6066615a62848285615957565b91505092915050565b600082601f830112615a7c57600080fd5b6002615a898482856159ba565b91505092915050565b600081359050615aa1816160a9565b92915050565b600080600080610dc08587031215615abe57600080fd5b6000615acc87828801615a6b565b9450506040615add87828801615a1d565b93505060c0615aee87828801615a6b565b925050610100615b0087828801615a44565b91505092959194509250565b615b1581615e54565b82525050565b6000615b28601283615d5f565b9150615b3382615fb3565b602082019050919050565b6000615b4b601283615d5f565b9150615b5682615fdc565b602082019050919050565b6000615b6e601f83615d5f565b9150615b7982616005565b602082019050919050565b6000615b91601683615d5f565b9150615b9c8261602e565b602082019050919050565b6000615bb4601283615d5f565b9150615bbf82616057565b602082019050919050565b6000615bd7601583615d5f565b9150615be282616080565b602082019050919050565b6000602082019050615c026000830184615b0c565b92915050565b60006020820190508181036000830152615c2181615b1b565b9050919050565b60006020820190508181036000830152615c4181615b3e565b9050919050565b60006020820190508181036000830152615c6181615b61565b9050919050565b60006020820190508181036000830152615c8181615b84565b9050919050565b60006020820190508181036000830152615ca181615ba7565b9050919050565b60006020820190508181036000830152615cc181615bca565b9050919050565b6000615cd2615ce3565b9050615cde8282615e6a565b919050565b6000604051905090565b600067ffffffffffffffff821115615d0857615d07615f73565b5b602082029050919050565b600067ffffffffffffffff821115615d2e57615d2d615f73565b5b602082029050919050565b600067ffffffffffffffff821115615d5457615d53615f73565b5b602082029050919050565b600082825260208201905092915050565b6000615d7b82615e60565b9150615d8683615e60565b9250827fffffffffffffffffffffffffffffffffffffffffffffffffffffffffffffffff03821115615dbb57615dba615f15565b5b828201905092915050565b6000615dd182615e60565b9150615ddc83615e60565b9250817fffffffffffffffffffffffffffffffffffffffffffffffffffffffffffffffff0483118215151615615e1557615e14615f15565b5b828202905092915050565b6000615e2b82615e60565b9150615e3683615e60565b925082821015615e4957615e48615f15565b5b828203905092915050565b60008115159050919050565b6000819050919050565b615e7382615fa2565b810181811067ffffffffffffffff82111715615e9257615e91615f73565b5b80604052505050565b6000615ea682615e60565b91507fffffffffffffffffffffffffffffffffffffffffffffffffffffffffffffffff821415615ed957615ed8615f15565b5b600182019050919050565b6000615eef82615e60565b9150615efa83615e60565b925082615f0a57615f09615f44565b5b828206905092915050565b7f4e487b7100000000000000000000000000000000000000000000000000000000600052601160045260246000fd5b7f4e487b7100000000000000000000000000000000000000000000000000000000600052601260045260246000fd5b7f4e487b7100000000000000000000000000000000000000000000000000000000600052604160045260246000fd5b6000601f19601f8301169050919050565b7f76657269666965722d6261642d696e7075740000000000000000000000000000600082015250565b7f70616972696e672d6d756c2d6661696c65640000000000000000000000000000600082015250565b7f76657269666965722d6774652d736e61726b2d7363616c61722d6669656c6400600082015250565b7f70616972696e672d6c656e677468732d6661696c656400000000000000000000600082015250565b7f70616972696e672d6164642d6661696c65640000000000000000000000000000600082015250565b7f70616972696e672d6f70636f64652d6661696c65640000000000000000000000600082015250565b6160b281615e60565b81146160bd57600080fd5b5056fea2646970667358221220d7a6e48973717d388486d0312e97bbd54ede1e326dd5908ad7e9e23aaf77739164736f6c63430008040033",
          "opcodes": "PUSH1 0x80 PUSH1 0x40 MSTORE CALLVALUE DUP1 ISZERO PUSH2 0x10 JUMPI PUSH1 0x0 DUP1 REVERT JUMPDEST POP PUSH2 0x60F6 DUP1 PUSH3 0x21 PUSH1 0x0 CODECOPY PUSH1 0x0 RETURN INVALID PUSH1 0x80 PUSH1 0x40 MSTORE CALLVALUE DUP1 ISZERO PUSH2 0x10 JUMPI PUSH1 0x0 DUP1 REVERT JUMPDEST POP PUSH1 0x4 CALLDATASIZE LT PUSH2 0x2B JUMPI PUSH1 0x0 CALLDATALOAD PUSH1 0xE0 SHR DUP1 PUSH4 0x274182F8 EQ PUSH2 0x30 JUMPI JUMPDEST PUSH1 0x0 DUP1 REVERT JUMPDEST PUSH2 0x4A PUSH1 0x4 DUP1 CALLDATASIZE SUB DUP2 ADD SWAP1 PUSH2 0x45 SWAP2 SWAP1 PUSH2 0x5AA7 JUMP JUMPDEST PUSH2 0x60 JUMP JUMPDEST PUSH1 0x40 MLOAD PUSH2 0x57 SWAP2 SWAP1 PUSH2 0x5BED JUMP JUMPDEST PUSH1 0x40 MLOAD DUP1 SWAP2 SUB SWAP1 RETURN JUMPDEST PUSH1 0x0 PUSH2 0x6A PUSH2 0x57B2 JUMP JUMPDEST PUSH1 0x40 MLOAD DUP1 PUSH1 0x40 ADD PUSH1 0x40 MSTORE DUP1 DUP8 PUSH1 0x0 PUSH1 0x2 DUP2 LT PUSH2 0xAF JUMPI PUSH32 0x4E487B7100000000000000000000000000000000000000000000000000000000 PUSH1 0x0 MSTORE PUSH1 0x32 PUSH1 0x4 MSTORE PUSH1 0x24 PUSH1 0x0 REVERT JUMPDEST PUSH1 0x20 MUL ADD MLOAD DUP2 MSTORE PUSH1 0x20 ADD DUP8 PUSH1 0x1 PUSH1 0x2 DUP2 LT PUSH2 0xF3 JUMPI PUSH32 0x4E487B7100000000000000000000000000000000000000000000000000000000 PUSH1 0x0 MSTORE PUSH1 0x32 PUSH1 0x4 MSTORE PUSH1 0x24 PUSH1 0x0 REVERT JUMPDEST PUSH1 0x20 MUL ADD MLOAD DUP2 MSTORE POP DUP2 PUSH1 0x0 ADD DUP2 SWAP1 MSTORE POP PUSH1 0x40 MLOAD DUP1 PUSH1 0x40 ADD PUSH1 0x40 MSTORE DUP1 PUSH1 0x40 MLOAD DUP1 PUSH1 0x40 ADD PUSH1 0x40 MSTORE DUP1 DUP9 PUSH1 0x0 PUSH1 0x2 DUP2 LT PUSH2 0x153 JUMPI PUSH32 0x4E487B7100000000000000000000000000000000000000000000000000000000 PUSH1 0x0 MSTORE PUSH1 0x32 PUSH1 0x4 MSTORE PUSH1 0x24 PUSH1 0x0 REVERT JUMPDEST PUSH1 0x20 MUL ADD MLOAD PUSH1 0x0 PUSH1 0x2 DUP2 LT PUSH2 0x191 JUMPI PUSH32 0x4E487B7100000000000000000000000000000000000000000000000000000000 PUSH1 0x0 MSTORE PUSH1 0x32 PUSH1 0x4 MSTORE PUSH1 0x24 PUSH1 0x0 REVERT JUMPDEST PUSH1 0x20 MUL ADD MLOAD DUP2 MSTORE PUSH1 0x20 ADD DUP9 PUSH1 0x0 PUSH1 0x2 DUP2 LT PUSH2 0x1D5 JUMPI PUSH32 0x4E487B7100000000000000000000000000000000000000000000000000000000 PUSH1 0x0 MSTORE PUSH1 0x32 PUSH1 0x4 MSTORE PUSH1 0x24 PUSH1 0x0 REVERT JUMPDEST PUSH1 0x20 MUL ADD MLOAD PUSH1 0x1 PUSH1 0x2 DUP2 LT PUSH2 0x213 JUMPI PUSH32 0x4E487B7100000000000000000000000000000000000000000000000000000000 PUSH1 0x0 MSTORE PUSH1 0x32 PUSH1 0x4 MSTORE PUSH1 0x24 PUSH1 0x0 REVERT JUMPDEST PUSH1 0x20 MUL ADD MLOAD DUP2 MSTORE POP DUP2 MSTORE PUSH1 0x20 ADD PUSH1 0x40 MLOAD DUP1 PUSH1 0x40 ADD PUSH1 0x40 MSTORE DUP1 DUP9 PUSH1 0x1 PUSH1 0x2 DUP2 LT PUSH2 0x265 JUMPI PUSH32 0x4E487B7100000000000000000000000000000000000000000000000000000000 PUSH1 0x0 MSTORE PUSH1 0x32 PUSH1 0x4 MSTORE PUSH1 0x24 PUSH1 0x0 REVERT JUMPDEST PUSH1 0x20 MUL ADD MLOAD PUSH1 0x0 PUSH1 0x2 DUP2 LT PUSH2 0x2A3 JUMPI PUSH32 0x4E487B7100000000000000000000000000000000000000000000000000000000 PUSH1 0x0 MSTORE PUSH1 0x32 PUSH1 0x4 MSTORE PUSH1 0x24 PUSH1 0x0 REVERT JUMPDEST PUSH1 0x20 MUL ADD MLOAD DUP2 MSTORE PUSH1 0x20 ADD DUP9 PUSH1 0x1 PUSH1 0x2 DUP2 LT PUSH2 0x2E7 JUMPI PUSH32 0x4E487B7100000000000000000000000000000000000000000000000000000000 PUSH1 0x0 MSTORE PUSH1 0x32 PUSH1 0x4 MSTORE PUSH1 0x24 PUSH1 0x0 REVERT JUMPDEST PUSH1 0x20 MUL ADD MLOAD PUSH1 0x1 PUSH1 0x2 DUP2 LT PUSH2 0x325 JUMPI PUSH32 0x4E487B7100000000000000000000000000000000000000000000000000000000 PUSH1 0x0 MSTORE PUSH1 0x32 PUSH1 0x4 MSTORE PUSH1 0x24 PUSH1 0x0 REVERT JUMPDEST PUSH1 0x20 MUL ADD MLOAD DUP2 MSTORE POP DUP2 MSTORE POP DUP2 PUSH1 0x20 ADD DUP2 SWAP1 MSTORE POP PUSH1 0x40 MLOAD DUP1 PUSH1 0x40 ADD PUSH1 0x40 MSTORE DUP1 DUP6 PUSH1 0x0 PUSH1 0x2 DUP2 LT PUSH2 0x37D JUMPI PUSH32 0x4E487B7100000000000000000000000000000000000000000000000000000000 PUSH1 0x0 MSTORE PUSH1 0x32 PUSH1 0x4 MSTORE PUSH1 0x24 PUSH1 0x0 REVERT JUMPDEST PUSH1 0x20 MUL ADD MLOAD DUP2 MSTORE PUSH1 0x20 ADD DUP6 PUSH1 0x1 PUSH1 0x2 DUP2 LT PUSH2 0x3C1 JUMPI PUSH32 0x4E487B7100000000000000000000000000000000000000000000000000000000 PUSH1 0x0 MSTORE PUSH1 0x32 PUSH1 0x4 MSTORE PUSH1 0x24 PUSH1 0x0 REVERT JUMPDEST PUSH1 0x20 MUL ADD MLOAD DUP2 MSTORE POP DUP2 PUSH1 0x40 ADD DUP2 SWAP1 MSTORE POP PUSH1 0x0 PUSH1 0x66 PUSH8 0xFFFFFFFFFFFFFFFF DUP2 GT ISZERO PUSH2 0x414 JUMPI PUSH32 0x4E487B7100000000000000000000000000000000000000000000000000000000 PUSH1 0x0 MSTORE PUSH1 0x41 PUSH1 0x4 MSTORE PUSH1 0x24 PUSH1 0x0 REVERT JUMPDEST PUSH1 0x40 MLOAD SWAP1 DUP1 DUP3 MSTORE DUP1 PUSH1 0x20 MUL PUSH1 0x20 ADD DUP3 ADD PUSH1 0x40 MSTORE DUP1 ISZERO PUSH2 0x442 JUMPI DUP2 PUSH1 0x20 ADD PUSH1 0x20 DUP3 MUL DUP1 CALLDATASIZE DUP4 CALLDATACOPY DUP1 DUP3 ADD SWAP2 POP POP SWAP1 POP JUMPDEST POP SWAP1 POP PUSH1 0x0 JUMPDEST PUSH1 0x66 DUP2 LT ISZERO PUSH2 0x4E7 JUMPI DUP5 DUP2 PUSH1 0x66 DUP2 LT PUSH2 0x48A JUMPI PUSH32 0x4E487B7100000000000000000000000000000000000000000000000000000000 PUSH1 0x0 MSTORE PUSH1 0x32 PUSH1 0x4 MSTORE PUSH1 0x24 PUSH1 0x0 REVERT JUMPDEST PUSH1 0x20 MUL ADD MLOAD DUP3 DUP3 DUP2 MLOAD DUP2 LT PUSH2 0x4C8 JUMPI PUSH32 0x4E487B7100000000000000000000000000000000000000000000000000000000 PUSH1 0x0 MSTORE PUSH1 0x32 PUSH1 0x4 MSTORE PUSH1 0x24 PUSH1 0x0 REVERT JUMPDEST PUSH1 0x20 MUL PUSH1 0x20 ADD ADD DUP2 DUP2 MSTORE POP POP DUP1 DUP1 PUSH2 0x4DF SWAP1 PUSH2 0x5E9B JUMP JUMPDEST SWAP2 POP POP PUSH2 0x448 JUMP JUMPDEST POP PUSH1 0x0 PUSH2 0x4F4 DUP3 DUP5 PUSH2 0x514 JUMP JUMPDEST EQ ISZERO PUSH2 0x505 JUMPI PUSH1 0x1 SWAP3 POP POP POP PUSH2 0x50C JUMP JUMPDEST PUSH1 0x0 SWAP3 POP POP POP JUMPDEST SWAP5 SWAP4 POP POP POP POP JUMP JUMPDEST PUSH1 0x0 DUP1 PUSH32 0x30644E72E131A029B85045B68181585D2833E84879B9709143E1F593F0000001 SWAP1 POP PUSH1 0x0 PUSH2 0x544 PUSH2 0x79F JUMP JUMPDEST SWAP1 POP DUP1 PUSH1 0x80 ADD MLOAD MLOAD PUSH1 0x1 DUP7 MLOAD PUSH2 0x55A SWAP2 SWAP1 PUSH2 0x5D70 JUMP JUMPDEST EQ PUSH2 0x59A JUMPI PUSH1 0x40 MLOAD PUSH32 0x8C379A000000000000000000000000000000000000000000000000000000000 DUP2 MSTORE PUSH1 0x4 ADD PUSH2 0x591 SWAP1 PUSH2 0x5C08 JUMP JUMPDEST PUSH1 0x40 MLOAD DUP1 SWAP2 SUB SWAP1 REVERT JUMPDEST PUSH1 0x0 PUSH1 0x40 MLOAD DUP1 PUSH1 0x40 ADD PUSH1 0x40 MSTORE DUP1 PUSH1 0x0 DUP2 MSTORE PUSH1 0x20 ADD PUSH1 0x0 DUP2 MSTORE POP SWAP1 POP PUSH1 0x0 JUMPDEST DUP7 MLOAD DUP2 LT ISZERO PUSH2 0x6FB JUMPI DUP4 DUP8 DUP3 DUP2 MLOAD DUP2 LT PUSH2 0x5FB JUMPI PUSH32 0x4E487B7100000000000000000000000000000000000000000000000000000000 PUSH1 0x0 MSTORE PUSH1 0x32 PUSH1 0x4 MSTORE PUSH1 0x24 PUSH1 0x0 REVERT JUMPDEST PUSH1 0x20 MUL PUSH1 0x20 ADD ADD MLOAD LT PUSH2 0x643 JUMPI PUSH1 0x40 MLOAD PUSH32 0x8C379A000000000000000000000000000000000000000000000000000000000 DUP2 MSTORE PUSH1 0x4 ADD PUSH2 0x63A SWAP1 PUSH2 0x5C48 JUMP JUMPDEST PUSH1 0x40 MLOAD DUP1 SWAP2 SUB SWAP1 REVERT JUMPDEST PUSH2 0x6E6 DUP3 PUSH2 0x6E1 DUP6 PUSH1 0x80 ADD MLOAD PUSH1 0x1 DUP6 PUSH2 0x65C SWAP2 SWAP1 PUSH2 0x5D70 JUMP JUMPDEST DUP2 MLOAD DUP2 LT PUSH2 0x693 JUMPI PUSH32 0x4E487B7100000000000000000000000000000000000000000000000000000000 PUSH1 0x0 MSTORE PUSH1 0x32 PUSH1 0x4 MSTORE PUSH1 0x24 PUSH1 0x0 REVERT JUMPDEST PUSH1 0x20 MUL PUSH1 0x20 ADD ADD MLOAD DUP11 DUP6 DUP2 MLOAD DUP2 LT PUSH2 0x6D4 JUMPI PUSH32 0x4E487B7100000000000000000000000000000000000000000000000000000000 PUSH1 0x0 MSTORE PUSH1 0x32 PUSH1 0x4 MSTORE PUSH1 0x24 PUSH1 0x0 REVERT JUMPDEST PUSH1 0x20 MUL PUSH1 0x20 ADD ADD MLOAD PUSH2 0x4A67 JUMP JUMPDEST PUSH2 0x4BB6 JUMP JUMPDEST SWAP2 POP DUP1 DUP1 PUSH2 0x6F3 SWAP1 PUSH2 0x5E9B JUMP JUMPDEST SWAP2 POP POP PUSH2 0x5B8 JUMP JUMPDEST POP PUSH2 0x74B DUP2 DUP4 PUSH1 0x80 ADD MLOAD PUSH1 0x0 DUP2 MLOAD DUP2 LT PUSH2 0x73E JUMPI PUSH32 0x4E487B7100000000000000000000000000000000000000000000000000000000 PUSH1 0x0 MSTORE PUSH1 0x32 PUSH1 0x4 MSTORE PUSH1 0x24 PUSH1 0x0 REVERT JUMPDEST PUSH1 0x20 MUL PUSH1 0x20 ADD ADD MLOAD PUSH2 0x4BB6 JUMP JUMPDEST SWAP1 POP PUSH2 0x781 PUSH2 0x75D DUP7 PUSH1 0x0 ADD MLOAD PUSH2 0x4D51 JUMP JUMPDEST DUP7 PUSH1 0x20 ADD MLOAD DUP5 PUSH1 0x0 ADD MLOAD DUP6 PUSH1 0x20 ADD MLOAD DUP6 DUP8 PUSH1 0x40 ADD MLOAD DUP12 PUSH1 0x40 ADD MLOAD DUP10 PUSH1 0x60 ADD MLOAD PUSH2 0x4DF6 JUMP JUMPDEST PUSH2 0x791 JUMPI PUSH1 0x1 SWAP4 POP POP POP POP PUSH2 0x799 JUMP JUMPDEST PUSH1 0x0 SWAP4 POP POP POP POP JUMPDEST SWAP3 SWAP2 POP POP JUMP JUMPDEST PUSH2 0x7A7 PUSH2 0x57E5 JUMP JUMPDEST PUSH1 0x40 MLOAD DUP1 PUSH1 0x40 ADD PUSH1 0x40 MSTORE DUP1 PUSH32 0x2D4D9AA7E302D9DF41749D5507949D05DBEA33FBB16C643B22F599A2BE6DF2E2 DUP2 MSTORE PUSH1 0x20 ADD PUSH32 0x14BEDD503C37CEB061D8EC60209FE345CE89830A19230301F076CAFF004D1926 DUP2 MSTORE POP DUP2 PUSH1 0x0 ADD DUP2 SWAP1 MSTORE POP PUSH1 0x40 MLOAD DUP1 PUSH1 0x40 ADD PUSH1 0x40 MSTORE DUP1 PUSH1 0x40 MLOAD DUP1 PUSH1 0x40 ADD PUSH1 0x40 MSTORE DUP1 PUSH32 0x967032FCBF776D1AFC985F88877F182D38480A653F2DECAA9794CBC3BF3060C DUP2 MSTORE PUSH1 0x20 ADD PUSH32 0xE187847AD4C798374D0D6732BF501847DD68BC0E071241E0213BC7FC13DB7AB DUP2 MSTORE POP DUP2 MSTORE PUSH1 0x20 ADD PUSH1 0x40 MLOAD DUP1 PUSH1 0x40 ADD PUSH1 0x40 MSTORE DUP1 PUSH32 0x304CFBD1E08A704A99F5E847D93F8C3CAAFDDEC46B7A0D379DA69A4D112346A7 DUP2 MSTORE PUSH1 0x20 ADD PUSH32 0x1739C1B1A457A8C7313123D24D2F9192F896B7C63EEA05A9D57F06547AD0CEC8 DUP2 MSTORE POP DUP2 MSTORE POP DUP2 PUSH1 0x20 ADD DUP2 SWAP1 MSTORE POP PUSH1 0x40 MLOAD DUP1 PUSH1 0x40 ADD PUSH1 0x40 MSTORE DUP1 PUSH1 0x40 MLOAD DUP1 PUSH1 0x40 ADD PUSH1 0x40 MSTORE DUP1 PUSH32 0x198E9393920D483A7260BFB731FB5D25F1AA493335A9E71297E485B7AEF312C2 DUP2 MSTORE PUSH1 0x20 ADD PUSH32 0x1800DEEF121F1E76426A00665E5C4479674322D4F75EDADD46DEBD5CD992F6ED DUP2 MSTORE POP DUP2 MSTORE PUSH1 0x20 ADD PUSH1 0x40 MLOAD DUP1 PUSH1 0x40 ADD PUSH1 0x40 MSTORE DUP1 PUSH32 0x90689D0585FF075EC9E99AD690C3395BC4B313370B38EF355ACDADCD122975B DUP2 MSTORE PUSH1 0x20 ADD PUSH32 0x12C85EA5DB8C6DEB4AAB71808DCB408FE3D1E7690C43D37B4CE6CC0166FA7DAA DUP2 MSTORE POP DUP2 MSTORE POP DUP2 PUSH1 0x40 ADD DUP2 SWAP1 MSTORE POP PUSH1 0x40 MLOAD DUP1 PUSH1 0x40 ADD PUSH1 0x40 MSTORE DUP1 PUSH1 0x40 MLOAD DUP1 PUSH1 0x40 ADD PUSH1 0x40 MSTORE DUP1 PUSH32 0x296B0055638C2DADBA71B4F72E8CF72ED0DA7C87ECE4FBC8E7ACD58B4520FFA4 DUP2 MSTORE PUSH1 0x20 ADD PUSH32 0x3414D9B026D673C76EAE373CC3D5E6F29B8E38290D0F78BC8449BE29CDAAEDF DUP2 MSTORE POP DUP2 MSTORE PUSH1 0x20 ADD PUSH1 0x40 MLOAD DUP1 PUSH1 0x40 ADD PUSH1 0x40 MSTORE DUP1 PUSH32 0x11A7EBC5C81B8C8A7E0B7165C13C32F95B32ABA3A8B38D8ABDFB8CCB8138CA30 DUP2 MSTORE PUSH1 0x20 ADD PUSH32 0x1F5D08ADBDA7FA78FC1A45EE0E0BA31C6D6A6BA8EAD0A17B46E661A497463601 DUP2 MSTORE POP DUP2 MSTORE POP DUP2 PUSH1 0x60 ADD DUP2 SWAP1 MSTORE POP PUSH1 0x67 PUSH8 0xFFFFFFFFFFFFFFFF DUP2 GT ISZERO PUSH2 0xA94 JUMPI PUSH32 0x4E487B7100000000000000000000000000000000000000000000000000000000 PUSH1 0x0 MSTORE PUSH1 0x41 PUSH1 0x4 MSTORE PUSH1 0x24 PUSH1 0x0 REVERT JUMPDEST PUSH1 0x40 MLOAD SWAP1 DUP1 DUP3 MSTORE DUP1 PUSH1 0x20 MUL PUSH1 0x20 ADD DUP3 ADD PUSH1 0x40 MSTORE DUP1 ISZERO PUSH2 0xACD JUMPI DUP2 PUSH1 0x20 ADD JUMPDEST PUSH2 0xABA PUSH2 0x582C JUMP JUMPDEST DUP2 MSTORE PUSH1 0x20 ADD SWAP1 PUSH1 0x1 SWAP1 SUB SWAP1 DUP2 PUSH2 0xAB2 JUMPI SWAP1 POP JUMPDEST POP DUP2 PUSH1 0x80 ADD DUP2 SWAP1 MSTORE POP PUSH1 0x40 MLOAD DUP1 PUSH1 0x40 ADD PUSH1 0x40 MSTORE DUP1 PUSH32 0x29796E846A749DCD734930507D0185716B2ACAD5431D3E85370BA661F8929A4E DUP2 MSTORE PUSH1 0x20 ADD PUSH32 0x48E907D498131CC8180EA7AABD3DBEFCCA4CCA7D612BA2655F8CAA74FC632AF DUP2 MSTORE POP DUP2 PUSH1 0x80 ADD MLOAD PUSH1 0x0 DUP2 MLOAD DUP2 LT PUSH2 0xB69 JUMPI PUSH32 0x4E487B7100000000000000000000000000000000000000000000000000000000 PUSH1 0x0 MSTORE PUSH1 0x32 PUSH1 0x4 MSTORE PUSH1 0x24 PUSH1 0x0 REVERT JUMPDEST PUSH1 0x20 MUL PUSH1 0x20 ADD ADD DUP2 SWAP1 MSTORE POP PUSH1 0x40 MLOAD DUP1 PUSH1 0x40 ADD PUSH1 0x40 MSTORE DUP1 PUSH32 0x2BADE2AB5B1ADE3EC4DE452D34C3058A532E6C7CB5550B3BAD0A45E54877A36 DUP2 MSTORE PUSH1 0x20 ADD PUSH32 0x2378F290013EABBDCF585B7253032B7E2136FAE0ABAF1873F67BEF468A4CED59 DUP2 MSTORE POP DUP2 PUSH1 0x80 ADD MLOAD PUSH1 0x1 DUP2 MLOAD DUP2 LT PUSH2 0xC07 JUMPI PUSH32 0x4E487B7100000000000000000000000000000000000000000000000000000000 PUSH1 0x0 MSTORE PUSH1 0x32 PUSH1 0x4 MSTORE PUSH1 0x24 PUSH1 0x0 REVERT JUMPDEST PUSH1 0x20 MUL PUSH1 0x20 ADD ADD DUP2 SWAP1 MSTORE POP PUSH1 0x40 MLOAD DUP1 PUSH1 0x40 ADD PUSH1 0x40 MSTORE DUP1 PUSH32 0x27C378D1C6B8F015A8C24E3AA585317AD0ABF1DE16A2C9E9043A3D3932BD4DAA DUP2 MSTORE PUSH1 0x20 ADD PUSH32 0x2C4BF33473C0FCE7ADCA8B0096F3ADEFD52089FA540CCA3DC8BB37DAD3499F55 DUP2 MSTORE POP DUP2 PUSH1 0x80 ADD MLOAD PUSH1 0x2 DUP2 MLOAD DUP2 LT PUSH2 0xCA5 JUMPI PUSH32 0x4E487B7100000000000000000000000000000000000000000000000000000000 PUSH1 0x0 MSTORE PUSH1 0x32 PUSH1 0x4 MSTORE PUSH1 0x24 PUSH1 0x0 REVERT JUMPDEST PUSH1 0x20 MUL PUSH1 0x20 ADD ADD DUP2 SWAP1 MSTORE POP PUSH1 0x40 MLOAD DUP1 PUSH1 0x40 ADD PUSH1 0x40 MSTORE DUP1 PUSH32 0x2C9F242D3A6203E39F04BABA8DE50E15E9E3BB3A8BA9E3BCB5D8FC17EEED3A7 DUP2 MSTORE PUSH1 0x20 ADD PUSH32 0x41EC240C61DE56F1F8C0BFBBFCB5E85792696B00EC6FC3E01250DBEE850D139 DUP2 MSTORE POP DUP2 PUSH1 0x80 ADD MLOAD PUSH1 0x3 DUP2 MLOAD DUP2 LT PUSH2 0xD43 JUMPI PUSH32 0x4E487B7100000000000000000000000000000000000000000000000000000000 PUSH1 0x0 MSTORE PUSH1 0x32 PUSH1 0x4 MSTORE PUSH1 0x24 PUSH1 0x0 REVERT JUMPDEST PUSH1 0x20 MUL PUSH1 0x20 ADD ADD DUP2 SWAP1 MSTORE POP PUSH1 0x40 MLOAD DUP1 PUSH1 0x40 ADD PUSH1 0x40 MSTORE DUP1 PUSH32 0xB586E2CF33D3005E9DAEEA9C641E7C4E92811F16A511AB710139A6F8975998C DUP2 MSTORE PUSH1 0x20 ADD PUSH32 0x1420779858BCE25BC8DA9AB69A8E1CB5901544E718F1D42EA2EBCBCBDF38B418 DUP2 MSTORE POP DUP2 PUSH1 0x80 ADD MLOAD PUSH1 0x4 DUP2 MLOAD DUP2 LT PUSH2 0xDE1 JUMPI PUSH32 0x4E487B7100000000000000000000000000000000000000000000000000000000 PUSH1 0x0 MSTORE PUSH1 0x32 PUSH1 0x4 MSTORE PUSH1 0x24 PUSH1 0x0 REVERT JUMPDEST PUSH1 0x20 MUL PUSH1 0x20 ADD ADD DUP2 SWAP1 MSTORE POP PUSH1 0x40 MLOAD DUP1 PUSH1 0x40 ADD PUSH1 0x40 MSTORE DUP1 PUSH32 0x28D1585D5DBA6E6D962F76D34C090F5DA503B90217EEDCD7DC1BAEB751F3DB1F DUP2 MSTORE PUSH1 0x20 ADD PUSH32 0x110F396EC3BBBA293177C10F2CAFAA74FBA7B24966573ECB156965E335704B56 DUP2 MSTORE POP DUP2 PUSH1 0x80 ADD MLOAD PUSH1 0x5 DUP2 MLOAD DUP2 LT PUSH2 0xE7F JUMPI PUSH32 0x4E487B7100000000000000000000000000000000000000000000000000000000 PUSH1 0x0 MSTORE PUSH1 0x32 PUSH1 0x4 MSTORE PUSH1 0x24 PUSH1 0x0 REVERT JUMPDEST PUSH1 0x20 MUL PUSH1 0x20 ADD ADD DUP2 SWAP1 MSTORE POP PUSH1 0x40 MLOAD DUP1 PUSH1 0x40 ADD PUSH1 0x40 MSTORE DUP1 PUSH32 0x29AF5619B8868B3329CB2FEDFEFB13598F8E371418DFE338645B2AC0E42A3AB4 DUP2 MSTORE PUSH1 0x20 ADD PUSH32 0x2E8B790BDB1F9263366464A1F61CB584305D85C03F9A609078AB2DBEC76F653A DUP2 MSTORE POP DUP2 PUSH1 0x80 ADD MLOAD PUSH1 0x6 DUP2 MLOAD DUP2 LT PUSH2 0xF1D JUMPI PUSH32 0x4E487B7100000000000000000000000000000000000000000000000000000000 PUSH1 0x0 MSTORE PUSH1 0x32 PUSH1 0x4 MSTORE PUSH1 0x24 PUSH1 0x0 REVERT JUMPDEST PUSH1 0x20 MUL PUSH1 0x20 ADD ADD DUP2 SWAP1 MSTORE POP PUSH1 0x40 MLOAD DUP1 PUSH1 0x40 ADD PUSH1 0x40 MSTORE DUP1 PUSH32 0x2DCB7477FACA14A1032BBA7C554709C593850AA24055C18B86DF4645057F78B4 DUP2 MSTORE PUSH1 0x20 ADD PUSH32 0x1B2FF1B88A86B439397FE610F17ADA44F1D33348834024E1D843752C7CE20D30 DUP2 MSTORE POP DUP2 PUSH1 0x80 ADD MLOAD PUSH1 0x7 DUP2 MLOAD DUP2 LT PUSH2 0xFBB JUMPI PUSH32 0x4E487B7100000000000000000000000000000000000000000000000000000000 PUSH1 0x0 MSTORE PUSH1 0x32 PUSH1 0x4 MSTORE PUSH1 0x24 PUSH1 0x0 REVERT JUMPDEST PUSH1 0x20 MUL PUSH1 0x20 ADD ADD DUP2 SWAP1 MSTORE POP PUSH1 0x40 MLOAD DUP1 PUSH1 0x40 ADD PUSH1 0x40 MSTORE DUP1 PUSH32 0xE4EAD8F21A959468BB9896F75CDC8E63AD7D36327B6AA140BC8A5D041C95912 DUP2 MSTORE PUSH1 0x20 ADD PUSH32 0x2784B4B70C4F6FB5743CF5B4F5F2C223836408262D0F603898D23C2F539174E3 DUP2 MSTORE POP DUP2 PUSH1 0x80 ADD MLOAD PUSH1 0x8 DUP2 MLOAD DUP2 LT PUSH2 0x1059 JUMPI PUSH32 0x4E487B7100000000000000000000000000000000000000000000000000000000 PUSH1 0x0 MSTORE PUSH1 0x32 PUSH1 0x4 MSTORE PUSH1 0x24 PUSH1 0x0 REVERT JUMPDEST PUSH1 0x20 MUL PUSH1 0x20 ADD ADD DUP2 SWAP1 MSTORE POP PUSH1 0x40 MLOAD DUP1 PUSH1 0x40 ADD PUSH1 0x40 MSTORE DUP1 PUSH32 0xE0351C6D8E9473D3C6231670BC95F68A2FFF080A3FB2B399405232902EE2163 DUP2 MSTORE PUSH1 0x20 ADD PUSH32 0x14621F146D6396926E38DFD15FB9DD47EA943FD04F8B277A58AAB9939FDC1D4F DUP2 MSTORE POP DUP2 PUSH1 0x80 ADD MLOAD PUSH1 0x9 DUP2 MLOAD DUP2 LT PUSH2 0x10F7 JUMPI PUSH32 0x4E487B7100000000000000000000000000000000000000000000000000000000 PUSH1 0x0 MSTORE PUSH1 0x32 PUSH1 0x4 MSTORE PUSH1 0x24 PUSH1 0x0 REVERT JUMPDEST PUSH1 0x20 MUL PUSH1 0x20 ADD ADD DUP2 SWAP1 MSTORE POP PUSH1 0x40 MLOAD DUP1 PUSH1 0x40 ADD PUSH1 0x40 MSTORE DUP1 PUSH32 0xB54C0090E642A6F80E4805E3586F4BC43BFC12C67621742C9B74F5BDF2DC4CF DUP2 MSTORE PUSH1 0x20 ADD PUSH32 0xC022D73988F5FC723FECF39FE12CF4D6936701D15DA8968B59C053834856D2D DUP2 MSTORE POP DUP2 PUSH1 0x80 ADD MLOAD PUSH1 0xA DUP2 MLOAD DUP2 LT PUSH2 0x1195 JUMPI PUSH32 0x4E487B7100000000000000000000000000000000000000000000000000000000 PUSH1 0x0 MSTORE PUSH1 0x32 PUSH1 0x4 MSTORE PUSH1 0x24 PUSH1 0x0 REVERT JUMPDEST PUSH1 0x20 MUL PUSH1 0x20 ADD ADD DUP2 SWAP1 MSTORE POP PUSH1 0x40 MLOAD DUP1 PUSH1 0x40 ADD PUSH1 0x40 MSTORE DUP1 PUSH32 0x21A11CA35FB39B1091B18180E9410756DFBD77134239B08E76C87DE2D6CFBC2E DUP2 MSTORE PUSH1 0x20 ADD PUSH32 0x1178CE1765E7817C4D6CCC4900956466B6A221FEFADE887F61EA374B57133741 DUP2 MSTORE POP DUP2 PUSH1 0x80 ADD MLOAD PUSH1 0xB DUP2 MLOAD DUP2 LT PUSH2 0x1233 JUMPI PUSH32 0x4E487B7100000000000000000000000000000000000000000000000000000000 PUSH1 0x0 MSTORE PUSH1 0x32 PUSH1 0x4 MSTORE PUSH1 0x24 PUSH1 0x0 REVERT JUMPDEST PUSH1 0x20 MUL PUSH1 0x20 ADD ADD DUP2 SWAP1 MSTORE POP PUSH1 0x40 MLOAD DUP1 PUSH1 0x40 ADD PUSH1 0x40 MSTORE DUP1 PUSH32 0x2D76E53B85BA0E328CECCB949F657594CF7DCA06669D9C337BE0645A17CC37F3 DUP2 MSTORE PUSH1 0x20 ADD PUSH32 0x1DCFB6DBF63B33921FA410F73E8103BE05E1C1938084E6FF89E43E0FBD22F7BB DUP2 MSTORE POP DUP2 PUSH1 0x80 ADD MLOAD PUSH1 0xC DUP2 MLOAD DUP2 LT PUSH2 0x12D1 JUMPI PUSH32 0x4E487B7100000000000000000000000000000000000000000000000000000000 PUSH1 0x0 MSTORE PUSH1 0x32 PUSH1 0x4 MSTORE PUSH1 0x24 PUSH1 0x0 REVERT JUMPDEST PUSH1 0x20 MUL PUSH1 0x20 ADD ADD DUP2 SWAP1 MSTORE POP PUSH1 0x40 MLOAD DUP1 PUSH1 0x40 ADD PUSH1 0x40 MSTORE DUP1 PUSH32 0x1F5B408DE9D2AF603A4A6354FB761854CECC21C56F9B2E496FC006100463FE21 DUP2 MSTORE PUSH1 0x20 ADD PUSH32 0x2F86816883ECD88465ABD70139D548BA2D34080810A80185EE53D092B353638 DUP2 MSTORE POP DUP2 PUSH1 0x80 ADD MLOAD PUSH1 0xD DUP2 MLOAD DUP2 LT PUSH2 0x136F JUMPI PUSH32 0x4E487B7100000000000000000000000000000000000000000000000000000000 PUSH1 0x0 MSTORE PUSH1 0x32 PUSH1 0x4 MSTORE PUSH1 0x24 PUSH1 0x0 REVERT JUMPDEST PUSH1 0x20 MUL PUSH1 0x20 ADD ADD DUP2 SWAP1 MSTORE POP PUSH1 0x40 MLOAD DUP1 PUSH1 0x40 ADD PUSH1 0x40 MSTORE DUP1 PUSH32 0x2143EAA9F7823D7A82F246D1A6BB43BE437A374C31121C7A39BBF66512871607 DUP2 MSTORE PUSH1 0x20 ADD PUSH32 0x2521042BAC1AEBE442CF88BC8C023D2C701B223B971F953B90418A9D772F46E8 DUP2 MSTORE POP DUP2 PUSH1 0x80 ADD MLOAD PUSH1 0xE DUP2 MLOAD DUP2 LT PUSH2 0x140D JUMPI PUSH32 0x4E487B7100000000000000000000000000000000000000000000000000000000 PUSH1 0x0 MSTORE PUSH1 0x32 PUSH1 0x4 MSTORE PUSH1 0x24 PUSH1 0x0 REVERT JUMPDEST PUSH1 0x20 MUL PUSH1 0x20 ADD ADD DUP2 SWAP1 MSTORE POP PUSH1 0x40 MLOAD DUP1 PUSH1 0x40 ADD PUSH1 0x40 MSTORE DUP1 PUSH32 0x22A584FA75C9793D9713FFD130D962E4B27A35013751113AD8C7B27DCFB86D2D DUP2 MSTORE PUSH1 0x20 ADD PUSH32 0x9BF9922B3045386467E1E9466DD55A5B1D0ADA578B8363EB28489C6B7025F24 DUP2 MSTORE POP DUP2 PUSH1 0x80 ADD MLOAD PUSH1 0xF DUP2 MLOAD DUP2 LT PUSH2 0x14AB JUMPI PUSH32 0x4E487B7100000000000000000000000000000000000000000000000000000000 PUSH1 0x0 MSTORE PUSH1 0x32 PUSH1 0x4 MSTORE PUSH1 0x24 PUSH1 0x0 REVERT JUMPDEST PUSH1 0x20 MUL PUSH1 0x20 ADD ADD DUP2 SWAP1 MSTORE POP PUSH1 0x40 MLOAD DUP1 PUSH1 0x40 ADD PUSH1 0x40 MSTORE DUP1 PUSH32 0x13D2AA7943F908F21D7E3AF189455D1C5A9CBC0684958BE483DAF37E99B92311 DUP2 MSTORE PUSH1 0x20 ADD PUSH32 0x1FF5D37D4F31F3B0A5F3817C54DE43F61558D573977BCC35F87A5836A701AA6C DUP2 MSTORE POP DUP2 PUSH1 0x80 ADD MLOAD PUSH1 0x10 DUP2 MLOAD DUP2 LT PUSH2 0x1549 JUMPI PUSH32 0x4E487B7100000000000000000000000000000000000000000000000000000000 PUSH1 0x0 MSTORE PUSH1 0x32 PUSH1 0x4 MSTORE PUSH1 0x24 PUSH1 0x0 REVERT JUMPDEST PUSH1 0x20 MUL PUSH1 0x20 ADD ADD DUP2 SWAP1 MSTORE POP PUSH1 0x40 MLOAD DUP1 PUSH1 0x40 ADD PUSH1 0x40 MSTORE DUP1 PUSH32 0x1171C8DE8CA6A0266380748C0FB4A1B9BDD679DF995E960BF275F8C9DE12FCC3 DUP2 MSTORE PUSH1 0x20 ADD PUSH32 0x1FC676E336F81E4FB5C8A1FD75D35850281A0930B36E3FE79B29139D66BFD594 DUP2 MSTORE POP DUP2 PUSH1 0x80 ADD MLOAD PUSH1 0x11 DUP2 MLOAD DUP2 LT PUSH2 0x15E7 JUMPI PUSH32 0x4E487B7100000000000000000000000000000000000000000000000000000000 PUSH1 0x0 MSTORE PUSH1 0x32 PUSH1 0x4 MSTORE PUSH1 0x24 PUSH1 0x0 REVERT JUMPDEST PUSH1 0x20 MUL PUSH1 0x20 ADD ADD DUP2 SWAP1 MSTORE POP PUSH1 0x40 MLOAD DUP1 PUSH1 0x40 ADD PUSH1 0x40 MSTORE DUP1 PUSH32 0xD6E2AFA674077FB3B2558375C128D8076A0DC9458BC55D2D2D7C446A3AFE4CD DUP2 MSTORE PUSH1 0x20 ADD PUSH32 0x28AEEEA230C8BB3104394E906579994C5EDF82E84919C86E267BA7A477772391 DUP2 MSTORE POP DUP2 PUSH1 0x80 ADD MLOAD PUSH1 0x12 DUP2 MLOAD DUP2 LT PUSH2 0x1685 JUMPI PUSH32 0x4E487B7100000000000000000000000000000000000000000000000000000000 PUSH1 0x0 MSTORE PUSH1 0x32 PUSH1 0x4 MSTORE PUSH1 0x24 PUSH1 0x0 REVERT JUMPDEST PUSH1 0x20 MUL PUSH1 0x20 ADD ADD DUP2 SWAP1 MSTORE POP PUSH1 0x40 MLOAD DUP1 PUSH1 0x40 ADD PUSH1 0x40 MSTORE DUP1 PUSH32 0x100022D40483D31D6A34A4AE44513613E361210E0862A915A161159DC3089302 DUP2 MSTORE PUSH1 0x20 ADD PUSH32 0x2BD7B6CB51B40F19915141EFFF8DFCEC1D4B91F2ED793CD7F4CC8F87F0EE555 DUP2 MSTORE POP DUP2 PUSH1 0x80 ADD MLOAD PUSH1 0x13 DUP2 MLOAD DUP2 LT PUSH2 0x1723 JUMPI PUSH32 0x4E487B7100000000000000000000000000000000000000000000000000000000 PUSH1 0x0 MSTORE PUSH1 0x32 PUSH1 0x4 MSTORE PUSH1 0x24 PUSH1 0x0 REVERT JUMPDEST PUSH1 0x20 MUL PUSH1 0x20 ADD ADD DUP2 SWAP1 MSTORE POP PUSH1 0x40 MLOAD DUP1 PUSH1 0x40 ADD PUSH1 0x40 MSTORE DUP1 PUSH32 0x2E84A0C542AD98801EEC77E733FCF7FCB98DFF04315ED2675C0B15D983EB5463 DUP2 MSTORE PUSH1 0x20 ADD PUSH31 0xD2EA15F0FC2FDB5F755FA3CF4CA5D5E975932C3169950E094274979EFA608A DUP2 MSTORE POP DUP2 PUSH1 0x80 ADD MLOAD PUSH1 0x14 DUP2 MLOAD DUP2 LT PUSH2 0x17C0 JUMPI PUSH32 0x4E487B7100000000000000000000000000000000000000000000000000000000 PUSH1 0x0 MSTORE PUSH1 0x32 PUSH1 0x4 MSTORE PUSH1 0x24 PUSH1 0x0 REVERT JUMPDEST PUSH1 0x20 MUL PUSH1 0x20 ADD ADD DUP2 SWAP1 MSTORE POP PUSH1 0x40 MLOAD DUP1 PUSH1 0x40 ADD PUSH1 0x40 MSTORE DUP1 PUSH32 0x26689F5A417E0D8B598492E94BB46F22C9550B8494EB2D1FF6F632881603CCD3 DUP2 MSTORE PUSH1 0x20 ADD PUSH32 0x137EDDF34BF5DA42E5483C565194D5AB207C9B0C29D1AFE8F7DC67C57A63522E DUP2 MSTORE POP DUP2 PUSH1 0x80 ADD MLOAD PUSH1 0x15 DUP2 MLOAD DUP2 LT PUSH2 0x185E JUMPI PUSH32 0x4E487B7100000000000000000000000000000000000000000000000000000000 PUSH1 0x0 MSTORE PUSH1 0x32 PUSH1 0x4 MSTORE PUSH1 0x24 PUSH1 0x0 REVERT JUMPDEST PUSH1 0x20 MUL PUSH1 0x20 ADD ADD DUP2 SWAP1 MSTORE POP PUSH1 0x40 MLOAD DUP1 PUSH1 0x40 ADD PUSH1 0x40 MSTORE DUP1 PUSH32 0xD78696AB4CE2C0E83C04BC3DB32BB42B9FA75D3E7EAC11AE1DB113ECAE719F1 DUP2 MSTORE PUSH1 0x20 ADD PUSH32 0x12D1E956DAA7E71280C1D58FAAA334E96E8A502A4E5E455FFA30EDDA58868EA5 DUP2 MSTORE POP DUP2 PUSH1 0x80 ADD MLOAD PUSH1 0x16 DUP2 MLOAD DUP2 LT PUSH2 0x18FC JUMPI PUSH32 0x4E487B7100000000000000000000000000000000000000000000000000000000 PUSH1 0x0 MSTORE PUSH1 0x32 PUSH1 0x4 MSTORE PUSH1 0x24 PUSH1 0x0 REVERT JUMPDEST PUSH1 0x20 MUL PUSH1 0x20 ADD ADD DUP2 SWAP1 MSTORE POP PUSH1 0x40 MLOAD DUP1 PUSH1 0x40 ADD PUSH1 0x40 MSTORE DUP1 PUSH32 0x2061B2C0E4334E2044C73D96511F0C8E313358840DCCEFE339817FAA6A1288D7 DUP2 MSTORE PUSH1 0x20 ADD PUSH32 0x23BF096BAC8AA662364D718B4B3476579A786F4C8F2B2DCD268C3C82873AB675 DUP2 MSTORE POP DUP2 PUSH1 0x80 ADD MLOAD PUSH1 0x17 DUP2 MLOAD DUP2 LT PUSH2 0x199A JUMPI PUSH32 0x4E487B7100000000000000000000000000000000000000000000000000000000 PUSH1 0x0 MSTORE PUSH1 0x32 PUSH1 0x4 MSTORE PUSH1 0x24 PUSH1 0x0 REVERT JUMPDEST PUSH1 0x20 MUL PUSH1 0x20 ADD ADD DUP2 SWAP1 MSTORE POP PUSH1 0x40 MLOAD DUP1 PUSH1 0x40 ADD PUSH1 0x40 MSTORE DUP1 PUSH32 0x16B2CA3BC5FC62DC4B84E9E61C7818FDCE30A8C94519A1CE859B642100B9BD24 DUP2 MSTORE PUSH1 0x20 ADD PUSH32 0x10CEF99C15C177ED2AE65D83939A9CC9D2C3DC7AB061D87E3FA9AA2BE21193CB DUP2 MSTORE POP DUP2 PUSH1 0x80 ADD MLOAD PUSH1 0x18 DUP2 MLOAD DUP2 LT PUSH2 0x1A38 JUMPI PUSH32 0x4E487B7100000000000000000000000000000000000000000000000000000000 PUSH1 0x0 MSTORE PUSH1 0x32 PUSH1 0x4 MSTORE PUSH1 0x24 PUSH1 0x0 REVERT JUMPDEST PUSH1 0x20 MUL PUSH1 0x20 ADD ADD DUP2 SWAP1 MSTORE POP PUSH1 0x40 MLOAD DUP1 PUSH1 0x40 ADD PUSH1 0x40 MSTORE DUP1 PUSH32 0xE4A9EBE4C9F81CAE4202A82F6C8188FCD4EF806019A72DC5EDDBCA1566285A2 DUP2 MSTORE PUSH1 0x20 ADD PUSH32 0x1CE9E8201F29DD862C4B3D773419A4DEEADDCD0E40F0A87CC4BA3903CB5276BB DUP2 MSTORE POP DUP2 PUSH1 0x80 ADD MLOAD PUSH1 0x19 DUP2 MLOAD DUP2 LT PUSH2 0x1AD6 JUMPI PUSH32 0x4E487B7100000000000000000000000000000000000000000000000000000000 PUSH1 0x0 MSTORE PUSH1 0x32 PUSH1 0x4 MSTORE PUSH1 0x24 PUSH1 0x0 REVERT JUMPDEST PUSH1 0x20 MUL PUSH1 0x20 ADD ADD DUP2 SWAP1 MSTORE POP PUSH1 0x40 MLOAD DUP1 PUSH1 0x40 ADD PUSH1 0x40 MSTORE DUP1 PUSH32 0x134E76DFCF5E2A9A088F20552070268686ADDF94A388239D37B0925B78A9B838 DUP2 MSTORE PUSH1 0x20 ADD PUSH32 0x2B480CCE675C3BB4D8350FD6C2B013D24D0C1527E4C4A764CE1CA862C5D5D63 DUP2 MSTORE POP DUP2 PUSH1 0x80 ADD MLOAD PUSH1 0x1A DUP2 MLOAD DUP2 LT PUSH2 0x1B74 JUMPI PUSH32 0x4E487B7100000000000000000000000000000000000000000000000000000000 PUSH1 0x0 MSTORE PUSH1 0x32 PUSH1 0x4 MSTORE PUSH1 0x24 PUSH1 0x0 REVERT JUMPDEST PUSH1 0x20 MUL PUSH1 0x20 ADD ADD DUP2 SWAP1 MSTORE POP PUSH1 0x40 MLOAD DUP1 PUSH1 0x40 ADD PUSH1 0x40 MSTORE DUP1 PUSH32 0x23F2B27DE23FE472BB1479092ACCF5B1BF81D7E8F3AAB7B1720D37F8A3004FDF DUP2 MSTORE PUSH1 0x20 ADD PUSH32 0x2F3A6B5ABC5C259C024F2CB68D426E5AD755003CD9B48F7EB691421E98CD05AB DUP2 MSTORE POP DUP2 PUSH1 0x80 ADD MLOAD PUSH1 0x1B DUP2 MLOAD DUP2 LT PUSH2 0x1C12 JUMPI PUSH32 0x4E487B7100000000000000000000000000000000000000000000000000000000 PUSH1 0x0 MSTORE PUSH1 0x32 PUSH1 0x4 MSTORE PUSH1 0x24 PUSH1 0x0 REVERT JUMPDEST PUSH1 0x20 MUL PUSH1 0x20 ADD ADD DUP2 SWAP1 MSTORE POP PUSH1 0x40 MLOAD DUP1 PUSH1 0x40 ADD PUSH1 0x40 MSTORE DUP1 PUSH32 0x1E9F2A3552D57D5A5568B5D39596DE5E61B2B1DC351CC863B476203D68979FFF DUP2 MSTORE PUSH1 0x20 ADD PUSH32 0x5D1A46CF93BE588D47E1D96C48BFB392AAC0256818646983CDCDA7CBF4D71AD DUP2 MSTORE POP DUP2 PUSH1 0x80 ADD MLOAD PUSH1 0x1C DUP2 MLOAD DUP2 LT PUSH2 0x1CB0 JUMPI PUSH32 0x4E487B7100000000000000000000000000000000000000000000000000000000 PUSH1 0x0 MSTORE PUSH1 0x32 PUSH1 0x4 MSTORE PUSH1 0x24 PUSH1 0x0 REVERT JUMPDEST PUSH1 0x20 MUL PUSH1 0x20 ADD ADD DUP2 SWAP1 MSTORE POP PUSH1 0x40 MLOAD DUP1 PUSH1 0x40 ADD PUSH1 0x40 MSTORE DUP1 PUSH32 0x69A23335B643131BDA3FED8EB20DBA9FE48B1DB63EEB87F7F59DC78161B8A56 DUP2 MSTORE PUSH1 0x20 ADD PUSH32 0x164FE9F8EA35A6645563671B6942485102CA3B7D4F985F404DAFA74707191C49 DUP2 MSTORE POP DUP2 PUSH1 0x80 ADD MLOAD PUSH1 0x1D DUP2 MLOAD DUP2 LT PUSH2 0x1D4E JUMPI PUSH32 0x4E487B7100000000000000000000000000000000000000000000000000000000 PUSH1 0x0 MSTORE PUSH1 0x32 PUSH1 0x4 MSTORE PUSH1 0x24 PUSH1 0x0 REVERT JUMPDEST PUSH1 0x20 MUL PUSH1 0x20 ADD ADD DUP2 SWAP1 MSTORE POP PUSH1 0x40 MLOAD DUP1 PUSH1 0x40 ADD PUSH1 0x40 MSTORE DUP1 PUSH32 0x223ED3BDDC9C964876093488F24C81B1A2BEC07DBB9505FE595E6407AF01F95B DUP2 MSTORE PUSH1 0x20 ADD PUSH32 0xF75D5A2A141A758D4F7C757BE6F0A068E1FF547D74A6A551703E570C65B9A00 DUP2 MSTORE POP DUP2 PUSH1 0x80 ADD MLOAD PUSH1 0x1E DUP2 MLOAD DUP2 LT PUSH2 0x1DEC JUMPI PUSH32 0x4E487B7100000000000000000000000000000000000000000000000000000000 PUSH1 0x0 MSTORE PUSH1 0x32 PUSH1 0x4 MSTORE PUSH1 0x24 PUSH1 0x0 REVERT JUMPDEST PUSH1 0x20 MUL PUSH1 0x20 ADD ADD DUP2 SWAP1 MSTORE POP PUSH1 0x40 MLOAD DUP1 PUSH1 0x40 ADD PUSH1 0x40 MSTORE DUP1 PUSH32 0x2885C80B9C36A5E97FC4DC007F942D4073613C4427D2BA36608CE575788E1C91 DUP2 MSTORE PUSH1 0x20 ADD PUSH32 0x213B5BE1A2C321C63CD3245B53C297F07CC0385281879F10B49057F4C451B87A DUP2 MSTORE POP DUP2 PUSH1 0x80 ADD MLOAD PUSH1 0x1F DUP2 MLOAD DUP2 LT PUSH2 0x1E8A JUMPI PUSH32 0x4E487B7100000000000000000000000000000000000000000000000000000000 PUSH1 0x0 MSTORE PUSH1 0x32 PUSH1 0x4 MSTORE PUSH1 0x24 PUSH1 0x0 REVERT JUMPDEST PUSH1 0x20 MUL PUSH1 0x20 ADD ADD DUP2 SWAP1 MSTORE POP PUSH1 0x40 MLOAD DUP1 PUSH1 0x40 ADD PUSH1 0x40 MSTORE DUP1 PUSH32 0x3E6F3C950E2395D90710813C4B36A6535A30E06712C442C0B4CDAAFC894FC54 DUP2 MSTORE PUSH1 0x20 ADD PUSH32 0xA2B23093DE860A54B4543EE90B9F661A14195BF017AAC718941FAB3611738C2 DUP2 MSTORE POP DUP2 PUSH1 0x80 ADD MLOAD PUSH1 0x20 DUP2 MLOAD DUP2 LT PUSH2 0x1F28 JUMPI PUSH32 0x4E487B7100000000000000000000000000000000000000000000000000000000 PUSH1 0x0 MSTORE PUSH1 0x32 PUSH1 0x4 MSTORE PUSH1 0x24 PUSH1 0x0 REVERT JUMPDEST PUSH1 0x20 MUL PUSH1 0x20 ADD ADD DUP2 SWAP1 MSTORE POP PUSH1 0x40 MLOAD DUP1 PUSH1 0x40 ADD PUSH1 0x40 MSTORE DUP1 PUSH32 0x20037D38BD0D26D76514E76A0564287B20CE50543DE6935A6B87F9679C2E29CC DUP2 MSTORE PUSH1 0x20 ADD PUSH32 0x38DE38A1B7602C0DD645224DD27E9320A63556458F9A8248A81EBF059E6BBDE DUP2 MSTORE POP DUP2 PUSH1 0x80 ADD MLOAD PUSH1 0x21 DUP2 MLOAD DUP2 LT PUSH2 0x1FC6 JUMPI PUSH32 0x4E487B7100000000000000000000000000000000000000000000000000000000 PUSH1 0x0 MSTORE PUSH1 0x32 PUSH1 0x4 MSTORE PUSH1 0x24 PUSH1 0x0 REVERT JUMPDEST PUSH1 0x20 MUL PUSH1 0x20 ADD ADD DUP2 SWAP1 MSTORE POP PUSH1 0x40 MLOAD DUP1 PUSH1 0x40 ADD PUSH1 0x40 MSTORE DUP1 PUSH32 0x28150E2842DD17A9E0C3AB4B88C73F6730E68BB82AE5BE7068DF23AA54D0AF7C DUP2 MSTORE PUSH1 0x20 ADD PUSH32 0x2C08890979B69A1D777037DA7150DCA1757B95014979099B9970646A09831C83 DUP2 MSTORE POP DUP2 PUSH1 0x80 ADD MLOAD PUSH1 0x22 DUP2 MLOAD DUP2 LT PUSH2 0x2064 JUMPI PUSH32 0x4E487B7100000000000000000000000000000000000000000000000000000000 PUSH1 0x0 MSTORE PUSH1 0x32 PUSH1 0x4 MSTORE PUSH1 0x24 PUSH1 0x0 REVERT JUMPDEST PUSH1 0x20 MUL PUSH1 0x20 ADD ADD DUP2 SWAP1 MSTORE POP PUSH1 0x40 MLOAD DUP1 PUSH1 0x40 ADD PUSH1 0x40 MSTORE DUP1 PUSH32 0x168BE867A9A3FC48483985B576802071334453F25AC3955231E57295F5B98885 DUP2 MSTORE PUSH1 0x20 ADD PUSH32 0x14B5390F4301EC41D8999C5D731F8CC421AD64563BEDE9C8DA9471E42D65185A DUP2 MSTORE POP DUP2 PUSH1 0x80 ADD MLOAD PUSH1 0x23 DUP2 MLOAD DUP2 LT PUSH2 0x2102 JUMPI PUSH32 0x4E487B7100000000000000000000000000000000000000000000000000000000 PUSH1 0x0 MSTORE PUSH1 0x32 PUSH1 0x4 MSTORE PUSH1 0x24 PUSH1 0x0 REVERT JUMPDEST PUSH1 0x20 MUL PUSH1 0x20 ADD ADD DUP2 SWAP1 MSTORE POP PUSH1 0x40 MLOAD DUP1 PUSH1 0x40 ADD PUSH1 0x40 MSTORE DUP1 PUSH32 0x2056DC0958CB2D13F45F267534E925E41264A3824C2152EB58C2EEB2A473469E DUP2 MSTORE PUSH1 0x20 ADD PUSH32 0x21833900EDE9D4954078A9D750F8A1075F81DFBAE0582A009EA5440D2E1FF30E DUP2 MSTORE POP DUP2 PUSH1 0x80 ADD MLOAD PUSH1 0x24 DUP2 MLOAD DUP2 LT PUSH2 0x21A0 JUMPI PUSH32 0x4E487B7100000000000000000000000000000000000000000000000000000000 PUSH1 0x0 MSTORE PUSH1 0x32 PUSH1 0x4 MSTORE PUSH1 0x24 PUSH1 0x0 REVERT JUMPDEST PUSH1 0x20 MUL PUSH1 0x20 ADD ADD DUP2 SWAP1 MSTORE POP PUSH1 0x40 MLOAD DUP1 PUSH1 0x40 ADD PUSH1 0x40 MSTORE DUP1 PUSH31 0x9A5405A2CF12729D1558B1082C8935E97340AB82CF2CF4980D601985FE91C DUP2 MSTORE PUSH1 0x20 ADD PUSH32 0x1D647AE71EB8163F110F001939B65307161CF075E7852E8794A9A0A6DA8A5DA2 DUP2 MSTORE POP DUP2 PUSH1 0x80 ADD MLOAD PUSH1 0x25 DUP2 MLOAD DUP2 LT PUSH2 0x223D JUMPI PUSH32 0x4E487B7100000000000000000000000000000000000000000000000000000000 PUSH1 0x0 MSTORE PUSH1 0x32 PUSH1 0x4 MSTORE PUSH1 0x24 PUSH1 0x0 REVERT JUMPDEST PUSH1 0x20 MUL PUSH1 0x20 ADD ADD DUP2 SWAP1 MSTORE POP PUSH1 0x40 MLOAD DUP1 PUSH1 0x40 ADD PUSH1 0x40 MSTORE DUP1 PUSH32 0x25C317A0F03425AB1F1F0E2EA5832083143A5A40568E421E46FCD6DE9CD4D06A DUP2 MSTORE PUSH1 0x20 ADD PUSH32 0x1C777ECBF0CF713ECB6B36E208A47C0915E98B552C6B48E01F8F8AED9AB29308 DUP2 MSTORE POP DUP2 PUSH1 0x80 ADD MLOAD PUSH1 0x26 DUP2 MLOAD DUP2 LT PUSH2 0x22DB JUMPI PUSH32 0x4E487B7100000000000000000000000000000000000000000000000000000000 PUSH1 0x0 MSTORE PUSH1 0x32 PUSH1 0x4 MSTORE PUSH1 0x24 PUSH1 0x0 REVERT JUMPDEST PUSH1 0x20 MUL PUSH1 0x20 ADD ADD DUP2 SWAP1 MSTORE POP PUSH1 0x40 MLOAD DUP1 PUSH1 0x40 ADD PUSH1 0x40 MSTORE DUP1 PUSH32 0x2DBE9CA88898EAAD2889EDF875297633E65C510A24B1F6C4B032A0DA5C951385 DUP2 MSTORE PUSH1 0x20 ADD PUSH32 0x155483C93E8A0165E71BD0C260EA7E298D4796B548392F7022CDF168B7E52FAC DUP2 MSTORE POP DUP2 PUSH1 0x80 ADD MLOAD PUSH1 0x27 DUP2 MLOAD DUP2 LT PUSH2 0x2379 JUMPI PUSH32 0x4E487B7100000000000000000000000000000000000000000000000000000000 PUSH1 0x0 MSTORE PUSH1 0x32 PUSH1 0x4 MSTORE PUSH1 0x24 PUSH1 0x0 REVERT JUMPDEST PUSH1 0x20 MUL PUSH1 0x20 ADD ADD DUP2 SWAP1 MSTORE POP PUSH1 0x40 MLOAD DUP1 PUSH1 0x40 ADD PUSH1 0x40 MSTORE DUP1 PUSH32 0x129F0FF79977F94B064F338827BB399B529E75ED7994CE11489F6133A2108471 DUP2 MSTORE PUSH1 0x20 ADD PUSH32 0x25E46B2B18B59118E3DFD90B9F29B1E39DFB9CC5A04D2CAF96178E5E573FB65 DUP2 MSTORE POP DUP2 PUSH1 0x80 ADD MLOAD PUSH1 0x28 DUP2 MLOAD DUP2 LT PUSH2 0x2417 JUMPI PUSH32 0x4E487B7100000000000000000000000000000000000000000000000000000000 PUSH1 0x0 MSTORE PUSH1 0x32 PUSH1 0x4 MSTORE PUSH1 0x24 PUSH1 0x0 REVERT JUMPDEST PUSH1 0x20 MUL PUSH1 0x20 ADD ADD DUP2 SWAP1 MSTORE POP PUSH1 0x40 MLOAD DUP1 PUSH1 0x40 ADD PUSH1 0x40 MSTORE DUP1 PUSH32 0x2FBF05E03F7A711F38072DF42E44EFDB96FCAD3FCAB16601253E930ECCA23EF1 DUP2 MSTORE PUSH1 0x20 ADD PUSH32 0x25203B33F142F4C49CEC661315552CD67AC42DA5115691C76437A6D9F2155C35 DUP2 MSTORE POP DUP2 PUSH1 0x80 ADD MLOAD PUSH1 0x29 DUP2 MLOAD DUP2 LT PUSH2 0x24B5 JUMPI PUSH32 0x4E487B7100000000000000000000000000000000000000000000000000000000 PUSH1 0x0 MSTORE PUSH1 0x32 PUSH1 0x4 MSTORE PUSH1 0x24 PUSH1 0x0 REVERT JUMPDEST PUSH1 0x20 MUL PUSH1 0x20 ADD ADD DUP2 SWAP1 MSTORE POP PUSH1 0x40 MLOAD DUP1 PUSH1 0x40 ADD PUSH1 0x40 MSTORE DUP1 PUSH32 0x20F81E468E4A84D12C4B612F5D96EFF9E817881131D0BEB06AC536B13689F429 DUP2 MSTORE PUSH1 0x20 ADD PUSH32 0x21CF4A68B378AC3AF736FE56B30B4996E7D766663419297C1BC5E5604CC6FAEA DUP2 MSTORE POP DUP2 PUSH1 0x80 ADD MLOAD PUSH1 0x2A DUP2 MLOAD DUP2 LT PUSH2 0x2553 JUMPI PUSH32 0x4E487B7100000000000000000000000000000000000000000000000000000000 PUSH1 0x0 MSTORE PUSH1 0x32 PUSH1 0x4 MSTORE PUSH1 0x24 PUSH1 0x0 REVERT JUMPDEST PUSH1 0x20 MUL PUSH1 0x20 ADD ADD DUP2 SWAP1 MSTORE POP PUSH1 0x40 MLOAD DUP1 PUSH1 0x40 ADD PUSH1 0x40 MSTORE DUP1 PUSH32 0x95C05A804F4C9D68654E31DEAB6FF11F6A94105B9150EC0E30A96A4B8792A07 DUP2 MSTORE PUSH1 0x20 ADD PUSH32 0x1DECE945B270A6A57C35444DB708710A68DF24B3C296DCB0CD85E000D1C47D6A DUP2 MSTORE POP DUP2 PUSH1 0x80 ADD MLOAD PUSH1 0x2B DUP2 MLOAD DUP2 LT PUSH2 0x25F1 JUMPI PUSH32 0x4E487B7100000000000000000000000000000000000000000000000000000000 PUSH1 0x0 MSTORE PUSH1 0x32 PUSH1 0x4 MSTORE PUSH1 0x24 PUSH1 0x0 REVERT JUMPDEST PUSH1 0x20 MUL PUSH1 0x20 ADD ADD DUP2 SWAP1 MSTORE POP PUSH1 0x40 MLOAD DUP1 PUSH1 0x40 ADD PUSH1 0x40 MSTORE DUP1 PUSH32 0x2186F6DF764CD6397E38932BCC5BF1276B14BEDE303073E8DD3FDC13CB247B4D DUP2 MSTORE PUSH1 0x20 ADD PUSH32 0x1965B60459C26048A209EFECCA5A1404B04D5F30D425815B3FC67583A2BC3612 DUP2 MSTORE POP DUP2 PUSH1 0x80 ADD MLOAD PUSH1 0x2C DUP2 MLOAD DUP2 LT PUSH2 0x268F JUMPI PUSH32 0x4E487B7100000000000000000000000000000000000000000000000000000000 PUSH1 0x0 MSTORE PUSH1 0x32 PUSH1 0x4 MSTORE PUSH1 0x24 PUSH1 0x0 REVERT JUMPDEST PUSH1 0x20 MUL PUSH1 0x20 ADD ADD DUP2 SWAP1 MSTORE POP PUSH1 0x40 MLOAD DUP1 PUSH1 0x40 ADD PUSH1 0x40 MSTORE DUP1 PUSH32 0xA447B040A3DC6BE32D08C6C8C6DE350DCDA39834799FB3EEF52CE1733351B91 DUP2 MSTORE PUSH1 0x20 ADD PUSH32 0x2E7FAA62B9A86F0021883C7BFB07EF9C8BAF7C33FEB03AE46066A443FEBCF8AA DUP2 MSTORE POP DUP2 PUSH1 0x80 ADD MLOAD PUSH1 0x2D DUP2 MLOAD DUP2 LT PUSH2 0x272D JUMPI PUSH32 0x4E487B7100000000000000000000000000000000000000000000000000000000 PUSH1 0x0 MSTORE PUSH1 0x32 PUSH1 0x4 MSTORE PUSH1 0x24 PUSH1 0x0 REVERT JUMPDEST PUSH1 0x20 MUL PUSH1 0x20 ADD ADD DUP2 SWAP1 MSTORE POP PUSH1 0x40 MLOAD DUP1 PUSH1 0x40 ADD PUSH1 0x40 MSTORE DUP1 PUSH32 0xB588990B4CC0DD587DCA13B2258B9731C19D60ED8D42556CAC702F9838DC48A DUP2 MSTORE PUSH1 0x20 ADD PUSH32 0xE30DE37B599343C2FCCF35CED8C105C9C7D0C42BF71FAC68F9C94113D428485 DUP2 MSTORE POP DUP2 PUSH1 0x80 ADD MLOAD PUSH1 0x2E DUP2 MLOAD DUP2 LT PUSH2 0x27CB JUMPI PUSH32 0x4E487B7100000000000000000000000000000000000000000000000000000000 PUSH1 0x0 MSTORE PUSH1 0x32 PUSH1 0x4 MSTORE PUSH1 0x24 PUSH1 0x0 REVERT JUMPDEST PUSH1 0x20 MUL PUSH1 0x20 ADD ADD DUP2 SWAP1 MSTORE POP PUSH1 0x40 MLOAD DUP1 PUSH1 0x40 ADD PUSH1 0x40 MSTORE DUP1 PUSH32 0x25A2AE564D55E15657DA7A6AFE3FED7659D6A1EA260A0E06701646F3714DF8C6 DUP2 MSTORE PUSH1 0x20 ADD PUSH32 0xA80BB02E9C81D0F2C3C3FDF65A0BBFFF9506C9BD98B2B0B56766790363824D0 DUP2 MSTORE POP DUP2 PUSH1 0x80 ADD MLOAD PUSH1 0x2F DUP2 MLOAD DUP2 LT PUSH2 0x2869 JUMPI PUSH32 0x4E487B7100000000000000000000000000000000000000000000000000000000 PUSH1 0x0 MSTORE PUSH1 0x32 PUSH1 0x4 MSTORE PUSH1 0x24 PUSH1 0x0 REVERT JUMPDEST PUSH1 0x20 MUL PUSH1 0x20 ADD ADD DUP2 SWAP1 MSTORE POP PUSH1 0x40 MLOAD DUP1 PUSH1 0x40 ADD PUSH1 0x40 MSTORE DUP1 PUSH32 0x157EDAEBAEDB7FB80C24C77B09F2F9D21824C499D450CD790212DCBD20CB19BA DUP2 MSTORE PUSH1 0x20 ADD PUSH32 0x2573AA1BF4A3AD0B5DB2643C5A336C180294CF45173C54EB866E96320E076C8D DUP2 MSTORE POP DUP2 PUSH1 0x80 ADD MLOAD PUSH1 0x30 DUP2 MLOAD DUP2 LT PUSH2 0x2907 JUMPI PUSH32 0x4E487B7100000000000000000000000000000000000000000000000000000000 PUSH1 0x0 MSTORE PUSH1 0x32 PUSH1 0x4 MSTORE PUSH1 0x24 PUSH1 0x0 REVERT JUMPDEST PUSH1 0x20 MUL PUSH1 0x20 ADD ADD DUP2 SWAP1 MSTORE POP PUSH1 0x40 MLOAD DUP1 PUSH1 0x40 ADD PUSH1 0x40 MSTORE DUP1 PUSH32 0xDC200D7889EF7668D0D78769F1CA1E0D9B16F2AFC031EB22674635FF1BB4ACB DUP2 MSTORE PUSH1 0x20 ADD PUSH32 0x18E06BAE3C0AF6D0A1642A8DB6CDC04969211CD707CDE63FDDB6084F5B77F6B3 DUP2 MSTORE POP DUP2 PUSH1 0x80 ADD MLOAD PUSH1 0x31 DUP2 MLOAD DUP2 LT PUSH2 0x29A5 JUMPI PUSH32 0x4E487B7100000000000000000000000000000000000000000000000000000000 PUSH1 0x0 MSTORE PUSH1 0x32 PUSH1 0x4 MSTORE PUSH1 0x24 PUSH1 0x0 REVERT JUMPDEST PUSH1 0x20 MUL PUSH1 0x20 ADD ADD DUP2 SWAP1 MSTORE POP PUSH1 0x40 MLOAD DUP1 PUSH1 0x40 ADD PUSH1 0x40 MSTORE DUP1 PUSH32 0x24AA3BA0370275105BF3261EDF63B348A9C086E6406AE235A01B1D5F5EA86A34 DUP2 MSTORE PUSH1 0x20 ADD PUSH32 0x123E736A38532C84FD46438A4DAAE54CF384C87C2A7448FAFAF888630B59401C DUP2 MSTORE POP DUP2 PUSH1 0x80 ADD MLOAD PUSH1 0x32 DUP2 MLOAD DUP2 LT PUSH2 0x2A43 JUMPI PUSH32 0x4E487B7100000000000000000000000000000000000000000000000000000000 PUSH1 0x0 MSTORE PUSH1 0x32 PUSH1 0x4 MSTORE PUSH1 0x24 PUSH1 0x0 REVERT JUMPDEST PUSH1 0x20 MUL PUSH1 0x20 ADD ADD DUP2 SWAP1 MSTORE POP PUSH1 0x40 MLOAD DUP1 PUSH1 0x40 ADD PUSH1 0x40 MSTORE DUP1 PUSH32 0x80A3007B9AF317B89FFF488A3A3CEF6EF16C2D67023F704905951E946FCC9A3 DUP2 MSTORE PUSH1 0x20 ADD PUSH32 0x520AFB5E90EE53C569F0FD7ED63946C3CE2514EC35E8796A3F896378339383F DUP2 MSTORE POP DUP2 PUSH1 0x80 ADD MLOAD PUSH1 0x33 DUP2 MLOAD DUP2 LT PUSH2 0x2AE1 JUMPI PUSH32 0x4E487B7100000000000000000000000000000000000000000000000000000000 PUSH1 0x0 MSTORE PUSH1 0x32 PUSH1 0x4 MSTORE PUSH1 0x24 PUSH1 0x0 REVERT JUMPDEST PUSH1 0x20 MUL PUSH1 0x20 ADD ADD DUP2 SWAP1 MSTORE POP PUSH1 0x40 MLOAD DUP1 PUSH1 0x40 ADD PUSH1 0x40 MSTORE DUP1 PUSH32 0x2A14272594F8F54348712330A23196194B64350A3AF47594A688B29034FDEF7B DUP2 MSTORE PUSH1 0x20 ADD PUSH32 0x2324D633D76E736C6B1C148DF9E62BABB73C74B8BCC6CE9B9CDF808E7DF0B615 DUP2 MSTORE POP DUP2 PUSH1 0x80 ADD MLOAD PUSH1 0x34 DUP2 MLOAD DUP2 LT PUSH2 0x2B7F JUMPI PUSH32 0x4E487B7100000000000000000000000000000000000000000000000000000000 PUSH1 0x0 MSTORE PUSH1 0x32 PUSH1 0x4 MSTORE PUSH1 0x24 PUSH1 0x0 REVERT JUMPDEST PUSH1 0x20 MUL PUSH1 0x20 ADD ADD DUP2 SWAP1 MSTORE POP PUSH1 0x40 MLOAD DUP1 PUSH1 0x40 ADD PUSH1 0x40 MSTORE DUP1 PUSH32 0x17E72CA527CAB08B689BC1136DB470B54FF143CD3A5DE28BA726871F15750BEF DUP2 MSTORE PUSH1 0x20 ADD PUSH32 0x7AFCE5923876850AF7F7316EBAAD412FC9FE878F7E5B6EC84530BD3BB30380F DUP2 MSTORE POP DUP2 PUSH1 0x80 ADD MLOAD PUSH1 0x35 DUP2 MLOAD DUP2 LT PUSH2 0x2C1D JUMPI PUSH32 0x4E487B7100000000000000000000000000000000000000000000000000000000 PUSH1 0x0 MSTORE PUSH1 0x32 PUSH1 0x4 MSTORE PUSH1 0x24 PUSH1 0x0 REVERT JUMPDEST PUSH1 0x20 MUL PUSH1 0x20 ADD ADD DUP2 SWAP1 MSTORE POP PUSH1 0x40 MLOAD DUP1 PUSH1 0x40 ADD PUSH1 0x40 MSTORE DUP1 PUSH32 0x1AB4BE8E823DFF613814606DEA29B8594A6213B8C87C1E5EC95CD9D8C871125E DUP2 MSTORE PUSH1 0x20 ADD PUSH32 0x2B740654C51521BB8FAEB3745B28A524DFDBB3CC3CE9250F8D802C27F4079211 DUP2 MSTORE POP DUP2 PUSH1 0x80 ADD MLOAD PUSH1 0x36 DUP2 MLOAD DUP2 LT PUSH2 0x2CBB JUMPI PUSH32 0x4E487B7100000000000000000000000000000000000000000000000000000000 PUSH1 0x0 MSTORE PUSH1 0x32 PUSH1 0x4 MSTORE PUSH1 0x24 PUSH1 0x0 REVERT JUMPDEST PUSH1 0x20 MUL PUSH1 0x20 ADD ADD DUP2 SWAP1 MSTORE POP PUSH1 0x40 MLOAD DUP1 PUSH1 0x40 ADD PUSH1 0x40 MSTORE DUP1 PUSH32 0x491EE1A4D9280E93B25E450C4A34BA85764AFBE552B581EFB427C210BF65E89 DUP2 MSTORE PUSH1 0x20 ADD PUSH32 0x84A7A59B297324C3E225639D0569CDE0F4E3F73AEE463179E4261A3475261BD DUP2 MSTORE POP DUP2 PUSH1 0x80 ADD MLOAD PUSH1 0x37 DUP2 MLOAD DUP2 LT PUSH2 0x2D59 JUMPI PUSH32 0x4E487B7100000000000000000000000000000000000000000000000000000000 PUSH1 0x0 MSTORE PUSH1 0x32 PUSH1 0x4 MSTORE PUSH1 0x24 PUSH1 0x0 REVERT JUMPDEST PUSH1 0x20 MUL PUSH1 0x20 ADD ADD DUP2 SWAP1 MSTORE POP PUSH1 0x40 MLOAD DUP1 PUSH1 0x40 ADD PUSH1 0x40 MSTORE DUP1 PUSH32 0x2D158C060537018039A7F322BE07BF60D05BCCE10E11CE3E290257A7759EEB33 DUP2 MSTORE PUSH1 0x20 ADD PUSH32 0x1F81DF9EA1EA71527A5FE8A127327613A5882461949EEFAA8E60A2F63B06FD4D DUP2 MSTORE POP DUP2 PUSH1 0x80 ADD MLOAD PUSH1 0x38 DUP2 MLOAD DUP2 LT PUSH2 0x2DF7 JUMPI PUSH32 0x4E487B7100000000000000000000000000000000000000000000000000000000 PUSH1 0x0 MSTORE PUSH1 0x32 PUSH1 0x4 MSTORE PUSH1 0x24 PUSH1 0x0 REVERT JUMPDEST PUSH1 0x20 MUL PUSH1 0x20 ADD ADD DUP2 SWAP1 MSTORE POP PUSH1 0x40 MLOAD DUP1 PUSH1 0x40 ADD PUSH1 0x40 MSTORE DUP1 PUSH32 0x88E143679B45DB54437A22C79E591A9F863F047E8450A7D54FDAFDAF6E11B15 DUP2 MSTORE PUSH1 0x20 ADD PUSH32 0xE6B9872724759D3D97D99B83E923132DD2B1E35B34F0A256A82C1241E217D6C DUP2 MSTORE POP DUP2 PUSH1 0x80 ADD MLOAD PUSH1 0x39 DUP2 MLOAD DUP2 LT PUSH2 0x2E95 JUMPI PUSH32 0x4E487B7100000000000000000000000000000000000000000000000000000000 PUSH1 0x0 MSTORE PUSH1 0x32 PUSH1 0x4 MSTORE PUSH1 0x24 PUSH1 0x0 REVERT JUMPDEST PUSH1 0x20 MUL PUSH1 0x20 ADD ADD DUP2 SWAP1 MSTORE POP PUSH1 0x40 MLOAD DUP1 PUSH1 0x40 ADD PUSH1 0x40 MSTORE DUP1 PUSH32 0x1A222B587AEE248D5BCAC72594ACF4C361EB9E15161737FC25E4BF7CCD5DD91A DUP2 MSTORE PUSH1 0x20 ADD PUSH32 0x2E8F9EF18E1F2D70313E987739493C27ED3139CA14AF3A2ABBA55F6CE5010F3C DUP2 MSTORE POP DUP2 PUSH1 0x80 ADD MLOAD PUSH1 0x3A DUP2 MLOAD DUP2 LT PUSH2 0x2F33 JUMPI PUSH32 0x4E487B7100000000000000000000000000000000000000000000000000000000 PUSH1 0x0 MSTORE PUSH1 0x32 PUSH1 0x4 MSTORE PUSH1 0x24 PUSH1 0x0 REVERT JUMPDEST PUSH1 0x20 MUL PUSH1 0x20 ADD ADD DUP2 SWAP1 MSTORE POP PUSH1 0x40 MLOAD DUP1 PUSH1 0x40 ADD PUSH1 0x40 MSTORE DUP1 PUSH32 0x2AB898ED251131EE539679597DEC5E328A6597D75222084DE485DB0613498C51 DUP2 MSTORE PUSH1 0x20 ADD PUSH32 0x2D78E473E892ABE8226439110A0D0C14D6325B4D553BA8660A0A791A9B22B387 DUP2 MSTORE POP DUP2 PUSH1 0x80 ADD MLOAD PUSH1 0x3B DUP2 MLOAD DUP2 LT PUSH2 0x2FD1 JUMPI PUSH32 0x4E487B7100000000000000000000000000000000000000000000000000000000 PUSH1 0x0 MSTORE PUSH1 0x32 PUSH1 0x4 MSTORE PUSH1 0x24 PUSH1 0x0 REVERT JUMPDEST PUSH1 0x20 MUL PUSH1 0x20 ADD ADD DUP2 SWAP1 MSTORE POP PUSH1 0x40 MLOAD DUP1 PUSH1 0x40 ADD PUSH1 0x40 MSTORE DUP1 PUSH32 0x16528BE4782DDEF2CAA67F01AFD514D72C239F22ACAB6FEFB02172CB1E18CDD9 DUP2 MSTORE PUSH1 0x20 ADD PUSH31 0x35281393E049AA3EEF211BF042E229EE586DD432643E1D5072BD4A4E0887B8 DUP2 MSTORE POP DUP2 PUSH1 0x80 ADD MLOAD PUSH1 0x3C DUP2 MLOAD DUP2 LT PUSH2 0x306E JUMPI PUSH32 0x4E487B7100000000000000000000000000000000000000000000000000000000 PUSH1 0x0 MSTORE PUSH1 0x32 PUSH1 0x4 MSTORE PUSH1 0x24 PUSH1 0x0 REVERT JUMPDEST PUSH1 0x20 MUL PUSH1 0x20 ADD ADD DUP2 SWAP1 MSTORE POP PUSH1 0x40 MLOAD DUP1 PUSH1 0x40 ADD PUSH1 0x40 MSTORE DUP1 PUSH32 0x1D4338696AD7E732C5205C93D5896F794B0909588319914AE0DD9E78622A9AA3 DUP2 MSTORE PUSH1 0x20 ADD PUSH32 0x34C082448B2A0010928E69FE31D8064298834E1264607F3068660AE4731EFC2 DUP2 MSTORE POP DUP2 PUSH1 0x80 ADD MLOAD PUSH1 0x3D DUP2 MLOAD DUP2 LT PUSH2 0x310C JUMPI PUSH32 0x4E487B7100000000000000000000000000000000000000000000000000000000 PUSH1 0x0 MSTORE PUSH1 0x32 PUSH1 0x4 MSTORE PUSH1 0x24 PUSH1 0x0 REVERT JUMPDEST PUSH1 0x20 MUL PUSH1 0x20 ADD ADD DUP2 SWAP1 MSTORE POP PUSH1 0x40 MLOAD DUP1 PUSH1 0x40 ADD PUSH1 0x40 MSTORE DUP1 PUSH32 0x2113E011908C5B043A343DF00E47AB58C64B3AE53A6C2E55B2BAC4BFFAE32B08 DUP2 MSTORE PUSH1 0x20 ADD PUSH32 0x21F9696E2FB66B4CD50893BE00330B56687BA527226E906B1A4BB97F6261FE78 DUP2 MSTORE POP DUP2 PUSH1 0x80 ADD MLOAD PUSH1 0x3E DUP2 MLOAD DUP2 LT PUSH2 0x31AA JUMPI PUSH32 0x4E487B7100000000000000000000000000000000000000000000000000000000 PUSH1 0x0 MSTORE PUSH1 0x32 PUSH1 0x4 MSTORE PUSH1 0x24 PUSH1 0x0 REVERT JUMPDEST PUSH1 0x20 MUL PUSH1 0x20 ADD ADD DUP2 SWAP1 MSTORE POP PUSH1 0x40 MLOAD DUP1 PUSH1 0x40 ADD PUSH1 0x40 MSTORE DUP1 PUSH32 0xD5ED762711E6546F0D1326556504CB6533871D4F0D25645D6DA8E8ED7361C62 DUP2 MSTORE PUSH1 0x20 ADD PUSH32 0x29F9E8822CDF8B8C527DB3346F0DBF5365B024C0A3C5C65149D6E6305F91B550 DUP2 MSTORE POP DUP2 PUSH1 0x80 ADD MLOAD PUSH1 0x3F DUP2 MLOAD DUP2 LT PUSH2 0x3248 JUMPI PUSH32 0x4E487B7100000000000000000000000000000000000000000000000000000000 PUSH1 0x0 MSTORE PUSH1 0x32 PUSH1 0x4 MSTORE PUSH1 0x24 PUSH1 0x0 REVERT JUMPDEST PUSH1 0x20 MUL PUSH1 0x20 ADD ADD DUP2 SWAP1 MSTORE POP PUSH1 0x40 MLOAD DUP1 PUSH1 0x40 ADD PUSH1 0x40 MSTORE DUP1 PUSH32 0xE53649FD1047F50F3CAEABCA07C1377908BA5B32353517174DCA0683FFBB288 DUP2 MSTORE PUSH1 0x20 ADD PUSH32 0x1B8CC14E911280A6EE992E917C9CCB9DD93CAA8B859756D8B06E45A92A71165C DUP2 MSTORE POP DUP2 PUSH1 0x80 ADD MLOAD PUSH1 0x40 DUP2 MLOAD DUP2 LT PUSH2 0x32E6 JUMPI PUSH32 0x4E487B7100000000000000000000000000000000000000000000000000000000 PUSH1 0x0 MSTORE PUSH1 0x32 PUSH1 0x4 MSTORE PUSH1 0x24 PUSH1 0x0 REVERT JUMPDEST PUSH1 0x20 MUL PUSH1 0x20 ADD ADD DUP2 SWAP1 MSTORE POP PUSH1 0x40 MLOAD DUP1 PUSH1 0x40 ADD PUSH1 0x40 MSTORE DUP1 PUSH32 0x2246D08F8D7032C85A318B1A3A3DEDE719D6C4CB816651BED96BBAE66E9EC706 DUP2 MSTORE PUSH1 0x20 ADD PUSH32 0x305411FDEBBA10F788775F7AD9011A1DA66B18A44C1E6B247BBAAF20F49E6BAE DUP2 MSTORE POP DUP2 PUSH1 0x80 ADD MLOAD PUSH1 0x41 DUP2 MLOAD DUP2 LT PUSH2 0x3384 JUMPI PUSH32 0x4E487B7100000000000000000000000000000000000000000000000000000000 PUSH1 0x0 MSTORE PUSH1 0x32 PUSH1 0x4 MSTORE PUSH1 0x24 PUSH1 0x0 REVERT JUMPDEST PUSH1 0x20 MUL PUSH1 0x20 ADD ADD DUP2 SWAP1 MSTORE POP PUSH1 0x40 MLOAD DUP1 PUSH1 0x40 ADD PUSH1 0x40 MSTORE DUP1 PUSH32 0x28E640966B3F043E4DD75EBCF1EDE7EF14686D96B34501A3CC7293D8D3B7E40 DUP2 MSTORE PUSH1 0x20 ADD PUSH32 0x17D9E9E3547D516D5ED92B45AD7A8012537A32112B25E023C4A0AAA86EF92842 DUP2 MSTORE POP DUP2 PUSH1 0x80 ADD MLOAD PUSH1 0x42 DUP2 MLOAD DUP2 LT PUSH2 0x3422 JUMPI PUSH32 0x4E487B7100000000000000000000000000000000000000000000000000000000 PUSH1 0x0 MSTORE PUSH1 0x32 PUSH1 0x4 MSTORE PUSH1 0x24 PUSH1 0x0 REVERT JUMPDEST PUSH1 0x20 MUL PUSH1 0x20 ADD ADD DUP2 SWAP1 MSTORE POP PUSH1 0x40 MLOAD DUP1 PUSH1 0x40 ADD PUSH1 0x40 MSTORE DUP1 PUSH32 0x1C3F51D4084E0986E3D11BD446CC103F1F8C15EA3B0F8F7B624D8D0E381F2566 DUP2 MSTORE PUSH1 0x20 ADD PUSH32 0x24E4B94A2FAA6A5CD5784DD00A726D487C201B1A1B46EA0F6ADC6B0AFF23AAD9 DUP2 MSTORE POP DUP2 PUSH1 0x80 ADD MLOAD PUSH1 0x43 DUP2 MLOAD DUP2 LT PUSH2 0x34C0 JUMPI PUSH32 0x4E487B7100000000000000000000000000000000000000000000000000000000 PUSH1 0x0 MSTORE PUSH1 0x32 PUSH1 0x4 MSTORE PUSH1 0x24 PUSH1 0x0 REVERT JUMPDEST PUSH1 0x20 MUL PUSH1 0x20 ADD ADD DUP2 SWAP1 MSTORE POP PUSH1 0x40 MLOAD DUP1 PUSH1 0x40 ADD PUSH1 0x40 MSTORE DUP1 PUSH32 0x318EBD38BDF8E7147461846FC66B22A7C32B1284ED55A86A9C9F6F4E897A3AD DUP2 MSTORE PUSH1 0x20 ADD PUSH32 0x2523390A75F5F69A9C24127AD2EF9FAAD4DBA65CA2FCD1528E437BC2C06061AB DUP2 MSTORE POP DUP2 PUSH1 0x80 ADD MLOAD PUSH1 0x44 DUP2 MLOAD DUP2 LT PUSH2 0x355E JUMPI PUSH32 0x4E487B7100000000000000000000000000000000000000000000000000000000 PUSH1 0x0 MSTORE PUSH1 0x32 PUSH1 0x4 MSTORE PUSH1 0x24 PUSH1 0x0 REVERT JUMPDEST PUSH1 0x20 MUL PUSH1 0x20 ADD ADD DUP2 SWAP1 MSTORE POP PUSH1 0x40 MLOAD DUP1 PUSH1 0x40 ADD PUSH1 0x40 MSTORE DUP1 PUSH32 0x29D42C8783B3891CC60B9388837090CD1A16D47DBCBFF1C3FB1FA37BBF3B3CB0 DUP2 MSTORE PUSH1 0x20 ADD PUSH32 0xEE0126EE1773C3F2CF8F254983EC8ED938294A251B4B19C7D754ED3EC074A4C DUP2 MSTORE POP DUP2 PUSH1 0x80 ADD MLOAD PUSH1 0x45 DUP2 MLOAD DUP2 LT PUSH2 0x35FC JUMPI PUSH32 0x4E487B7100000000000000000000000000000000000000000000000000000000 PUSH1 0x0 MSTORE PUSH1 0x32 PUSH1 0x4 MSTORE PUSH1 0x24 PUSH1 0x0 REVERT JUMPDEST PUSH1 0x20 MUL PUSH1 0x20 ADD ADD DUP2 SWAP1 MSTORE POP PUSH1 0x40 MLOAD DUP1 PUSH1 0x40 ADD PUSH1 0x40 MSTORE DUP1 PUSH32 0x15114E9FBD4872596DDD96CC3A99F9FEF3B46473C21E079E8CCF37A38357CF11 DUP2 MSTORE PUSH1 0x20 ADD PUSH32 0x4237469A5657EDBE704F5F2D992B1BFD3F3C0A5942766416632B9C771F68DAB DUP2 MSTORE POP DUP2 PUSH1 0x80 ADD MLOAD PUSH1 0x46 DUP2 MLOAD DUP2 LT PUSH2 0x369A JUMPI PUSH32 0x4E487B7100000000000000000000000000000000000000000000000000000000 PUSH1 0x0 MSTORE PUSH1 0x32 PUSH1 0x4 MSTORE PUSH1 0x24 PUSH1 0x0 REVERT JUMPDEST PUSH1 0x20 MUL PUSH1 0x20 ADD ADD DUP2 SWAP1 MSTORE POP PUSH1 0x40 MLOAD DUP1 PUSH1 0x40 ADD PUSH1 0x40 MSTORE DUP1 PUSH32 0x2FD87762C626C6F4CF152F0AA07339BA6F5B1570F830C1DBF355D1EC922F80C5 DUP2 MSTORE PUSH1 0x20 ADD PUSH32 0x216562DB7B1716C54CFF25FC0309CA1A8D480168E71A9346F0DCDD0D18601607 DUP2 MSTORE POP DUP2 PUSH1 0x80 ADD MLOAD PUSH1 0x47 DUP2 MLOAD DUP2 LT PUSH2 0x3738 JUMPI PUSH32 0x4E487B7100000000000000000000000000000000000000000000000000000000 PUSH1 0x0 MSTORE PUSH1 0x32 PUSH1 0x4 MSTORE PUSH1 0x24 PUSH1 0x0 REVERT JUMPDEST PUSH1 0x20 MUL PUSH1 0x20 ADD ADD DUP2 SWAP1 MSTORE POP PUSH1 0x40 MLOAD DUP1 PUSH1 0x40 ADD PUSH1 0x40 MSTORE DUP1 PUSH32 0x151F3E00C3301C0AEAA603F10FCEDCD4C436E86533A18BCAEFEABACDF3F63657 DUP2 MSTORE PUSH1 0x20 ADD PUSH32 0x57B646BCC1A80904878E33ADFCDCACD795F95CE00AC036CACC7EB2729D2B7CF DUP2 MSTORE POP DUP2 PUSH1 0x80 ADD MLOAD PUSH1 0x48 DUP2 MLOAD DUP2 LT PUSH2 0x37D6 JUMPI PUSH32 0x4E487B7100000000000000000000000000000000000000000000000000000000 PUSH1 0x0 MSTORE PUSH1 0x32 PUSH1 0x4 MSTORE PUSH1 0x24 PUSH1 0x0 REVERT JUMPDEST PUSH1 0x20 MUL PUSH1 0x20 ADD ADD DUP2 SWAP1 MSTORE POP PUSH1 0x40 MLOAD DUP1 PUSH1 0x40 ADD PUSH1 0x40 MSTORE DUP1 PUSH32 0x1E97947C4CEFF7D1121DE817DBAF38751359CE29D39F603CEC8F1D2B33352AB8 DUP2 MSTORE PUSH1 0x20 ADD PUSH32 0x39417E10DD19AF88E776FC413915D59496012769C9AC1450C2507089C4E9DD9 DUP2 MSTORE POP DUP2 PUSH1 0x80 ADD MLOAD PUSH1 0x49 DUP2 MLOAD DUP2 LT PUSH2 0x3874 JUMPI PUSH32 0x4E487B7100000000000000000000000000000000000000000000000000000000 PUSH1 0x0 MSTORE PUSH1 0x32 PUSH1 0x4 MSTORE PUSH1 0x24 PUSH1 0x0 REVERT JUMPDEST PUSH1 0x20 MUL PUSH1 0x20 ADD ADD DUP2 SWAP1 MSTORE POP PUSH1 0x40 MLOAD DUP1 PUSH1 0x40 ADD PUSH1 0x40 MSTORE DUP1 PUSH32 0x20C97849F24E390D3CDE6A4B8E75D1CECF47FBF08D85D43DD7005D21480367CA DUP2 MSTORE PUSH1 0x20 ADD PUSH32 0x29702A226BE2A77B6CD5BECCF4F499B6D68FE3915DC6B346BA89F93F58BD2B3 DUP2 MSTORE POP DUP2 PUSH1 0x80 ADD MLOAD PUSH1 0x4A DUP2 MLOAD DUP2 LT PUSH2 0x3912 JUMPI PUSH32 0x4E487B7100000000000000000000000000000000000000000000000000000000 PUSH1 0x0 MSTORE PUSH1 0x32 PUSH1 0x4 MSTORE PUSH1 0x24 PUSH1 0x0 REVERT JUMPDEST PUSH1 0x20 MUL PUSH1 0x20 ADD ADD DUP2 SWAP1 MSTORE POP PUSH1 0x40 MLOAD DUP1 PUSH1 0x40 ADD PUSH1 0x40 MSTORE DUP1 PUSH32 0x27D36B0F40EF2ACFA5061F4D2A4A51E6B8B3E58018AD3B89C4F48E495D396B3 DUP2 MSTORE PUSH1 0x20 ADD PUSH32 0x11999A2078DCC2835F2A8C7BBFC19C57239351AD5F2FA57FA5F8DA94E8C55EB4 DUP2 MSTORE POP DUP2 PUSH1 0x80 ADD MLOAD PUSH1 0x4B DUP2 MLOAD DUP2 LT PUSH2 0x39B0 JUMPI PUSH32 0x4E487B7100000000000000000000000000000000000000000000000000000000 PUSH1 0x0 MSTORE PUSH1 0x32 PUSH1 0x4 MSTORE PUSH1 0x24 PUSH1 0x0 REVERT JUMPDEST PUSH1 0x20 MUL PUSH1 0x20 ADD ADD DUP2 SWAP1 MSTORE POP PUSH1 0x40 MLOAD DUP1 PUSH1 0x40 ADD PUSH1 0x40 MSTORE DUP1 PUSH32 0x295D6E21E84ACC99E078CB8DC48D809E08047FDB9306EC15447142E4A6DA009A DUP2 MSTORE PUSH1 0x20 ADD PUSH32 0x1BFA6FF8EF804ACB6F3CED122E530FFB93B3ED0E2F2E79240B1440505C734EA4 DUP2 MSTORE POP DUP2 PUSH1 0x80 ADD MLOAD PUSH1 0x4C DUP2 MLOAD DUP2 LT PUSH2 0x3A4E JUMPI PUSH32 0x4E487B7100000000000000000000000000000000000000000000000000000000 PUSH1 0x0 MSTORE PUSH1 0x32 PUSH1 0x4 MSTORE PUSH1 0x24 PUSH1 0x0 REVERT JUMPDEST PUSH1 0x20 MUL PUSH1 0x20 ADD ADD DUP2 SWAP1 MSTORE POP PUSH1 0x40 MLOAD DUP1 PUSH1 0x40 ADD PUSH1 0x40 MSTORE DUP1 PUSH32 0x221B6650471EFE73F800479E7D5EF58B6D976CE72B3666792298D0B79F4852A DUP2 MSTORE PUSH1 0x20 ADD PUSH32 0x27B48B31371CF0920ECD1C2ABC8C38C40E1030375297652F1A8A24F400194189 DUP2 MSTORE POP DUP2 PUSH1 0x80 ADD MLOAD PUSH1 0x4D DUP2 MLOAD DUP2 LT PUSH2 0x3AEC JUMPI PUSH32 0x4E487B7100000000000000000000000000000000000000000000000000000000 PUSH1 0x0 MSTORE PUSH1 0x32 PUSH1 0x4 MSTORE PUSH1 0x24 PUSH1 0x0 REVERT JUMPDEST PUSH1 0x20 MUL PUSH1 0x20 ADD ADD DUP2 SWAP1 MSTORE POP PUSH1 0x40 MLOAD DUP1 PUSH1 0x40 ADD PUSH1 0x40 MSTORE DUP1 PUSH31 0xE46DBF6D71A2171DF9BEBADA84C8239CE96D5250FA177941BBDBEE5BAFC284 DUP2 MSTORE PUSH1 0x20 ADD PUSH32 0x21D157A5C3C1BDE7C38A33E53CE2637C515E3E6E2354896C7A7B25E5DB6077F1 DUP2 MSTORE POP DUP2 PUSH1 0x80 ADD MLOAD PUSH1 0x4E DUP2 MLOAD DUP2 LT PUSH2 0x3B89 JUMPI PUSH32 0x4E487B7100000000000000000000000000000000000000000000000000000000 PUSH1 0x0 MSTORE PUSH1 0x32 PUSH1 0x4 MSTORE PUSH1 0x24 PUSH1 0x0 REVERT JUMPDEST PUSH1 0x20 MUL PUSH1 0x20 ADD ADD DUP2 SWAP1 MSTORE POP PUSH1 0x40 MLOAD DUP1 PUSH1 0x40 ADD PUSH1 0x40 MSTORE DUP1 PUSH32 0x1DEC0D85EB9159106DA37698A3BE812CB5A90A1A1B4231E64FC0A0D4EA87E35C DUP2 MSTORE PUSH1 0x20 ADD PUSH32 0x13D524D446E57C8CC859B9851179DD23C16A2D543AA83325F42F467DBBD7257F DUP2 MSTORE POP DUP2 PUSH1 0x80 ADD MLOAD PUSH1 0x4F DUP2 MLOAD DUP2 LT PUSH2 0x3C27 JUMPI PUSH32 0x4E487B7100000000000000000000000000000000000000000000000000000000 PUSH1 0x0 MSTORE PUSH1 0x32 PUSH1 0x4 MSTORE PUSH1 0x24 PUSH1 0x0 REVERT JUMPDEST PUSH1 0x20 MUL PUSH1 0x20 ADD ADD DUP2 SWAP1 MSTORE POP PUSH1 0x40 MLOAD DUP1 PUSH1 0x40 ADD PUSH1 0x40 MSTORE DUP1 PUSH32 0x2A594AAC9D63ADBE7408DB9A58C91F20E8C72F88440D9C672362F38B0DC65662 DUP2 MSTORE PUSH1 0x20 ADD PUSH32 0x27709366E71EBB61EF78D552B760063E89DDE9E00914E13B76F324D7C14DC74 DUP2 MSTORE POP DUP2 PUSH1 0x80 ADD MLOAD PUSH1 0x50 DUP2 MLOAD DUP2 LT PUSH2 0x3CC5 JUMPI PUSH32 0x4E487B7100000000000000000000000000000000000000000000000000000000 PUSH1 0x0 MSTORE PUSH1 0x32 PUSH1 0x4 MSTORE PUSH1 0x24 PUSH1 0x0 REVERT JUMPDEST PUSH1 0x20 MUL PUSH1 0x20 ADD ADD DUP2 SWAP1 MSTORE POP PUSH1 0x40 MLOAD DUP1 PUSH1 0x40 ADD PUSH1 0x40 MSTORE DUP1 PUSH32 0x206F2D07C8E39FA4C8006C8CCA145E6B5AE906BE63EDB1B8F1EF6882C291FD84 DUP2 MSTORE PUSH1 0x20 ADD PUSH32 0x2A91EE6372D224F0A441026595B55B177749037DA3B2E30DFFE55B6718CC2BEC DUP2 MSTORE POP DUP2 PUSH1 0x80 ADD MLOAD PUSH1 0x51 DUP2 MLOAD DUP2 LT PUSH2 0x3D63 JUMPI PUSH32 0x4E487B7100000000000000000000000000000000000000000000000000000000 PUSH1 0x0 MSTORE PUSH1 0x32 PUSH1 0x4 MSTORE PUSH1 0x24 PUSH1 0x0 REVERT JUMPDEST PUSH1 0x20 MUL PUSH1 0x20 ADD ADD DUP2 SWAP1 MSTORE POP PUSH1 0x40 MLOAD DUP1 PUSH1 0x40 ADD PUSH1 0x40 MSTORE DUP1 PUSH32 0x1F9F8C303D61B0D36FAE5CF5E7CC4CE16571DFE1D5A8587355D68A317EFBFE9E DUP2 MSTORE PUSH1 0x20 ADD PUSH32 0x2EBB01D91AB9ED2104297EDFF1A2F0BF647E017C1B72B0AB1DB4DB1D0430D220 DUP2 MSTORE POP DUP2 PUSH1 0x80 ADD MLOAD PUSH1 0x52 DUP2 MLOAD DUP2 LT PUSH2 0x3E01 JUMPI PUSH32 0x4E487B7100000000000000000000000000000000000000000000000000000000 PUSH1 0x0 MSTORE PUSH1 0x32 PUSH1 0x4 MSTORE PUSH1 0x24 PUSH1 0x0 REVERT JUMPDEST PUSH1 0x20 MUL PUSH1 0x20 ADD ADD DUP2 SWAP1 MSTORE POP PUSH1 0x40 MLOAD DUP1 PUSH1 0x40 ADD PUSH1 0x40 MSTORE DUP1 PUSH32 0x2C9FE4766CD0552E3283B935605D8835520B262B9B19C1E2107A4745152936DB DUP2 MSTORE PUSH1 0x20 ADD PUSH32 0x2AF7908997B91AFF66A29D00B3E1E91686FB925804692E4CA99A0781EB945B18 DUP2 MSTORE POP DUP2 PUSH1 0x80 ADD MLOAD PUSH1 0x53 DUP2 MLOAD DUP2 LT PUSH2 0x3E9F JUMPI PUSH32 0x4E487B7100000000000000000000000000000000000000000000000000000000 PUSH1 0x0 MSTORE PUSH1 0x32 PUSH1 0x4 MSTORE PUSH1 0x24 PUSH1 0x0 REVERT JUMPDEST PUSH1 0x20 MUL PUSH1 0x20 ADD ADD DUP2 SWAP1 MSTORE POP PUSH1 0x40 MLOAD DUP1 PUSH1 0x40 ADD PUSH1 0x40 MSTORE DUP1 PUSH32 0x294E07D402984E773F25F66727CD05DF24F992E9DCAFB421340343D42D7515CC DUP2 MSTORE PUSH1 0x20 ADD PUSH32 0x28CC20292CB4E875D474CA8A940B0040335F773E9D1DCF0A30B897604BC56156 DUP2 MSTORE POP DUP2 PUSH1 0x80 ADD MLOAD PUSH1 0x54 DUP2 MLOAD DUP2 LT PUSH2 0x3F3D JUMPI PUSH32 0x4E487B7100000000000000000000000000000000000000000000000000000000 PUSH1 0x0 MSTORE PUSH1 0x32 PUSH1 0x4 MSTORE PUSH1 0x24 PUSH1 0x0 REVERT JUMPDEST PUSH1 0x20 MUL PUSH1 0x20 ADD ADD DUP2 SWAP1 MSTORE POP PUSH1 0x40 MLOAD DUP1 PUSH1 0x40 ADD PUSH1 0x40 MSTORE DUP1 PUSH32 0x13F5BB7498DD0BCF617231D7F71BAB2C4E799DEA6703694B4793829A2F51E9D7 DUP2 MSTORE PUSH1 0x20 ADD PUSH32 0x3163CC05165D4FB93464B2A80F76347EC2F384305B9CE91687522835D86F804 DUP2 MSTORE POP DUP2 PUSH1 0x80 ADD MLOAD PUSH1 0x55 DUP2 MLOAD DUP2 LT PUSH2 0x3FDB JUMPI PUSH32 0x4E487B7100000000000000000000000000000000000000000000000000000000 PUSH1 0x0 MSTORE PUSH1 0x32 PUSH1 0x4 MSTORE PUSH1 0x24 PUSH1 0x0 REVERT JUMPDEST PUSH1 0x20 MUL PUSH1 0x20 ADD ADD DUP2 SWAP1 MSTORE POP PUSH1 0x40 MLOAD DUP1 PUSH1 0x40 ADD PUSH1 0x40 MSTORE DUP1 PUSH32 0xFA3B1D0E44622188EE81434B8EF53E7A22E2E08A5181B1D0CA2FA6338E289C6 DUP2 MSTORE PUSH1 0x20 ADD PUSH32 0x3B53207B90F9BD529F6C278366F576811F8A41B1F9FE030EC3341AC0052D58D DUP2 MSTORE POP DUP2 PUSH1 0x80 ADD MLOAD PUSH1 0x56 DUP2 MLOAD DUP2 LT PUSH2 0x4079 JUMPI PUSH32 0x4E487B7100000000000000000000000000000000000000000000000000000000 PUSH1 0x0 MSTORE PUSH1 0x32 PUSH1 0x4 MSTORE PUSH1 0x24 PUSH1 0x0 REVERT JUMPDEST PUSH1 0x20 MUL PUSH1 0x20 ADD ADD DUP2 SWAP1 MSTORE POP PUSH1 0x40 MLOAD DUP1 PUSH1 0x40 ADD PUSH1 0x40 MSTORE DUP1 PUSH32 0x1888FAF3DEDCD2B953473AED6290A7A95892C704CB886DB676B3F9EEFB0AAF77 DUP2 MSTORE PUSH1 0x20 ADD PUSH32 0x2C87A332293B04818F1373C6275331543B5F38ADBE274859114A7C04F8D6A6CC DUP2 MSTORE POP DUP2 PUSH1 0x80 ADD MLOAD PUSH1 0x57 DUP2 MLOAD DUP2 LT PUSH2 0x4117 JUMPI PUSH32 0x4E487B7100000000000000000000000000000000000000000000000000000000 PUSH1 0x0 MSTORE PUSH1 0x32 PUSH1 0x4 MSTORE PUSH1 0x24 PUSH1 0x0 REVERT JUMPDEST PUSH1 0x20 MUL PUSH1 0x20 ADD ADD DUP2 SWAP1 MSTORE POP PUSH1 0x40 MLOAD DUP1 PUSH1 0x40 ADD PUSH1 0x40 MSTORE DUP1 PUSH32 0x231D4DA933BE6C41D1E2FA85D51FFAC56F08AD9735AFCDC4DB8F96C535F294DD DUP2 MSTORE PUSH1 0x20 ADD PUSH32 0x1766C82A59E782687AC788841043DD2C391FB10B44541CD4DBA30A6B931B29A DUP2 MSTORE POP DUP2 PUSH1 0x80 ADD MLOAD PUSH1 0x58 DUP2 MLOAD DUP2 LT PUSH2 0x41B5 JUMPI PUSH32 0x4E487B7100000000000000000000000000000000000000000000000000000000 PUSH1 0x0 MSTORE PUSH1 0x32 PUSH1 0x4 MSTORE PUSH1 0x24 PUSH1 0x0 REVERT JUMPDEST PUSH1 0x20 MUL PUSH1 0x20 ADD ADD DUP2 SWAP1 MSTORE POP PUSH1 0x40 MLOAD DUP1 PUSH1 0x40 ADD PUSH1 0x40 MSTORE DUP1 PUSH32 0x9B2409E0B20822941AF67CD430EED2B29804F0AA45C314D2C85A4BE99A364EB DUP2 MSTORE PUSH1 0x20 ADD PUSH32 0x270DE143830058864FB0D5CAB0A8E05D4AAA945ABE905EF286C63142B1A232A5 DUP2 MSTORE POP DUP2 PUSH1 0x80 ADD MLOAD PUSH1 0x59 DUP2 MLOAD DUP2 LT PUSH2 0x4253 JUMPI PUSH32 0x4E487B7100000000000000000000000000000000000000000000000000000000 PUSH1 0x0 MSTORE PUSH1 0x32 PUSH1 0x4 MSTORE PUSH1 0x24 PUSH1 0x0 REVERT JUMPDEST PUSH1 0x20 MUL PUSH1 0x20 ADD ADD DUP2 SWAP1 MSTORE POP PUSH1 0x40 MLOAD DUP1 PUSH1 0x40 ADD PUSH1 0x40 MSTORE DUP1 PUSH32 0x104DEAD0FC29D76CD6DE1A5A549277068270CB4015298D921661F8199200A8AE DUP2 MSTORE PUSH1 0x20 ADD PUSH32 0xAA649111C5F6F7C159AC0A274287BB11752C10F747C8E45FCC27349201E2402 DUP2 MSTORE POP DUP2 PUSH1 0x80 ADD MLOAD PUSH1 0x5A DUP2 MLOAD DUP2 LT PUSH2 0x42F1 JUMPI PUSH32 0x4E487B7100000000000000000000000000000000000000000000000000000000 PUSH1 0x0 MSTORE PUSH1 0x32 PUSH1 0x4 MSTORE PUSH1 0x24 PUSH1 0x0 REVERT JUMPDEST PUSH1 0x20 MUL PUSH1 0x20 ADD ADD DUP2 SWAP1 MSTORE POP PUSH1 0x40 MLOAD DUP1 PUSH1 0x40 ADD PUSH1 0x40 MSTORE DUP1 PUSH32 0x205BFC79CB4E8E493B52456959BB8181646DE258CF9A90191C773EC905F83C37 DUP2 MSTORE PUSH1 0x20 ADD PUSH32 0x133FFAA19820CCE646D13F261AF765113AB6FCA3237FDE1B13AB08298D367ECE DUP2 MSTORE POP DUP2 PUSH1 0x80 ADD MLOAD PUSH1 0x5B DUP2 MLOAD DUP2 LT PUSH2 0x438F JUMPI PUSH32 0x4E487B7100000000000000000000000000000000000000000000000000000000 PUSH1 0x0 MSTORE PUSH1 0x32 PUSH1 0x4 MSTORE PUSH1 0x24 PUSH1 0x0 REVERT JUMPDEST PUSH1 0x20 MUL PUSH1 0x20 ADD ADD DUP2 SWAP1 MSTORE POP PUSH1 0x40 MLOAD DUP1 PUSH1 0x40 ADD PUSH1 0x40 MSTORE DUP1 PUSH32 0x1DE6E818307095B3516B5AC1D3B0A8CA6971FC923ACB14D9D5BDFDCCD5105847 DUP2 MSTORE PUSH1 0x20 ADD PUSH32 0x212A82D277F41ACF1770544C9BB21D8DAF43B5AA61E6560F718EB6D066A13278 DUP2 MSTORE POP DUP2 PUSH1 0x80 ADD MLOAD PUSH1 0x5C DUP2 MLOAD DUP2 LT PUSH2 0x442D JUMPI PUSH32 0x4E487B7100000000000000000000000000000000000000000000000000000000 PUSH1 0x0 MSTORE PUSH1 0x32 PUSH1 0x4 MSTORE PUSH1 0x24 PUSH1 0x0 REVERT JUMPDEST PUSH1 0x20 MUL PUSH1 0x20 ADD ADD DUP2 SWAP1 MSTORE POP PUSH1 0x40 MLOAD DUP1 PUSH1 0x40 ADD PUSH1 0x40 MSTORE DUP1 PUSH32 0x1758C329B8C8F285CD143A7F742AB5F72681A30AF9638B484D0B609FA16DBA33 DUP2 MSTORE PUSH1 0x20 ADD PUSH32 0x2A3F507A43AA1007C95E90710396958E2B683971301D40C94DACD57DEBA287C9 DUP2 MSTORE POP DUP2 PUSH1 0x80 ADD MLOAD PUSH1 0x5D DUP2 MLOAD DUP2 LT PUSH2 0x44CB JUMPI PUSH32 0x4E487B7100000000000000000000000000000000000000000000000000000000 PUSH1 0x0 MSTORE PUSH1 0x32 PUSH1 0x4 MSTORE PUSH1 0x24 PUSH1 0x0 REVERT JUMPDEST PUSH1 0x20 MUL PUSH1 0x20 ADD ADD DUP2 SWAP1 MSTORE POP PUSH1 0x40 MLOAD DUP1 PUSH1 0x40 ADD PUSH1 0x40 MSTORE DUP1 PUSH32 0x159E23CB930EFF47E82D165BB1FBD30833A0EA2C31A08CD8A0ECDCFE37363D9 DUP2 MSTORE PUSH1 0x20 ADD PUSH32 0x4A09552ACF80AD6F65EB6DBB35131D548A8427E9C9A6D94CB8C8F2F6E7DBE8D DUP2 MSTORE POP DUP2 PUSH1 0x80 ADD MLOAD PUSH1 0x5E DUP2 MLOAD DUP2 LT PUSH2 0x4569 JUMPI PUSH32 0x4E487B7100000000000000000000000000000000000000000000000000000000 PUSH1 0x0 MSTORE PUSH1 0x32 PUSH1 0x4 MSTORE PUSH1 0x24 PUSH1 0x0 REVERT JUMPDEST PUSH1 0x20 MUL PUSH1 0x20 ADD ADD DUP2 SWAP1 MSTORE POP PUSH1 0x40 MLOAD DUP1 PUSH1 0x40 ADD PUSH1 0x40 MSTORE DUP1 PUSH32 0x2DD012369CC7CD964B075B486432B3EDBA2E5D6CFAB5A3899C8EF3544F98CFE1 DUP2 MSTORE PUSH1 0x20 ADD PUSH32 0x165DF1D4D0A1C866FE74FDC13A64E93AC95A1B81628A12C122E84D402300E42D DUP2 MSTORE POP DUP2 PUSH1 0x80 ADD MLOAD PUSH1 0x5F DUP2 MLOAD DUP2 LT PUSH2 0x4607 JUMPI PUSH32 0x4E487B7100000000000000000000000000000000000000000000000000000000 PUSH1 0x0 MSTORE PUSH1 0x32 PUSH1 0x4 MSTORE PUSH1 0x24 PUSH1 0x0 REVERT JUMPDEST PUSH1 0x20 MUL PUSH1 0x20 ADD ADD DUP2 SWAP1 MSTORE POP PUSH1 0x40 MLOAD DUP1 PUSH1 0x40 ADD PUSH1 0x40 MSTORE DUP1 PUSH32 0x17920821ABFB661D6E3A48ACEBBCC939AAD2FA80F042F5119AD61688BF3E3E79 DUP2 MSTORE PUSH1 0x20 ADD PUSH32 0x3F9ABB38381D7767FEDD26556F1634DA1E31B87B02750D6D46BCD4E899170D7 DUP2 MSTORE POP DUP2 PUSH1 0x80 ADD MLOAD PUSH1 0x60 DUP2 MLOAD DUP2 LT PUSH2 0x46A5 JUMPI PUSH32 0x4E487B7100000000000000000000000000000000000000000000000000000000 PUSH1 0x0 MSTORE PUSH1 0x32 PUSH1 0x4 MSTORE PUSH1 0x24 PUSH1 0x0 REVERT JUMPDEST PUSH1 0x20 MUL PUSH1 0x20 ADD ADD DUP2 SWAP1 MSTORE POP PUSH1 0x40 MLOAD DUP1 PUSH1 0x40 ADD PUSH1 0x40 MSTORE DUP1 PUSH32 0x9646BB2E0DD61491076EA5C3906E30367919331DAD02C34A2E26214476A157A DUP2 MSTORE PUSH1 0x20 ADD PUSH32 0x9AC01C381EBE64361C521F7E6E6F0A89C62C4B7B2353898CA411CB9516959A2 DUP2 MSTORE POP DUP2 PUSH1 0x80 ADD MLOAD PUSH1 0x61 DUP2 MLOAD DUP2 LT PUSH2 0x4743 JUMPI PUSH32 0x4E487B7100000000000000000000000000000000000000000000000000000000 PUSH1 0x0 MSTORE PUSH1 0x32 PUSH1 0x4 MSTORE PUSH1 0x24 PUSH1 0x0 REVERT JUMPDEST PUSH1 0x20 MUL PUSH1 0x20 ADD ADD DUP2 SWAP1 MSTORE POP PUSH1 0x40 MLOAD DUP1 PUSH1 0x40 ADD PUSH1 0x40 MSTORE DUP1 PUSH32 0x13B5953B4CA80E7B6CA88F7328ADE0820CB68950ECF60FE66CD98D49D3E6FDA1 DUP2 MSTORE PUSH1 0x20 ADD PUSH32 0x2CB4E95B9C90F81EAB0E734A0000A07D02DC9932CC69E5C5442CC7586F785919 DUP2 MSTORE POP DUP2 PUSH1 0x80 ADD MLOAD PUSH1 0x62 DUP2 MLOAD DUP2 LT PUSH2 0x47E1 JUMPI PUSH32 0x4E487B7100000000000000000000000000000000000000000000000000000000 PUSH1 0x0 MSTORE PUSH1 0x32 PUSH1 0x4 MSTORE PUSH1 0x24 PUSH1 0x0 REVERT JUMPDEST PUSH1 0x20 MUL PUSH1 0x20 ADD ADD DUP2 SWAP1 MSTORE POP PUSH1 0x40 MLOAD DUP1 PUSH1 0x40 ADD PUSH1 0x40 MSTORE DUP1 PUSH32 0x2805AA50F2BC5C3FEB8C0CEAC9193E886909B0509B73CB2850165AA8FC835E80 DUP2 MSTORE PUSH1 0x20 ADD PUSH32 0x10137839FEA352DB616D993D980E6E0E1D7F85877CF81359FBA75C149B26F12F DUP2 MSTORE POP DUP2 PUSH1 0x80 ADD MLOAD PUSH1 0x63 DUP2 MLOAD DUP2 LT PUSH2 0x487F JUMPI PUSH32 0x4E487B7100000000000000000000000000000000000000000000000000000000 PUSH1 0x0 MSTORE PUSH1 0x32 PUSH1 0x4 MSTORE PUSH1 0x24 PUSH1 0x0 REVERT JUMPDEST PUSH1 0x20 MUL PUSH1 0x20 ADD ADD DUP2 SWAP1 MSTORE POP PUSH1 0x40 MLOAD DUP1 PUSH1 0x40 ADD PUSH1 0x40 MSTORE DUP1 PUSH32 0x2E39297B06BE560E820979F6BF3E357DF6521FCB8F6D181BB62D485FA0010DAA DUP2 MSTORE PUSH1 0x20 ADD PUSH32 0x2B50EBB4469A1B52E7D16282A84287291E880C35DA7DA0140A83AA1C9E981412 DUP2 MSTORE POP DUP2 PUSH1 0x80 ADD MLOAD PUSH1 0x64 DUP2 MLOAD DUP2 LT PUSH2 0x491D JUMPI PUSH32 0x4E487B7100000000000000000000000000000000000000000000000000000000 PUSH1 0x0 MSTORE PUSH1 0x32 PUSH1 0x4 MSTORE PUSH1 0x24 PUSH1 0x0 REVERT JUMPDEST PUSH1 0x20 MUL PUSH1 0x20 ADD ADD DUP2 SWAP1 MSTORE POP PUSH1 0x40 MLOAD DUP1 PUSH1 0x40 ADD PUSH1 0x40 MSTORE DUP1 PUSH32 0x52B05E56D12C7EB8DB385F222F92B9D9CEA5F119F6DD4AA6AAC81E9D1116C1C DUP2 MSTORE PUSH1 0x20 ADD PUSH32 0x13F74C389CB66728D2D9AE6C4D5448FF143603100742F9F7BEA56562F0511A0C DUP2 MSTORE POP DUP2 PUSH1 0x80 ADD MLOAD PUSH1 0x65 DUP2 MLOAD DUP2 LT PUSH2 0x49BB JUMPI PUSH32 0x4E487B7100000000000000000000000000000000000000000000000000000000 PUSH1 0x0 MSTORE PUSH1 0x32 PUSH1 0x4 MSTORE PUSH1 0x24 PUSH1 0x0 REVERT JUMPDEST PUSH1 0x20 MUL PUSH1 0x20 ADD ADD DUP2 SWAP1 MSTORE POP PUSH1 0x40 MLOAD DUP1 PUSH1 0x40 ADD PUSH1 0x40 MSTORE DUP1 PUSH32 0x38DD8610D26EAC884A83D3EEDBD611BC010D9918E5F18325FA8D3B6E3777498 DUP2 MSTORE PUSH1 0x20 ADD PUSH32 0x17AC4CB2CC32ECB587A319AC1B263D799BE4209436AD14773A422685F11A2844 DUP2 MSTORE POP DUP2 PUSH1 0x80 ADD MLOAD PUSH1 0x66 DUP2 MLOAD DUP2 LT PUSH2 0x4A59 JUMPI PUSH32 0x4E487B7100000000000000000000000000000000000000000000000000000000 PUSH1 0x0 MSTORE PUSH1 0x32 PUSH1 0x4 MSTORE PUSH1 0x24 PUSH1 0x0 REVERT JUMPDEST PUSH1 0x20 MUL PUSH1 0x20 ADD ADD DUP2 SWAP1 MSTORE POP SWAP1 JUMP JUMPDEST PUSH2 0x4A6F PUSH2 0x582C JUMP JUMPDEST PUSH2 0x4A77 PUSH2 0x5846 JUMP JUMPDEST DUP4 PUSH1 0x0 ADD MLOAD DUP2 PUSH1 0x0 PUSH1 0x3 DUP2 LT PUSH2 0x4AB6 JUMPI PUSH32 0x4E487B7100000000000000000000000000000000000000000000000000000000 PUSH1 0x0 MSTORE PUSH1 0x32 PUSH1 0x4 MSTORE PUSH1 0x24 PUSH1 0x0 REVERT JUMPDEST PUSH1 0x20 MUL ADD DUP2 DUP2 MSTORE POP POP DUP4 PUSH1 0x20 ADD MLOAD DUP2 PUSH1 0x1 PUSH1 0x3 DUP2 LT PUSH2 0x4AFE JUMPI PUSH32 0x4E487B7100000000000000000000000000000000000000000000000000000000 PUSH1 0x0 MSTORE PUSH1 0x32 PUSH1 0x4 MSTORE PUSH1 0x24 PUSH1 0x0 REVERT JUMPDEST PUSH1 0x20 MUL ADD DUP2 DUP2 MSTORE POP POP DUP3 DUP2 PUSH1 0x2 PUSH1 0x3 DUP2 LT PUSH2 0x4B42 JUMPI PUSH32 0x4E487B7100000000000000000000000000000000000000000000000000000000 PUSH1 0x0 MSTORE PUSH1 0x32 PUSH1 0x4 MSTORE PUSH1 0x24 PUSH1 0x0 REVERT JUMPDEST PUSH1 0x20 MUL ADD DUP2 DUP2 MSTORE POP POP PUSH1 0x0 PUSH1 0x60 DUP4 PUSH1 0x80 DUP5 PUSH1 0x7 PUSH2 0x7D0 GAS SUB STATICCALL SWAP1 POP DUP1 PUSH1 0x0 DUP2 EQ PUSH2 0x4B6B JUMPI PUSH2 0x4B6D JUMP JUMPDEST INVALID JUMPDEST POP DUP1 PUSH2 0x4BAE JUMPI PUSH1 0x40 MLOAD PUSH32 0x8C379A000000000000000000000000000000000000000000000000000000000 DUP2 MSTORE PUSH1 0x4 ADD PUSH2 0x4BA5 SWAP1 PUSH2 0x5C28 JUMP JUMPDEST PUSH1 0x40 MLOAD DUP1 SWAP2 SUB SWAP1 REVERT JUMPDEST POP POP SWAP3 SWAP2 POP POP JUMP JUMPDEST PUSH2 0x4BBE PUSH2 0x582C JUMP JUMPDEST PUSH2 0x4BC6 PUSH2 0x5868 JUMP JUMPDEST DUP4 PUSH1 0x0 ADD MLOAD DUP2 PUSH1 0x0 PUSH1 0x4 DUP2 LT PUSH2 0x4C05 JUMPI PUSH32 0x4E487B7100000000000000000000000000000000000000000000000000000000 PUSH1 0x0 MSTORE PUSH1 0x32 PUSH1 0x4 MSTORE PUSH1 0x24 PUSH1 0x0 REVERT JUMPDEST PUSH1 0x20 MUL ADD DUP2 DUP2 MSTORE POP POP DUP4 PUSH1 0x20 ADD MLOAD DUP2 PUSH1 0x1 PUSH1 0x4 DUP2 LT PUSH2 0x4C4D JUMPI PUSH32 0x4E487B7100000000000000000000000000000000000000000000000000000000 PUSH1 0x0 MSTORE PUSH1 0x32 PUSH1 0x4 MSTORE PUSH1 0x24 PUSH1 0x0 REVERT JUMPDEST PUSH1 0x20 MUL ADD DUP2 DUP2 MSTORE POP POP DUP3 PUSH1 0x0 ADD MLOAD DUP2 PUSH1 0x2 PUSH1 0x4 DUP2 LT PUSH2 0x4C95 JUMPI PUSH32 0x4E487B7100000000000000000000000000000000000000000000000000000000 PUSH1 0x0 MSTORE PUSH1 0x32 PUSH1 0x4 MSTORE PUSH1 0x24 PUSH1 0x0 REVERT JUMPDEST PUSH1 0x20 MUL ADD DUP2 DUP2 MSTORE POP POP DUP3 PUSH1 0x20 ADD MLOAD DUP2 PUSH1 0x3 PUSH1 0x4 DUP2 LT PUSH2 0x4CDD JUMPI PUSH32 0x4E487B7100000000000000000000000000000000000000000000000000000000 PUSH1 0x0 MSTORE PUSH1 0x32 PUSH1 0x4 MSTORE PUSH1 0x24 PUSH1 0x0 REVERT JUMPDEST PUSH1 0x20 MUL ADD DUP2 DUP2 MSTORE POP POP PUSH1 0x0 PUSH1 0x60 DUP4 PUSH1 0xC0 DUP5 PUSH1 0x6 PUSH2 0x7D0 GAS SUB STATICCALL SWAP1 POP DUP1 PUSH1 0x0 DUP2 EQ PUSH2 0x4D06 JUMPI PUSH2 0x4D08 JUMP JUMPDEST INVALID JUMPDEST POP DUP1 PUSH2 0x4D49 JUMPI PUSH1 0x40 MLOAD PUSH32 0x8C379A000000000000000000000000000000000000000000000000000000000 DUP2 MSTORE PUSH1 0x4 ADD PUSH2 0x4D40 SWAP1 PUSH2 0x5C88 JUMP JUMPDEST PUSH1 0x40 MLOAD DUP1 SWAP2 SUB SWAP1 REVERT JUMPDEST POP POP SWAP3 SWAP2 POP POP JUMP JUMPDEST PUSH2 0x4D59 PUSH2 0x582C JUMP JUMPDEST PUSH1 0x0 PUSH32 0x30644E72E131A029B85045B68181585D97816A916871CA8D3C208C16D87CFD47 SWAP1 POP PUSH1 0x0 DUP4 PUSH1 0x0 ADD MLOAD EQ DUP1 ISZERO PUSH2 0x4D96 JUMPI POP PUSH1 0x0 DUP4 PUSH1 0x20 ADD MLOAD EQ JUMPDEST ISZERO PUSH2 0x4DBA JUMPI PUSH1 0x40 MLOAD DUP1 PUSH1 0x40 ADD PUSH1 0x40 MSTORE DUP1 PUSH1 0x0 DUP2 MSTORE PUSH1 0x20 ADD PUSH1 0x0 DUP2 MSTORE POP SWAP2 POP POP PUSH2 0x4DF1 JUMP JUMPDEST PUSH1 0x40 MLOAD DUP1 PUSH1 0x40 ADD PUSH1 0x40 MSTORE DUP1 DUP5 PUSH1 0x0 ADD MLOAD DUP2 MSTORE PUSH1 0x20 ADD DUP3 DUP6 PUSH1 0x20 ADD MLOAD PUSH2 0x4DDF SWAP2 SWAP1 PUSH2 0x5EE4 JUMP JUMPDEST DUP4 PUSH2 0x4DEA SWAP2 SWAP1 PUSH2 0x5E20 JUMP JUMPDEST DUP2 MSTORE POP SWAP2 POP POP JUMPDEST SWAP2 SWAP1 POP JUMP JUMPDEST PUSH1 0x0 DUP1 PUSH1 0x4 PUSH8 0xFFFFFFFFFFFFFFFF DUP2 GT ISZERO PUSH2 0x4E3A JUMPI PUSH32 0x4E487B7100000000000000000000000000000000000000000000000000000000 PUSH1 0x0 MSTORE PUSH1 0x41 PUSH1 0x4 MSTORE PUSH1 0x24 PUSH1 0x0 REVERT JUMPDEST PUSH1 0x40 MLOAD SWAP1 DUP1 DUP3 MSTORE DUP1 PUSH1 0x20 MUL PUSH1 0x20 ADD DUP3 ADD PUSH1 0x40 MSTORE DUP1 ISZERO PUSH2 0x4E73 JUMPI DUP2 PUSH1 0x20 ADD JUMPDEST PUSH2 0x4E60 PUSH2 0x582C JUMP JUMPDEST DUP2 MSTORE PUSH1 0x20 ADD SWAP1 PUSH1 0x1 SWAP1 SUB SWAP1 DUP2 PUSH2 0x4E58 JUMPI SWAP1 POP JUMPDEST POP SWAP1 POP PUSH1 0x0 PUSH1 0x4 PUSH8 0xFFFFFFFFFFFFFFFF DUP2 GT ISZERO PUSH2 0x4EB9 JUMPI PUSH32 0x4E487B7100000000000000000000000000000000000000000000000000000000 PUSH1 0x0 MSTORE PUSH1 0x41 PUSH1 0x4 MSTORE PUSH1 0x24 PUSH1 0x0 REVERT JUMPDEST PUSH1 0x40 MLOAD SWAP1 DUP1 DUP3 MSTORE DUP1 PUSH1 0x20 MUL PUSH1 0x20 ADD DUP3 ADD PUSH1 0x40 MSTORE DUP1 ISZERO PUSH2 0x4EF2 JUMPI DUP2 PUSH1 0x20 ADD JUMPDEST PUSH2 0x4EDF PUSH2 0x588A JUMP JUMPDEST DUP2 MSTORE PUSH1 0x20 ADD SWAP1 PUSH1 0x1 SWAP1 SUB SWAP1 DUP2 PUSH2 0x4ED7 JUMPI SWAP1 POP JUMPDEST POP SWAP1 POP DUP11 DUP3 PUSH1 0x0 DUP2 MLOAD DUP2 LT PUSH2 0x4F30 JUMPI PUSH32 0x4E487B7100000000000000000000000000000000000000000000000000000000 PUSH1 0x0 MSTORE PUSH1 0x32 PUSH1 0x4 MSTORE PUSH1 0x24 PUSH1 0x0 REVERT JUMPDEST PUSH1 0x20 MUL PUSH1 0x20 ADD ADD DUP2 SWAP1 MSTORE POP DUP9 DUP3 PUSH1 0x1 DUP2 MLOAD DUP2 LT PUSH2 0x4F76 JUMPI PUSH32 0x4E487B7100000000000000000000000000000000000000000000000000000000 PUSH1 0x0 MSTORE PUSH1 0x32 PUSH1 0x4 MSTORE PUSH1 0x24 PUSH1 0x0 REVERT JUMPDEST PUSH1 0x20 MUL PUSH1 0x20 ADD ADD DUP2 SWAP1 MSTORE POP DUP7 DUP3 PUSH1 0x2 DUP2 MLOAD DUP2 LT PUSH2 0x4FBC JUMPI PUSH32 0x4E487B7100000000000000000000000000000000000000000000000000000000 PUSH1 0x0 MSTORE PUSH1 0x32 PUSH1 0x4 MSTORE PUSH1 0x24 PUSH1 0x0 REVERT JUMPDEST PUSH1 0x20 MUL PUSH1 0x20 ADD ADD DUP2 SWAP1 MSTORE POP DUP5 DUP3 PUSH1 0x3 DUP2 MLOAD DUP2 LT PUSH2 0x5002 JUMPI PUSH32 0x4E487B7100000000000000000000000000000000000000000000000000000000 PUSH1 0x0 MSTORE PUSH1 0x32 PUSH1 0x4 MSTORE PUSH1 0x24 PUSH1 0x0 REVERT JUMPDEST PUSH1 0x20 MUL PUSH1 0x20 ADD ADD DUP2 SWAP1 MSTORE POP DUP10 DUP2 PUSH1 0x0 DUP2 MLOAD DUP2 LT PUSH2 0x5048 JUMPI PUSH32 0x4E487B7100000000000000000000000000000000000000000000000000000000 PUSH1 0x0 MSTORE PUSH1 0x32 PUSH1 0x4 MSTORE PUSH1 0x24 PUSH1 0x0 REVERT JUMPDEST PUSH1 0x20 MUL PUSH1 0x20 ADD ADD DUP2 SWAP1 MSTORE POP DUP8 DUP2 PUSH1 0x1 DUP2 MLOAD DUP2 LT PUSH2 0x508E JUMPI PUSH32 0x4E487B7100000000000000000000000000000000000000000000000000000000 PUSH1 0x0 MSTORE PUSH1 0x32 PUSH1 0x4 MSTORE PUSH1 0x24 PUSH1 0x0 REVERT JUMPDEST PUSH1 0x20 MUL PUSH1 0x20 ADD ADD DUP2 SWAP1 MSTORE POP DUP6 DUP2 PUSH1 0x2 DUP2 MLOAD DUP2 LT PUSH2 0x50D4 JUMPI PUSH32 0x4E487B7100000000000000000000000000000000000000000000000000000000 PUSH1 0x0 MSTORE PUSH1 0x32 PUSH1 0x4 MSTORE PUSH1 0x24 PUSH1 0x0 REVERT JUMPDEST PUSH1 0x20 MUL PUSH1 0x20 ADD ADD DUP2 SWAP1 MSTORE POP DUP4 DUP2 PUSH1 0x3 DUP2 MLOAD DUP2 LT PUSH2 0x511A JUMPI PUSH32 0x4E487B7100000000000000000000000000000000000000000000000000000000 PUSH1 0x0 MSTORE PUSH1 0x32 PUSH1 0x4 MSTORE PUSH1 0x24 PUSH1 0x0 REVERT JUMPDEST PUSH1 0x20 MUL PUSH1 0x20 ADD ADD DUP2 SWAP1 MSTORE POP PUSH2 0x512F DUP3 DUP3 PUSH2 0x513F JUMP JUMPDEST SWAP3 POP POP POP SWAP9 SWAP8 POP POP POP POP POP POP POP POP JUMP JUMPDEST PUSH1 0x0 DUP2 MLOAD DUP4 MLOAD EQ PUSH2 0x5185 JUMPI PUSH1 0x40 MLOAD PUSH32 0x8C379A000000000000000000000000000000000000000000000000000000000 DUP2 MSTORE PUSH1 0x4 ADD PUSH2 0x517C SWAP1 PUSH2 0x5C68 JUMP JUMPDEST PUSH1 0x40 MLOAD DUP1 SWAP2 SUB SWAP1 REVERT JUMPDEST PUSH1 0x0 DUP4 MLOAD SWAP1 POP PUSH1 0x0 PUSH1 0x6 DUP3 PUSH2 0x519A SWAP2 SWAP1 PUSH2 0x5DC6 JUMP JUMPDEST SWAP1 POP PUSH1 0x0 DUP2 PUSH8 0xFFFFFFFFFFFFFFFF DUP2 GT ISZERO PUSH2 0x51DE JUMPI PUSH32 0x4E487B7100000000000000000000000000000000000000000000000000000000 PUSH1 0x0 MSTORE PUSH1 0x41 PUSH1 0x4 MSTORE PUSH1 0x24 PUSH1 0x0 REVERT JUMPDEST PUSH1 0x40 MLOAD SWAP1 DUP1 DUP3 MSTORE DUP1 PUSH1 0x20 MUL PUSH1 0x20 ADD DUP3 ADD PUSH1 0x40 MSTORE DUP1 ISZERO PUSH2 0x520C JUMPI DUP2 PUSH1 0x20 ADD PUSH1 0x20 DUP3 MUL DUP1 CALLDATASIZE DUP4 CALLDATACOPY DUP1 DUP3 ADD SWAP2 POP POP SWAP1 POP JUMPDEST POP SWAP1 POP PUSH1 0x0 JUMPDEST DUP4 DUP2 LT ISZERO PUSH2 0x56F1 JUMPI DUP7 DUP2 DUP2 MLOAD DUP2 LT PUSH2 0x5253 JUMPI PUSH32 0x4E487B7100000000000000000000000000000000000000000000000000000000 PUSH1 0x0 MSTORE PUSH1 0x32 PUSH1 0x4 MSTORE PUSH1 0x24 PUSH1 0x0 REVERT JUMPDEST PUSH1 0x20 MUL PUSH1 0x20 ADD ADD MLOAD PUSH1 0x0 ADD MLOAD DUP3 PUSH1 0x0 PUSH1 0x6 DUP5 PUSH2 0x526F SWAP2 SWAP1 PUSH2 0x5DC6 JUMP JUMPDEST PUSH2 0x5279 SWAP2 SWAP1 PUSH2 0x5D70 JUMP JUMPDEST DUP2 MLOAD DUP2 LT PUSH2 0x52B0 JUMPI PUSH32 0x4E487B7100000000000000000000000000000000000000000000000000000000 PUSH1 0x0 MSTORE PUSH1 0x32 PUSH1 0x4 MSTORE PUSH1 0x24 PUSH1 0x0 REVERT JUMPDEST PUSH1 0x20 MUL PUSH1 0x20 ADD ADD DUP2 DUP2 MSTORE POP POP DUP7 DUP2 DUP2 MLOAD DUP2 LT PUSH2 0x52F5 JUMPI PUSH32 0x4E487B7100000000000000000000000000000000000000000000000000000000 PUSH1 0x0 MSTORE PUSH1 0x32 PUSH1 0x4 MSTORE PUSH1 0x24 PUSH1 0x0 REVERT JUMPDEST PUSH1 0x20 MUL PUSH1 0x20 ADD ADD MLOAD PUSH1 0x20 ADD MLOAD DUP3 PUSH1 0x1 PUSH1 0x6 DUP5 PUSH2 0x5311 SWAP2 SWAP1 PUSH2 0x5DC6 JUMP JUMPDEST PUSH2 0x531B SWAP2 SWAP1 PUSH2 0x5D70 JUMP JUMPDEST DUP2 MLOAD DUP2 LT PUSH2 0x5352 JUMPI PUSH32 0x4E487B7100000000000000000000000000000000000000000000000000000000 PUSH1 0x0 MSTORE PUSH1 0x32 PUSH1 0x4 MSTORE PUSH1 0x24 PUSH1 0x0 REVERT JUMPDEST PUSH1 0x20 MUL PUSH1 0x20 ADD ADD DUP2 DUP2 MSTORE POP POP DUP6 DUP2 DUP2 MLOAD DUP2 LT PUSH2 0x5397 JUMPI PUSH32 0x4E487B7100000000000000000000000000000000000000000000000000000000 PUSH1 0x0 MSTORE PUSH1 0x32 PUSH1 0x4 MSTORE PUSH1 0x24 PUSH1 0x0 REVERT JUMPDEST PUSH1 0x20 MUL PUSH1 0x20 ADD ADD MLOAD PUSH1 0x0 ADD MLOAD PUSH1 0x0 PUSH1 0x2 DUP2 LT PUSH2 0x53DC JUMPI PUSH32 0x4E487B7100000000000000000000000000000000000000000000000000000000 PUSH1 0x0 MSTORE PUSH1 0x32 PUSH1 0x4 MSTORE PUSH1 0x24 PUSH1 0x0 REVERT JUMPDEST PUSH1 0x20 MUL ADD MLOAD DUP3 PUSH1 0x2 PUSH1 0x6 DUP5 PUSH2 0x53F1 SWAP2 SWAP1 PUSH2 0x5DC6 JUMP JUMPDEST PUSH2 0x53FB SWAP2 SWAP1 PUSH2 0x5D70 JUMP JUMPDEST DUP2 MLOAD DUP2 LT PUSH2 0x5432 JUMPI PUSH32 0x4E487B7100000000000000000000000000000000000000000000000000000000 PUSH1 0x0 MSTORE PUSH1 0x32 PUSH1 0x4 MSTORE PUSH1 0x24 PUSH1 0x0 REVERT JUMPDEST PUSH1 0x20 MUL PUSH1 0x20 ADD ADD DUP2 DUP2 MSTORE POP POP DUP6 DUP2 DUP2 MLOAD DUP2 LT PUSH2 0x5477 JUMPI PUSH32 0x4E487B7100000000000000000000000000000000000000000000000000000000 PUSH1 0x0 MSTORE PUSH1 0x32 PUSH1 0x4 MSTORE PUSH1 0x24 PUSH1 0x0 REVERT JUMPDEST PUSH1 0x20 MUL PUSH1 0x20 ADD ADD MLOAD PUSH1 0x0 ADD MLOAD PUSH1 0x1 PUSH1 0x2 DUP2 LT PUSH2 0x54BC JUMPI PUSH32 0x4E487B7100000000000000000000000000000000000000000000000000000000 PUSH1 0x0 MSTORE PUSH1 0x32 PUSH1 0x4 MSTORE PUSH1 0x24 PUSH1 0x0 REVERT JUMPDEST PUSH1 0x20 MUL ADD MLOAD DUP3 PUSH1 0x3 PUSH1 0x6 DUP5 PUSH2 0x54D1 SWAP2 SWAP1 PUSH2 0x5DC6 JUMP JUMPDEST PUSH2 0x54DB SWAP2 SWAP1 PUSH2 0x5D70 JUMP JUMPDEST DUP2 MLOAD DUP2 LT PUSH2 0x5512 JUMPI PUSH32 0x4E487B7100000000000000000000000000000000000000000000000000000000 PUSH1 0x0 MSTORE PUSH1 0x32 PUSH1 0x4 MSTORE PUSH1 0x24 PUSH1 0x0 REVERT JUMPDEST PUSH1 0x20 MUL PUSH1 0x20 ADD ADD DUP2 DUP2 MSTORE POP POP DUP6 DUP2 DUP2 MLOAD DUP2 LT PUSH2 0x5557 JUMPI PUSH32 0x4E487B7100000000000000000000000000000000000000000000000000000000 PUSH1 0x0 MSTORE PUSH1 0x32 PUSH1 0x4 MSTORE PUSH1 0x24 PUSH1 0x0 REVERT JUMPDEST PUSH1 0x20 MUL PUSH1 0x20 ADD ADD MLOAD PUSH1 0x20 ADD MLOAD PUSH1 0x0 PUSH1 0x2 DUP2 LT PUSH2 0x559C JUMPI PUSH32 0x4E487B7100000000000000000000000000000000000000000000000000000000 PUSH1 0x0 MSTORE PUSH1 0x32 PUSH1 0x4 MSTORE PUSH1 0x24 PUSH1 0x0 REVERT JUMPDEST PUSH1 0x20 MUL ADD MLOAD DUP3 PUSH1 0x4 PUSH1 0x6 DUP5 PUSH2 0x55B1 SWAP2 SWAP1 PUSH2 0x5DC6 JUMP JUMPDEST PUSH2 0x55BB SWAP2 SWAP1 PUSH2 0x5D70 JUMP JUMPDEST DUP2 MLOAD DUP2 LT PUSH2 0x55F2 JUMPI PUSH32 0x4E487B7100000000000000000000000000000000000000000000000000000000 PUSH1 0x0 MSTORE PUSH1 0x32 PUSH1 0x4 MSTORE PUSH1 0x24 PUSH1 0x0 REVERT JUMPDEST PUSH1 0x20 MUL PUSH1 0x20 ADD ADD DUP2 DUP2 MSTORE POP POP DUP6 DUP2 DUP2 MLOAD DUP2 LT PUSH2 0x5637 JUMPI PUSH32 0x4E487B7100000000000000000000000000000000000000000000000000000000 PUSH1 0x0 MSTORE PUSH1 0x32 PUSH1 0x4 MSTORE PUSH1 0x24 PUSH1 0x0 REVERT JUMPDEST PUSH1 0x20 MUL PUSH1 0x20 ADD ADD MLOAD PUSH1 0x20 ADD MLOAD PUSH1 0x1 PUSH1 0x2 DUP2 LT PUSH2 0x567C JUMPI PUSH32 0x4E487B7100000000000000000000000000000000000000000000000000000000 PUSH1 0x0 MSTORE PUSH1 0x32 PUSH1 0x4 MSTORE PUSH1 0x24 PUSH1 0x0 REVERT JUMPDEST PUSH1 0x20 MUL ADD MLOAD DUP3 PUSH1 0x5 PUSH1 0x6 DUP5 PUSH2 0x5691 SWAP2 SWAP1 PUSH2 0x5DC6 JUMP JUMPDEST PUSH2 0x569B SWAP2 SWAP1 PUSH2 0x5D70 JUMP JUMPDEST DUP2 MLOAD DUP2 LT PUSH2 0x56D2 JUMPI PUSH32 0x4E487B7100000000000000000000000000000000000000000000000000000000 PUSH1 0x0 MSTORE PUSH1 0x32 PUSH1 0x4 MSTORE PUSH1 0x24 PUSH1 0x0 REVERT JUMPDEST PUSH1 0x20 MUL PUSH1 0x20 ADD ADD DUP2 DUP2 MSTORE POP POP DUP1 DUP1 PUSH2 0x56E9 SWAP1 PUSH2 0x5E9B JUMP JUMPDEST SWAP2 POP POP PUSH2 0x5212 JUMP JUMPDEST POP PUSH2 0x56FA PUSH2 0x58B0 JUMP JUMPDEST PUSH1 0x0 PUSH1 0x20 DUP3 PUSH1 0x20 DUP7 MUL PUSH1 0x20 DUP7 ADD PUSH1 0x8 PUSH2 0x7D0 GAS SUB STATICCALL SWAP1 POP DUP1 PUSH1 0x0 DUP2 EQ PUSH2 0x571F JUMPI PUSH2 0x5721 JUMP JUMPDEST INVALID JUMPDEST POP DUP1 PUSH2 0x5762 JUMPI PUSH1 0x40 MLOAD PUSH32 0x8C379A000000000000000000000000000000000000000000000000000000000 DUP2 MSTORE PUSH1 0x4 ADD PUSH2 0x5759 SWAP1 PUSH2 0x5CA8 JUMP JUMPDEST PUSH1 0x40 MLOAD DUP1 SWAP2 SUB SWAP1 REVERT JUMPDEST PUSH1 0x0 DUP3 PUSH1 0x0 PUSH1 0x1 DUP2 LT PUSH2 0x579E JUMPI PUSH32 0x4E487B7100000000000000000000000000000000000000000000000000000000 PUSH1 0x0 MSTORE PUSH1 0x32 PUSH1 0x4 MSTORE PUSH1 0x24 PUSH1 0x0 REVERT JUMPDEST PUSH1 0x20 MUL ADD MLOAD EQ ISZERO SWAP6 POP POP POP POP POP POP SWAP3 SWAP2 POP POP JUMP JUMPDEST PUSH1 0x40 MLOAD DUP1 PUSH1 0x60 ADD PUSH1 0x40 MSTORE DUP1 PUSH2 0x57C5 PUSH2 0x582C JUMP JUMPDEST DUP2 MSTORE PUSH1 0x20 ADD PUSH2 0x57D2 PUSH2 0x588A JUMP JUMPDEST DUP2 MSTORE PUSH1 0x20 ADD PUSH2 0x57DF PUSH2 0x582C JUMP JUMPDEST DUP2 MSTORE POP SWAP1 JUMP JUMPDEST PUSH1 0x40 MLOAD DUP1 PUSH1 0xA0 ADD PUSH1 0x40 MSTORE DUP1 PUSH2 0x57F8 PUSH2 0x582C JUMP JUMPDEST DUP2 MSTORE PUSH1 0x20 ADD PUSH2 0x5805 PUSH2 0x588A JUMP JUMPDEST DUP2 MSTORE PUSH1 0x20 ADD PUSH2 0x5812 PUSH2 0x588A JUMP JUMPDEST DUP2 MSTORE PUSH1 0x20 ADD PUSH2 0x581F PUSH2 0x588A JUMP JUMPDEST DUP2 MSTORE PUSH1 0x20 ADD PUSH1 0x60 DUP2 MSTORE POP SWAP1 JUMP JUMPDEST PUSH1 0x40 MLOAD DUP1 PUSH1 0x40 ADD PUSH1 0x40 MSTORE DUP1 PUSH1 0x0 DUP2 MSTORE PUSH1 0x20 ADD PUSH1 0x0 DUP2 MSTORE POP SWAP1 JUMP JUMPDEST PUSH1 0x40 MLOAD DUP1 PUSH1 0x60 ADD PUSH1 0x40 MSTORE DUP1 PUSH1 0x3 SWAP1 PUSH1 0x20 DUP3 MUL DUP1 CALLDATASIZE DUP4 CALLDATACOPY DUP1 DUP3 ADD SWAP2 POP POP SWAP1 POP POP SWAP1 JUMP JUMPDEST PUSH1 0x40 MLOAD DUP1 PUSH1 0x80 ADD PUSH1 0x40 MSTORE DUP1 PUSH1 0x4 SWAP1 PUSH1 0x20 DUP3 MUL DUP1 CALLDATASIZE DUP4 CALLDATACOPY DUP1 DUP3 ADD SWAP2 POP POP SWAP1 POP POP SWAP1 JUMP JUMPDEST PUSH1 0x40 MLOAD DUP1 PUSH1 0x40 ADD PUSH1 0x40 MSTORE DUP1 PUSH2 0x589D PUSH2 0x58D2 JUMP JUMPDEST DUP2 MSTORE PUSH1 0x20 ADD PUSH2 0x58AA PUSH2 0x58D2 JUMP JUMPDEST DUP2 MSTORE POP SWAP1 JUMP JUMPDEST PUSH1 0x40 MLOAD DUP1 PUSH1 0x20 ADD PUSH1 0x40 MSTORE DUP1 PUSH1 0x1 SWAP1 PUSH1 0x20 DUP3 MUL DUP1 CALLDATASIZE DUP4 CALLDATACOPY DUP1 DUP3 ADD SWAP2 POP POP SWAP1 POP POP SWAP1 JUMP JUMPDEST PUSH1 0x40 MLOAD DUP1 PUSH1 0x40 ADD PUSH1 0x40 MSTORE DUP1 PUSH1 0x2 SWAP1 PUSH1 0x20 DUP3 MUL DUP1 CALLDATASIZE DUP4 CALLDATACOPY DUP1 DUP3 ADD SWAP2 POP POP SWAP1 POP POP SWAP1 JUMP JUMPDEST PUSH1 0x0 PUSH2 0x5907 PUSH2 0x5902 DUP5 PUSH2 0x5CED JUMP JUMPDEST PUSH2 0x5CC8 JUMP JUMPDEST SWAP1 POP DUP1 DUP3 DUP6 PUSH1 0x40 DUP7 MUL DUP3 ADD GT ISZERO PUSH2 0x591D JUMPI PUSH1 0x0 DUP1 REVERT JUMPDEST PUSH1 0x0 JUMPDEST DUP6 DUP2 LT ISZERO PUSH2 0x594D JUMPI DUP2 PUSH2 0x5933 DUP9 DUP3 PUSH2 0x5A6B JUMP JUMPDEST DUP5 MSTORE PUSH1 0x20 DUP5 ADD SWAP4 POP PUSH1 0x40 DUP4 ADD SWAP3 POP POP PUSH1 0x1 DUP2 ADD SWAP1 POP PUSH2 0x5920 JUMP JUMPDEST POP POP POP SWAP4 SWAP3 POP POP POP JUMP JUMPDEST PUSH1 0x0 PUSH2 0x596A PUSH2 0x5965 DUP5 PUSH2 0x5D13 JUMP JUMPDEST PUSH2 0x5CC8 JUMP JUMPDEST SWAP1 POP DUP1 DUP3 DUP6 PUSH1 0x20 DUP7 MUL DUP3 ADD GT ISZERO PUSH2 0x5980 JUMPI PUSH1 0x0 DUP1 REVERT JUMPDEST PUSH1 0x0 JUMPDEST DUP6 DUP2 LT ISZERO PUSH2 0x59B0 JUMPI DUP2 PUSH2 0x5996 DUP9 DUP3 PUSH2 0x5A92 JUMP JUMPDEST DUP5 MSTORE PUSH1 0x20 DUP5 ADD SWAP4 POP PUSH1 0x20 DUP4 ADD SWAP3 POP POP PUSH1 0x1 DUP2 ADD SWAP1 POP PUSH2 0x5983 JUMP JUMPDEST POP POP POP SWAP4 SWAP3 POP POP POP JUMP JUMPDEST PUSH1 0x0 PUSH2 0x59CD PUSH2 0x59C8 DUP5 PUSH2 0x5D39 JUMP JUMPDEST PUSH2 0x5CC8 JUMP JUMPDEST SWAP1 POP DUP1 DUP3 DUP6 PUSH1 0x20 DUP7 MUL DUP3 ADD GT ISZERO PUSH2 0x59E3 JUMPI PUSH1 0x0 DUP1 REVERT JUMPDEST PUSH1 0x0 JUMPDEST DUP6 DUP2 LT ISZERO PUSH2 0x5A13 JUMPI DUP2 PUSH2 0x59F9 DUP9 DUP3 PUSH2 0x5A92 JUMP JUMPDEST DUP5 MSTORE PUSH1 0x20 DUP5 ADD SWAP4 POP PUSH1 0x20 DUP4 ADD SWAP3 POP POP PUSH1 0x1 DUP2 ADD SWAP1 POP PUSH2 0x59E6 JUMP JUMPDEST POP POP POP SWAP4 SWAP3 POP POP POP JUMP JUMPDEST PUSH1 0x0 DUP3 PUSH1 0x1F DUP4 ADD SLT PUSH2 0x5A2E JUMPI PUSH1 0x0 DUP1 REVERT JUMPDEST PUSH1 0x2 PUSH2 0x5A3B DUP5 DUP3 DUP6 PUSH2 0x58F4 JUMP JUMPDEST SWAP2 POP POP SWAP3 SWAP2 POP POP JUMP JUMPDEST PUSH1 0x0 DUP3 PUSH1 0x1F DUP4 ADD SLT PUSH2 0x5A55 JUMPI PUSH1 0x0 DUP1 REVERT JUMPDEST PUSH1 0x66 PUSH2 0x5A62 DUP5 DUP3 DUP6 PUSH2 0x5957 JUMP JUMPDEST SWAP2 POP POP SWAP3 SWAP2 POP POP JUMP JUMPDEST PUSH1 0x0 DUP3 PUSH1 0x1F DUP4 ADD SLT PUSH2 0x5A7C JUMPI PUSH1 0x0 DUP1 REVERT JUMPDEST PUSH1 0x2 PUSH2 0x5A89 DUP5 DUP3 DUP6 PUSH2 0x59BA JUMP JUMPDEST SWAP2 POP POP SWAP3 SWAP2 POP POP JUMP JUMPDEST PUSH1 0x0 DUP2 CALLDATALOAD SWAP1 POP PUSH2 0x5AA1 DUP2 PUSH2 0x60A9 JUMP JUMPDEST SWAP3 SWAP2 POP POP JUMP JUMPDEST PUSH1 0x0 DUP1 PUSH1 0x0 DUP1 PUSH2 0xDC0 DUP6 DUP8 SUB SLT ISZERO PUSH2 0x5ABE JUMPI PUSH1 0x0 DUP1 REVERT JUMPDEST PUSH1 0x0 PUSH2 0x5ACC DUP8 DUP3 DUP9 ADD PUSH2 0x5A6B JUMP JUMPDEST SWAP5 POP POP PUSH1 0x40 PUSH2 0x5ADD DUP8 DUP3 DUP9 ADD PUSH2 0x5A1D JUMP JUMPDEST SWAP4 POP POP PUSH1 0xC0 PUSH2 0x5AEE DUP8 DUP3 DUP9 ADD PUSH2 0x5A6B JUMP JUMPDEST SWAP3 POP POP PUSH2 0x100 PUSH2 0x5B00 DUP8 DUP3 DUP9 ADD PUSH2 0x5A44 JUMP JUMPDEST SWAP2 POP POP SWAP3 SWAP6 SWAP2 SWAP5 POP SWAP3 POP JUMP JUMPDEST PUSH2 0x5B15 DUP2 PUSH2 0x5E54 JUMP JUMPDEST DUP3 MSTORE POP POP JUMP JUMPDEST PUSH1 0x0 PUSH2 0x5B28 PUSH1 0x12 DUP4 PUSH2 0x5D5F JUMP JUMPDEST SWAP2 POP PUSH2 0x5B33 DUP3 PUSH2 0x5FB3 JUMP JUMPDEST PUSH1 0x20 DUP3 ADD SWAP1 POP SWAP2 SWAP1 POP JUMP JUMPDEST PUSH1 0x0 PUSH2 0x5B4B PUSH1 0x12 DUP4 PUSH2 0x5D5F JUMP JUMPDEST SWAP2 POP PUSH2 0x5B56 DUP3 PUSH2 0x5FDC JUMP JUMPDEST PUSH1 0x20 DUP3 ADD SWAP1 POP SWAP2 SWAP1 POP JUMP JUMPDEST PUSH1 0x0 PUSH2 0x5B6E PUSH1 0x1F DUP4 PUSH2 0x5D5F JUMP JUMPDEST SWAP2 POP PUSH2 0x5B79 DUP3 PUSH2 0x6005 JUMP JUMPDEST PUSH1 0x20 DUP3 ADD SWAP1 POP SWAP2 SWAP1 POP JUMP JUMPDEST PUSH1 0x0 PUSH2 0x5B91 PUSH1 0x16 DUP4 PUSH2 0x5D5F JUMP JUMPDEST SWAP2 POP PUSH2 0x5B9C DUP3 PUSH2 0x602E JUMP JUMPDEST PUSH1 0x20 DUP3 ADD SWAP1 POP SWAP2 SWAP1 POP JUMP JUMPDEST PUSH1 0x0 PUSH2 0x5BB4 PUSH1 0x12 DUP4 PUSH2 0x5D5F JUMP JUMPDEST SWAP2 POP PUSH2 0x5BBF DUP3 PUSH2 0x6057 JUMP JUMPDEST PUSH1 0x20 DUP3 ADD SWAP1 POP SWAP2 SWAP1 POP JUMP JUMPDEST PUSH1 0x0 PUSH2 0x5BD7 PUSH1 0x15 DUP4 PUSH2 0x5D5F JUMP JUMPDEST SWAP2 POP PUSH2 0x5BE2 DUP3 PUSH2 0x6080 JUMP JUMPDEST PUSH1 0x20 DUP3 ADD SWAP1 POP SWAP2 SWAP1 POP JUMP JUMPDEST PUSH1 0x0 PUSH1 0x20 DUP3 ADD SWAP1 POP PUSH2 0x5C02 PUSH1 0x0 DUP4 ADD DUP5 PUSH2 0x5B0C JUMP JUMPDEST SWAP3 SWAP2 POP POP JUMP JUMPDEST PUSH1 0x0 PUSH1 0x20 DUP3 ADD SWAP1 POP DUP2 DUP2 SUB PUSH1 0x0 DUP4 ADD MSTORE PUSH2 0x5C21 DUP2 PUSH2 0x5B1B JUMP JUMPDEST SWAP1 POP SWAP2 SWAP1 POP JUMP JUMPDEST PUSH1 0x0 PUSH1 0x20 DUP3 ADD SWAP1 POP DUP2 DUP2 SUB PUSH1 0x0 DUP4 ADD MSTORE PUSH2 0x5C41 DUP2 PUSH2 0x5B3E JUMP JUMPDEST SWAP1 POP SWAP2 SWAP1 POP JUMP JUMPDEST PUSH1 0x0 PUSH1 0x20 DUP3 ADD SWAP1 POP DUP2 DUP2 SUB PUSH1 0x0 DUP4 ADD MSTORE PUSH2 0x5C61 DUP2 PUSH2 0x5B61 JUMP JUMPDEST SWAP1 POP SWAP2 SWAP1 POP JUMP JUMPDEST PUSH1 0x0 PUSH1 0x20 DUP3 ADD SWAP1 POP DUP2 DUP2 SUB PUSH1 0x0 DUP4 ADD MSTORE PUSH2 0x5C81 DUP2 PUSH2 0x5B84 JUMP JUMPDEST SWAP1 POP SWAP2 SWAP1 POP JUMP JUMPDEST PUSH1 0x0 PUSH1 0x20 DUP3 ADD SWAP1 POP DUP2 DUP2 SUB PUSH1 0x0 DUP4 ADD MSTORE PUSH2 0x5CA1 DUP2 PUSH2 0x5BA7 JUMP JUMPDEST SWAP1 POP SWAP2 SWAP1 POP JUMP JUMPDEST PUSH1 0x0 PUSH1 0x20 DUP3 ADD SWAP1 POP DUP2 DUP2 SUB PUSH1 0x0 DUP4 ADD MSTORE PUSH2 0x5CC1 DUP2 PUSH2 0x5BCA JUMP JUMPDEST SWAP1 POP SWAP2 SWAP1 POP JUMP JUMPDEST PUSH1 0x0 PUSH2 0x5CD2 PUSH2 0x5CE3 JUMP JUMPDEST SWAP1 POP PUSH2 0x5CDE DUP3 DUP3 PUSH2 0x5E6A JUMP JUMPDEST SWAP2 SWAP1 POP JUMP JUMPDEST PUSH1 0x0 PUSH1 0x40 MLOAD SWAP1 POP SWAP1 JUMP JUMPDEST PUSH1 0x0 PUSH8 0xFFFFFFFFFFFFFFFF DUP3 GT ISZERO PUSH2 0x5D08 JUMPI PUSH2 0x5D07 PUSH2 0x5F73 JUMP JUMPDEST JUMPDEST PUSH1 0x20 DUP3 MUL SWAP1 POP SWAP2 SWAP1 POP JUMP JUMPDEST PUSH1 0x0 PUSH8 0xFFFFFFFFFFFFFFFF DUP3 GT ISZERO PUSH2 0x5D2E JUMPI PUSH2 0x5D2D PUSH2 0x5F73 JUMP JUMPDEST JUMPDEST PUSH1 0x20 DUP3 MUL SWAP1 POP SWAP2 SWAP1 POP JUMP JUMPDEST PUSH1 0x0 PUSH8 0xFFFFFFFFFFFFFFFF DUP3 GT ISZERO PUSH2 0x5D54 JUMPI PUSH2 0x5D53 PUSH2 0x5F73 JUMP JUMPDEST JUMPDEST PUSH1 0x20 DUP3 MUL SWAP1 POP SWAP2 SWAP1 POP JUMP JUMPDEST PUSH1 0x0 DUP3 DUP3 MSTORE PUSH1 0x20 DUP3 ADD SWAP1 POP SWAP3 SWAP2 POP POP JUMP JUMPDEST PUSH1 0x0 PUSH2 0x5D7B DUP3 PUSH2 0x5E60 JUMP JUMPDEST SWAP2 POP PUSH2 0x5D86 DUP4 PUSH2 0x5E60 JUMP JUMPDEST SWAP3 POP DUP3 PUSH32 0xFFFFFFFFFFFFFFFFFFFFFFFFFFFFFFFFFFFFFFFFFFFFFFFFFFFFFFFFFFFFFFFF SUB DUP3 GT ISZERO PUSH2 0x5DBB JUMPI PUSH2 0x5DBA PUSH2 0x5F15 JUMP JUMPDEST JUMPDEST DUP3 DUP3 ADD SWAP1 POP SWAP3 SWAP2 POP POP JUMP JUMPDEST PUSH1 0x0 PUSH2 0x5DD1 DUP3 PUSH2 0x5E60 JUMP JUMPDEST SWAP2 POP PUSH2 0x5DDC DUP4 PUSH2 0x5E60 JUMP JUMPDEST SWAP3 POP DUP2 PUSH32 0xFFFFFFFFFFFFFFFFFFFFFFFFFFFFFFFFFFFFFFFFFFFFFFFFFFFFFFFFFFFFFFFF DIV DUP4 GT DUP3 ISZERO ISZERO AND ISZERO PUSH2 0x5E15 JUMPI PUSH2 0x5E14 PUSH2 0x5F15 JUMP JUMPDEST JUMPDEST DUP3 DUP3 MUL SWAP1 POP SWAP3 SWAP2 POP POP JUMP JUMPDEST PUSH1 0x0 PUSH2 0x5E2B DUP3 PUSH2 0x5E60 JUMP JUMPDEST SWAP2 POP PUSH2 0x5E36 DUP4 PUSH2 0x5E60 JUMP JUMPDEST SWAP3 POP DUP3 DUP3 LT ISZERO PUSH2 0x5E49 JUMPI PUSH2 0x5E48 PUSH2 0x5F15 JUMP JUMPDEST JUMPDEST DUP3 DUP3 SUB SWAP1 POP SWAP3 SWAP2 POP POP JUMP JUMPDEST PUSH1 0x0 DUP2 ISZERO ISZERO SWAP1 POP SWAP2 SWAP1 POP JUMP JUMPDEST PUSH1 0x0 DUP2 SWAP1 POP SWAP2 SWAP1 POP JUMP JUMPDEST PUSH2 0x5E73 DUP3 PUSH2 0x5FA2 JUMP JUMPDEST DUP2 ADD DUP2 DUP2 LT PUSH8 0xFFFFFFFFFFFFFFFF DUP3 GT OR ISZERO PUSH2 0x5E92 JUMPI PUSH2 0x5E91 PUSH2 0x5F73 JUMP JUMPDEST JUMPDEST DUP1 PUSH1 0x40 MSTORE POP POP POP JUMP JUMPDEST PUSH1 0x0 PUSH2 0x5EA6 DUP3 PUSH2 0x5E60 JUMP JUMPDEST SWAP2 POP PUSH32 0xFFFFFFFFFFFFFFFFFFFFFFFFFFFFFFFFFFFFFFFFFFFFFFFFFFFFFFFFFFFFFFFF DUP3 EQ ISZERO PUSH2 0x5ED9 JUMPI PUSH2 0x5ED8 PUSH2 0x5F15 JUMP JUMPDEST JUMPDEST PUSH1 0x1 DUP3 ADD SWAP1 POP SWAP2 SWAP1 POP JUMP JUMPDEST PUSH1 0x0 PUSH2 0x5EEF DUP3 PUSH2 0x5E60 JUMP JUMPDEST SWAP2 POP PUSH2 0x5EFA DUP4 PUSH2 0x5E60 JUMP JUMPDEST SWAP3 POP DUP3 PUSH2 0x5F0A JUMPI PUSH2 0x5F09 PUSH2 0x5F44 JUMP JUMPDEST JUMPDEST DUP3 DUP3 MOD SWAP1 POP SWAP3 SWAP2 POP POP JUMP JUMPDEST PUSH32 0x4E487B7100000000000000000000000000000000000000000000000000000000 PUSH1 0x0 MSTORE PUSH1 0x11 PUSH1 0x4 MSTORE PUSH1 0x24 PUSH1 0x0 REVERT JUMPDEST PUSH32 0x4E487B7100000000000000000000000000000000000000000000000000000000 PUSH1 0x0 MSTORE PUSH1 0x12 PUSH1 0x4 MSTORE PUSH1 0x24 PUSH1 0x0 REVERT JUMPDEST PUSH32 0x4E487B7100000000000000000000000000000000000000000000000000000000 PUSH1 0x0 MSTORE PUSH1 0x41 PUSH1 0x4 MSTORE PUSH1 0x24 PUSH1 0x0 REVERT JUMPDEST PUSH1 0x0 PUSH1 0x1F NOT PUSH1 0x1F DUP4 ADD AND SWAP1 POP SWAP2 SWAP1 POP JUMP JUMPDEST PUSH32 0x76657269666965722D6261642D696E7075740000000000000000000000000000 PUSH1 0x0 DUP3 ADD MSTORE POP JUMP JUMPDEST PUSH32 0x70616972696E672D6D756C2D6661696C65640000000000000000000000000000 PUSH1 0x0 DUP3 ADD MSTORE POP JUMP JUMPDEST PUSH32 0x76657269666965722D6774652D736E61726B2D7363616C61722D6669656C6400 PUSH1 0x0 DUP3 ADD MSTORE POP JUMP JUMPDEST PUSH32 0x70616972696E672D6C656E677468732D6661696C656400000000000000000000 PUSH1 0x0 DUP3 ADD MSTORE POP JUMP JUMPDEST PUSH32 0x70616972696E672D6164642D6661696C65640000000000000000000000000000 PUSH1 0x0 DUP3 ADD MSTORE POP JUMP JUMPDEST PUSH32 0x70616972696E672D6F70636F64652D6661696C65640000000000000000000000 PUSH1 0x0 DUP3 ADD MSTORE POP JUMP JUMPDEST PUSH2 0x60B2 DUP2 PUSH2 0x5E60 JUMP JUMPDEST DUP2 EQ PUSH2 0x60BD JUMPI PUSH1 0x0 DUP1 REVERT JUMPDEST POP JUMP INVALID LOG2 PUSH5 0x6970667358 0x22 SLT KECCAK256 0xD7 0xA6 0xE4 DUP10 PUSH20 0x717D388486D0312E97BBD54EDE1E326DD5908AD7 0xE9 0xE2 GASPRICE 0xAF PUSH24 0x739164736F6C634300080400330000000000000000000000 "
        },
        "methodIdentifiers": {
          "verifyProof(uint256[2],uint256[2][2],uint256[2],uint256[102])": "274182f8"
        }
      }
    }
  }
}