{
  "_format": "hh-sol-artifact-1",
  "contractName": "Verifier",
  "sourceName": "contracts/verifier.sol",
  "abi": [
    {
      "inputs": [
        {
          "internalType": "uint256[2]",
          "name": "a",
          "type": "uint256[2]"
        },
        {
          "internalType": "uint256[2][2]",
          "name": "b",
          "type": "uint256[2][2]"
        },
        {
          "internalType": "uint256[2]",
          "name": "c",
          "type": "uint256[2]"
        },
        {
          "internalType": "uint256[102]",
          "name": "input",
          "type": "uint256[102]"
        }
      ],
      "name": "verifyProof",
      "outputs": [
        {
          "internalType": "bool",
          "name": "r",
          "type": "bool"
        }
      ],
      "stateMutability": "view",
      "type": "function"
    }
  ],
  "bytecode": "0x608060405234801561001057600080fd5b506160f680620000216000396000f3fe608060405234801561001057600080fd5b506004361061002b5760003560e01c8063274182f814610030575b600080fd5b61004a60048036038101906100459190615aa7565b610060565b6040516100579190615bed565b60405180910390f35b600061006a6157b2565b6040518060400160405280876000600281106100af577f4e487b7100000000000000000000000000000000000000000000000000000000600052603260045260246000fd5b60200201518152602001876001600281106100f3577f4e487b7100000000000000000000000000000000000000000000000000000000600052603260045260246000fd5b602002015181525081600001819052506040518060400160405280604051806040016040528088600060028110610153577f4e487b7100000000000000000000000000000000000000000000000000000000600052603260045260246000fd5b6020020151600060028110610191577f4e487b7100000000000000000000000000000000000000000000000000000000600052603260045260246000fd5b60200201518152602001886000600281106101d5577f4e487b7100000000000000000000000000000000000000000000000000000000600052603260045260246000fd5b6020020151600160028110610213577f4e487b7100000000000000000000000000000000000000000000000000000000600052603260045260246000fd5b60200201518152508152602001604051806040016040528088600160028110610265577f4e487b7100000000000000000000000000000000000000000000000000000000600052603260045260246000fd5b60200201516000600281106102a3577f4e487b7100000000000000000000000000000000000000000000000000000000600052603260045260246000fd5b60200201518152602001886001600281106102e7577f4e487b7100000000000000000000000000000000000000000000000000000000600052603260045260246000fd5b6020020151600160028110610325577f4e487b7100000000000000000000000000000000000000000000000000000000600052603260045260246000fd5b6020020151815250815250816020018190525060405180604001604052808560006002811061037d577f4e487b7100000000000000000000000000000000000000000000000000000000600052603260045260246000fd5b60200201518152602001856001600281106103c1577f4e487b7100000000000000000000000000000000000000000000000000000000600052603260045260246000fd5b602002015181525081604001819052506000606667ffffffffffffffff811115610414577f4e487b7100000000000000000000000000000000000000000000000000000000600052604160045260246000fd5b6040519080825280602002602001820160405280156104425781602001602082028036833780820191505090505b50905060005b60668110156104e75784816066811061048a577f4e487b7100000000000000000000000000000000000000000000000000000000600052603260045260246000fd5b60200201518282815181106104c8577f4e487b7100000000000000000000000000000000000000000000000000000000600052603260045260246000fd5b60200260200101818152505080806104df90615e9b565b915050610448565b5060006104f48284610514565b14156105055760019250505061050c565b6000925050505b949350505050565b6000807f30644e72e131a029b85045b68181585d2833e84879b9709143e1f593f00000019050600061054461079f565b90508060800151516001865161055a9190615d70565b1461059a576040517f08c379a000000000000000000000000000000000000000000000000000000000815260040161059190615c08565b60405180910390fd5b60006040518060400160405280600081526020016000815250905060005b86518110156106fb57838782815181106105fb577f4e487b7100000000000000000000000000000000000000000000000000000000600052603260045260246000fd5b602002602001015110610643576040517f08c379a000000000000000000000000000000000000000000000000000000000815260040161063a90615c48565b60405180910390fd5b6106e6826106e1856080015160018561065c9190615d70565b81518110610693577f4e487b7100000000000000000000000000000000000000000000000000000000600052603260045260246000fd5b60200260200101518a85815181106106d4577f4e487b7100000000000000000000000000000000000000000000000000000000600052603260045260246000fd5b6020026020010151614a67565b614bb6565b915080806106f390615e9b565b9150506105b8565b5061074b81836080015160008151811061073e577f4e487b7100000000000000000000000000000000000000000000000000000000600052603260045260246000fd5b6020026020010151614bb6565b905061078161075d8660000151614d51565b8660200151846000015185602001518587604001518b604001518960600151614df6565b6107915760019350505050610799565b600093505050505b92915050565b6107a76157e5565b60405180604001604052807f2d4d9aa7e302d9df41749d5507949d05dbea33fbb16c643b22f599a2be6df2e281526020017f14bedd503c37ceb061d8ec60209fe345ce89830a19230301f076caff004d19268152508160000181905250604051806040016040528060405180604001604052807f0967032fcbf776d1afc985f88877f182d38480a653f2decaa9794cbc3bf3060c81526020017f0e187847ad4c798374d0d6732bf501847dd68bc0e071241e0213bc7fc13db7ab815250815260200160405180604001604052807f304cfbd1e08a704a99f5e847d93f8c3caafddec46b7a0d379da69a4d112346a781526020017f1739c1b1a457a8c7313123d24d2f9192f896b7c63eea05a9d57f06547ad0cec88152508152508160200181905250604051806040016040528060405180604001604052807f198e9393920d483a7260bfb731fb5d25f1aa493335a9e71297e485b7aef312c281526020017f1800deef121f1e76426a00665e5c4479674322d4f75edadd46debd5cd992f6ed815250815260200160405180604001604052807f090689d0585ff075ec9e99ad690c3395bc4b313370b38ef355acdadcd122975b81526020017f12c85ea5db8c6deb4aab71808dcb408fe3d1e7690c43d37b4ce6cc0166fa7daa8152508152508160400181905250604051806040016040528060405180604001604052807f296b0055638c2dadba71b4f72e8cf72ed0da7c87ece4fbc8e7acd58b4520ffa481526020017f03414d9b026d673c76eae373cc3d5e6f29b8e38290d0f78bc8449be29cdaaedf815250815260200160405180604001604052807f11a7ebc5c81b8c8a7e0b7165c13c32f95b32aba3a8b38d8abdfb8ccb8138ca3081526020017f1f5d08adbda7fa78fc1a45ee0e0ba31c6d6a6ba8ead0a17b46e661a4974636018152508152508160600181905250606767ffffffffffffffff811115610a94577f4e487b7100000000000000000000000000000000000000000000000000000000600052604160045260246000fd5b604051908082528060200260200182016040528015610acd57816020015b610aba61582c565b815260200190600190039081610ab25790505b50816080018190525060405180604001604052807f29796e846a749dcd734930507d0185716b2acad5431d3e85370ba661f8929a4e81526020017f048e907d498131cc8180ea7aabd3dbefcca4cca7d612ba2655f8caa74fc632af8152508160800151600081518110610b69577f4e487b7100000000000000000000000000000000000000000000000000000000600052603260045260246000fd5b602002602001018190525060405180604001604052807f02bade2ab5b1ade3ec4de452d34c3058a532e6c7cb5550b3bad0a45e54877a3681526020017f2378f290013eabbdcf585b7253032b7e2136fae0abaf1873f67bef468a4ced598152508160800151600181518110610c07577f4e487b7100000000000000000000000000000000000000000000000000000000600052603260045260246000fd5b602002602001018190525060405180604001604052807f27c378d1c6b8f015a8c24e3aa585317ad0abf1de16a2c9e9043a3d3932bd4daa81526020017f2c4bf33473c0fce7adca8b0096f3adefd52089fa540cca3dc8bb37dad3499f558152508160800151600281518110610ca5577f4e487b7100000000000000000000000000000000000000000000000000000000600052603260045260246000fd5b602002602001018190525060405180604001604052807f02c9f242d3a6203e39f04baba8de50e15e9e3bb3a8ba9e3bcb5d8fc17eeed3a781526020017f041ec240c61de56f1f8c0bfbbfcb5e85792696b00ec6fc3e01250dbee850d1398152508160800151600381518110610d43577f4e487b7100000000000000000000000000000000000000000000000000000000600052603260045260246000fd5b602002602001018190525060405180604001604052807f0b586e2cf33d3005e9daeea9c641e7c4e92811f16a511ab710139a6f8975998c81526020017f1420779858bce25bc8da9ab69a8e1cb5901544e718f1d42ea2ebcbcbdf38b4188152508160800151600481518110610de1577f4e487b7100000000000000000000000000000000000000000000000000000000600052603260045260246000fd5b602002602001018190525060405180604001604052807f28d1585d5dba6e6d962f76d34c090f5da503b90217eedcd7dc1baeb751f3db1f81526020017f110f396ec3bbba293177c10f2cafaa74fba7b24966573ecb156965e335704b568152508160800151600581518110610e7f577f4e487b7100000000000000000000000000000000000000000000000000000000600052603260045260246000fd5b602002602001018190525060405180604001604052807f29af5619b8868b3329cb2fedfefb13598f8e371418dfe338645b2ac0e42a3ab481526020017f2e8b790bdb1f9263366464a1f61cb584305d85c03f9a609078ab2dbec76f653a8152508160800151600681518110610f1d577f4e487b7100000000000000000000000000000000000000000000000000000000600052603260045260246000fd5b602002602001018190525060405180604001604052807f2dcb7477faca14a1032bba7c554709c593850aa24055c18b86df4645057f78b481526020017f1b2ff1b88a86b439397fe610f17ada44f1d33348834024e1d843752c7ce20d308152508160800151600781518110610fbb577f4e487b7100000000000000000000000000000000000000000000000000000000600052603260045260246000fd5b602002602001018190525060405180604001604052807f0e4ead8f21a959468bb9896f75cdc8e63ad7d36327b6aa140bc8a5d041c9591281526020017f2784b4b70c4f6fb5743cf5b4f5f2c223836408262d0f603898d23c2f539174e38152508160800151600881518110611059577f4e487b7100000000000000000000000000000000000000000000000000000000600052603260045260246000fd5b602002602001018190525060405180604001604052807f0e0351c6d8e9473d3c6231670bc95f68a2fff080a3fb2b399405232902ee216381526020017f14621f146d6396926e38dfd15fb9dd47ea943fd04f8b277a58aab9939fdc1d4f81525081608001516009815181106110f7577f4e487b7100000000000000000000000000000000000000000000000000000000600052603260045260246000fd5b602002602001018190525060405180604001604052807f0b54c0090e642a6f80e4805e3586f4bc43bfc12c67621742c9b74f5bdf2dc4cf81526020017f0c022d73988f5fc723fecf39fe12cf4d6936701d15da8968b59c053834856d2d8152508160800151600a81518110611195577f4e487b7100000000000000000000000000000000000000000000000000000000600052603260045260246000fd5b602002602001018190525060405180604001604052807f21a11ca35fb39b1091b18180e9410756dfbd77134239b08e76c87de2d6cfbc2e81526020017f1178ce1765e7817c4d6ccc4900956466b6a221fefade887f61ea374b571337418152508160800151600b81518110611233577f4e487b7100000000000000000000000000000000000000000000000000000000600052603260045260246000fd5b602002602001018190525060405180604001604052807f2d76e53b85ba0e328ceccb949f657594cf7dca06669d9c337be0645a17cc37f381526020017f1dcfb6dbf63b33921fa410f73e8103be05e1c1938084e6ff89e43e0fbd22f7bb8152508160800151600c815181106112d1577f4e487b7100000000000000000000000000000000000000000000000000000000600052603260045260246000fd5b602002602001018190525060405180604001604052807f1f5b408de9d2af603a4a6354fb761854cecc21c56f9b2e496fc006100463fe2181526020017f02f86816883ecd88465abd70139d548ba2d34080810a80185ee53d092b3536388152508160800151600d8151811061136f577f4e487b7100000000000000000000000000000000000000000000000000000000600052603260045260246000fd5b602002602001018190525060405180604001604052807f2143eaa9f7823d7a82f246d1a6bb43be437a374c31121c7a39bbf6651287160781526020017f2521042bac1aebe442cf88bc8c023d2c701b223b971f953b90418a9d772f46e88152508160800151600e8151811061140d577f4e487b7100000000000000000000000000000000000000000000000000000000600052603260045260246000fd5b602002602001018190525060405180604001604052807f22a584fa75c9793d9713ffd130d962e4b27a35013751113ad8c7b27dcfb86d2d81526020017f09bf9922b3045386467e1e9466dd55a5b1d0ada578b8363eb28489c6b7025f248152508160800151600f815181106114ab577f4e487b7100000000000000000000000000000000000000000000000000000000600052603260045260246000fd5b602002602001018190525060405180604001604052807f13d2aa7943f908f21d7e3af189455d1c5a9cbc0684958be483daf37e99b9231181526020017f1ff5d37d4f31f3b0a5f3817c54de43f61558d573977bcc35f87a5836a701aa6c8152508160800151601081518110611549577f4e487b7100000000000000000000000000000000000000000000000000000000600052603260045260246000fd5b602002602001018190525060405180604001604052807f1171c8de8ca6a0266380748c0fb4a1b9bdd679df995e960bf275f8c9de12fcc381526020017f1fc676e336f81e4fb5c8a1fd75d35850281a0930b36e3fe79b29139d66bfd59481525081608001516011815181106115e7577f4e487b7100000000000000000000000000000000000000000000000000000000600052603260045260246000fd5b602002602001018190525060405180604001604052807f0d6e2afa674077fb3b2558375c128d8076a0dc9458bc55d2d2d7c446a3afe4cd81526020017f28aeeea230c8bb3104394e906579994c5edf82e84919c86e267ba7a4777723918152508160800151601281518110611685577f4e487b7100000000000000000000000000000000000000000000000000000000600052603260045260246000fd5b602002602001018190525060405180604001604052807f100022d40483d31d6a34a4ae44513613e361210e0862a915a161159dc308930281526020017f02bd7b6cb51b40f19915141efff8dfcec1d4b91f2ed793cd7f4cc8f87f0ee5558152508160800151601381518110611723577f4e487b7100000000000000000000000000000000000000000000000000000000600052603260045260246000fd5b602002602001018190525060405180604001604052807f2e84a0c542ad98801eec77e733fcf7fcb98dff04315ed2675c0b15d983eb546381526020017ed2ea15f0fc2fdb5f755fa3cf4ca5d5e975932c3169950e094274979efa608a81525081608001516014815181106117c0577f4e487b7100000000000000000000000000000000000000000000000000000000600052603260045260246000fd5b602002602001018190525060405180604001604052807f26689f5a417e0d8b598492e94bb46f22c9550b8494eb2d1ff6f632881603ccd381526020017f137eddf34bf5da42e5483c565194d5ab207c9b0c29d1afe8f7dc67c57a63522e815250816080015160158151811061185e577f4e487b7100000000000000000000000000000000000000000000000000000000600052603260045260246000fd5b602002602001018190525060405180604001604052807f0d78696ab4ce2c0e83c04bc3db32bb42b9fa75d3e7eac11ae1db113ecae719f181526020017f12d1e956daa7e71280c1d58faaa334e96e8a502a4e5e455ffa30edda58868ea581525081608001516016815181106118fc577f4e487b7100000000000000000000000000000000000000000000000000000000600052603260045260246000fd5b602002602001018190525060405180604001604052807f2061b2c0e4334e2044c73d96511f0c8e313358840dccefe339817faa6a1288d781526020017f23bf096bac8aa662364d718b4b3476579a786f4c8f2b2dcd268c3c82873ab675815250816080015160178151811061199a577f4e487b7100000000000000000000000000000000000000000000000000000000600052603260045260246000fd5b602002602001018190525060405180604001604052807f16b2ca3bc5fc62dc4b84e9e61c7818fdce30a8c94519a1ce859b642100b9bd2481526020017f10cef99c15c177ed2ae65d83939a9cc9d2c3dc7ab061d87e3fa9aa2be21193cb8152508160800151601881518110611a38577f4e487b7100000000000000000000000000000000000000000000000000000000600052603260045260246000fd5b602002602001018190525060405180604001604052807f0e4a9ebe4c9f81cae4202a82f6c8188fcd4ef806019a72dc5eddbca1566285a281526020017f1ce9e8201f29dd862c4b3d773419a4deeaddcd0e40f0a87cc4ba3903cb5276bb8152508160800151601981518110611ad6577f4e487b7100000000000000000000000000000000000000000000000000000000600052603260045260246000fd5b602002602001018190525060405180604001604052807f134e76dfcf5e2a9a088f20552070268686addf94a388239d37b0925b78a9b83881526020017f02b480cce675c3bb4d8350fd6c2b013d24d0c1527e4c4a764ce1ca862c5d5d638152508160800151601a81518110611b74577f4e487b7100000000000000000000000000000000000000000000000000000000600052603260045260246000fd5b602002602001018190525060405180604001604052807f23f2b27de23fe472bb1479092accf5b1bf81d7e8f3aab7b1720d37f8a3004fdf81526020017f2f3a6b5abc5c259c024f2cb68d426e5ad755003cd9b48f7eb691421e98cd05ab8152508160800151601b81518110611c12577f4e487b7100000000000000000000000000000000000000000000000000000000600052603260045260246000fd5b602002602001018190525060405180604001604052807f1e9f2a3552d57d5a5568b5d39596de5e61b2b1dc351cc863b476203d68979fff81526020017f05d1a46cf93be588d47e1d96c48bfb392aac0256818646983cdcda7cbf4d71ad8152508160800151601c81518110611cb0577f4e487b7100000000000000000000000000000000000000000000000000000000600052603260045260246000fd5b602002602001018190525060405180604001604052807f069a23335b643131bda3fed8eb20dba9fe48b1db63eeb87f7f59dc78161b8a5681526020017f164fe9f8ea35a6645563671b6942485102ca3b7d4f985f404dafa74707191c498152508160800151601d81518110611d4e577f4e487b7100000000000000000000000000000000000000000000000000000000600052603260045260246000fd5b602002602001018190525060405180604001604052807f223ed3bddc9c964876093488f24c81b1a2bec07dbb9505fe595e6407af01f95b81526020017f0f75d5a2a141a758d4f7c757be6f0a068e1ff547d74a6a551703e570c65b9a008152508160800151601e81518110611dec577f4e487b7100000000000000000000000000000000000000000000000000000000600052603260045260246000fd5b602002602001018190525060405180604001604052807f2885c80b9c36a5e97fc4dc007f942d4073613c4427d2ba36608ce575788e1c9181526020017f213b5be1a2c321c63cd3245b53c297f07cc0385281879f10b49057f4c451b87a8152508160800151601f81518110611e8a577f4e487b7100000000000000000000000000000000000000000000000000000000600052603260045260246000fd5b602002602001018190525060405180604001604052807f03e6f3c950e2395d90710813c4b36a6535a30e06712c442c0b4cdaafc894fc5481526020017f0a2b23093de860a54b4543ee90b9f661a14195bf017aac718941fab3611738c28152508160800151602081518110611f28577f4e487b7100000000000000000000000000000000000000000000000000000000600052603260045260246000fd5b602002602001018190525060405180604001604052807f20037d38bd0d26d76514e76a0564287b20ce50543de6935a6b87f9679c2e29cc81526020017f038de38a1b7602c0dd645224dd27e9320a63556458f9a8248a81ebf059e6bbde8152508160800151602181518110611fc6577f4e487b7100000000000000000000000000000000000000000000000000000000600052603260045260246000fd5b602002602001018190525060405180604001604052807f28150e2842dd17a9e0c3ab4b88c73f6730e68bb82ae5be7068df23aa54d0af7c81526020017f2c08890979b69a1d777037da7150dca1757b95014979099b9970646a09831c838152508160800151602281518110612064577f4e487b7100000000000000000000000000000000000000000000000000000000600052603260045260246000fd5b602002602001018190525060405180604001604052807f168be867a9a3fc48483985b576802071334453f25ac3955231e57295f5b9888581526020017f14b5390f4301ec41d8999c5d731f8cc421ad64563bede9c8da9471e42d65185a8152508160800151602381518110612102577f4e487b7100000000000000000000000000000000000000000000000000000000600052603260045260246000fd5b602002602001018190525060405180604001604052807f2056dc0958cb2d13f45f267534e925e41264a3824c2152eb58c2eeb2a473469e81526020017f21833900ede9d4954078a9d750f8a1075f81dfbae0582a009ea5440d2e1ff30e81525081608001516024815181106121a0577f4e487b7100000000000000000000000000000000000000000000000000000000600052603260045260246000fd5b602002602001018190525060405180604001604052807e09a5405a2cf12729d1558b1082c8935e97340ab82cf2cf4980d601985fe91c81526020017f1d647ae71eb8163f110f001939b65307161cf075e7852e8794a9a0a6da8a5da2815250816080015160258151811061223d577f4e487b7100000000000000000000000000000000000000000000000000000000600052603260045260246000fd5b602002602001018190525060405180604001604052807f25c317a0f03425ab1f1f0e2ea5832083143a5a40568e421e46fcd6de9cd4d06a81526020017f1c777ecbf0cf713ecb6b36e208a47c0915e98b552c6b48e01f8f8aed9ab2930881525081608001516026815181106122db577f4e487b7100000000000000000000000000000000000000000000000000000000600052603260045260246000fd5b602002602001018190525060405180604001604052807f2dbe9ca88898eaad2889edf875297633e65c510a24b1f6c4b032a0da5c95138581526020017f155483c93e8a0165e71bd0c260ea7e298d4796b548392f7022cdf168b7e52fac8152508160800151602781518110612379577f4e487b7100000000000000000000000000000000000000000000000000000000600052603260045260246000fd5b602002602001018190525060405180604001604052807f129f0ff79977f94b064f338827bb399b529e75ed7994ce11489f6133a210847181526020017f025e46b2b18b59118e3dfd90b9f29b1e39dfb9cc5a04d2caf96178e5e573fb658152508160800151602881518110612417577f4e487b7100000000000000000000000000000000000000000000000000000000600052603260045260246000fd5b602002602001018190525060405180604001604052807f2fbf05e03f7a711f38072df42e44efdb96fcad3fcab16601253e930ecca23ef181526020017f25203b33f142f4c49cec661315552cd67ac42da5115691c76437a6d9f2155c3581525081608001516029815181106124b5577f4e487b7100000000000000000000000000000000000000000000000000000000600052603260045260246000fd5b602002602001018190525060405180604001604052807f20f81e468e4a84d12c4b612f5d96eff9e817881131d0beb06ac536b13689f42981526020017f21cf4a68b378ac3af736fe56b30b4996e7d766663419297c1bc5e5604cc6faea8152508160800151602a81518110612553577f4e487b7100000000000000000000000000000000000000000000000000000000600052603260045260246000fd5b602002602001018190525060405180604001604052807f095c05a804f4c9d68654e31deab6ff11f6a94105b9150ec0e30a96a4b8792a0781526020017f1dece945b270a6a57c35444db708710a68df24b3c296dcb0cd85e000d1c47d6a8152508160800151602b815181106125f1577f4e487b7100000000000000000000000000000000000000000000000000000000600052603260045260246000fd5b602002602001018190525060405180604001604052807f2186f6df764cd6397e38932bcc5bf1276b14bede303073e8dd3fdc13cb247b4d81526020017f1965b60459c26048a209efecca5a1404b04d5f30d425815b3fc67583a2bc36128152508160800151602c8151811061268f577f4e487b7100000000000000000000000000000000000000000000000000000000600052603260045260246000fd5b602002602001018190525060405180604001604052807f0a447b040a3dc6be32d08c6c8c6de350dcda39834799fb3eef52ce1733351b9181526020017f2e7faa62b9a86f0021883c7bfb07ef9c8baf7c33feb03ae46066a443febcf8aa8152508160800151602d8151811061272d577f4e487b7100000000000000000000000000000000000000000000000000000000600052603260045260246000fd5b602002602001018190525060405180604001604052807f0b588990b4cc0dd587dca13b2258b9731c19d60ed8d42556cac702f9838dc48a81526020017f0e30de37b599343c2fccf35ced8c105c9c7d0c42bf71fac68f9c94113d4284858152508160800151602e815181106127cb577f4e487b7100000000000000000000000000000000000000000000000000000000600052603260045260246000fd5b602002602001018190525060405180604001604052807f25a2ae564d55e15657da7a6afe3fed7659d6a1ea260a0e06701646f3714df8c681526020017f0a80bb02e9c81d0f2c3c3fdf65a0bbfff9506c9bd98b2b0b56766790363824d08152508160800151602f81518110612869577f4e487b7100000000000000000000000000000000000000000000000000000000600052603260045260246000fd5b602002602001018190525060405180604001604052807f157edaebaedb7fb80c24c77b09f2f9d21824c499d450cd790212dcbd20cb19ba81526020017f2573aa1bf4a3ad0b5db2643c5a336c180294cf45173c54eb866e96320e076c8d8152508160800151603081518110612907577f4e487b7100000000000000000000000000000000000000000000000000000000600052603260045260246000fd5b602002602001018190525060405180604001604052807f0dc200d7889ef7668d0d78769f1ca1e0d9b16f2afc031eb22674635ff1bb4acb81526020017f18e06bae3c0af6d0a1642a8db6cdc04969211cd707cde63fddb6084f5b77f6b381525081608001516031815181106129a5577f4e487b7100000000000000000000000000000000000000000000000000000000600052603260045260246000fd5b602002602001018190525060405180604001604052807f24aa3ba0370275105bf3261edf63b348a9c086e6406ae235a01b1d5f5ea86a3481526020017f123e736a38532c84fd46438a4daae54cf384c87c2a7448fafaf888630b59401c8152508160800151603281518110612a43577f4e487b7100000000000000000000000000000000000000000000000000000000600052603260045260246000fd5b602002602001018190525060405180604001604052807f080a3007b9af317b89fff488a3a3cef6ef16c2d67023f704905951e946fcc9a381526020017f0520afb5e90ee53c569f0fd7ed63946c3ce2514ec35e8796a3f896378339383f8152508160800151603381518110612ae1577f4e487b7100000000000000000000000000000000000000000000000000000000600052603260045260246000fd5b602002602001018190525060405180604001604052807f2a14272594f8f54348712330a23196194b64350a3af47594a688b29034fdef7b81526020017f2324d633d76e736c6b1c148df9e62babb73c74b8bcc6ce9b9cdf808e7df0b6158152508160800151603481518110612b7f577f4e487b7100000000000000000000000000000000000000000000000000000000600052603260045260246000fd5b602002602001018190525060405180604001604052807f17e72ca527cab08b689bc1136db470b54ff143cd3a5de28ba726871f15750bef81526020017f07afce5923876850af7f7316ebaad412fc9fe878f7e5b6ec84530bd3bb30380f8152508160800151603581518110612c1d577f4e487b7100000000000000000000000000000000000000000000000000000000600052603260045260246000fd5b602002602001018190525060405180604001604052807f1ab4be8e823dff613814606dea29b8594a6213b8c87c1e5ec95cd9d8c871125e81526020017f2b740654c51521bb8faeb3745b28a524dfdbb3cc3ce9250f8d802c27f40792118152508160800151603681518110612cbb577f4e487b7100000000000000000000000000000000000000000000000000000000600052603260045260246000fd5b602002602001018190525060405180604001604052807f0491ee1a4d9280e93b25e450c4a34ba85764afbe552b581efb427c210bf65e8981526020017f084a7a59b297324c3e225639d0569cde0f4e3f73aee463179e4261a3475261bd8152508160800151603781518110612d59577f4e487b7100000000000000000000000000000000000000000000000000000000600052603260045260246000fd5b602002602001018190525060405180604001604052807f2d158c060537018039a7f322be07bf60d05bcce10e11ce3e290257a7759eeb3381526020017f1f81df9ea1ea71527a5fe8a127327613a5882461949eefaa8e60a2f63b06fd4d8152508160800151603881518110612df7577f4e487b7100000000000000000000000000000000000000000000000000000000600052603260045260246000fd5b602002602001018190525060405180604001604052807f088e143679b45db54437a22c79e591a9f863f047e8450a7d54fdafdaf6e11b1581526020017f0e6b9872724759d3d97d99b83e923132dd2b1e35b34f0a256a82c1241e217d6c8152508160800151603981518110612e95577f4e487b7100000000000000000000000000000000000000000000000000000000600052603260045260246000fd5b602002602001018190525060405180604001604052807f1a222b587aee248d5bcac72594acf4c361eb9e15161737fc25e4bf7ccd5dd91a81526020017f2e8f9ef18e1f2d70313e987739493c27ed3139ca14af3a2abba55f6ce5010f3c8152508160800151603a81518110612f33577f4e487b7100000000000000000000000000000000000000000000000000000000600052603260045260246000fd5b602002602001018190525060405180604001604052807f2ab898ed251131ee539679597dec5e328a6597d75222084de485db0613498c5181526020017f2d78e473e892abe8226439110a0d0c14d6325b4d553ba8660a0a791a9b22b3878152508160800151603b81518110612fd1577f4e487b7100000000000000000000000000000000000000000000000000000000600052603260045260246000fd5b602002602001018190525060405180604001604052807f16528be4782ddef2caa67f01afd514d72c239f22acab6fefb02172cb1e18cdd981526020017e35281393e049aa3eef211bf042e229ee586dd432643e1d5072bd4a4e0887b88152508160800151603c8151811061306e577f4e487b7100000000000000000000000000000000000000000000000000000000600052603260045260246000fd5b602002602001018190525060405180604001604052807f1d4338696ad7e732c5205c93d5896f794b0909588319914ae0dd9e78622a9aa381526020017f034c082448b2a0010928e69fe31d8064298834e1264607f3068660ae4731efc28152508160800151603d8151811061310c577f4e487b7100000000000000000000000000000000000000000000000000000000600052603260045260246000fd5b602002602001018190525060405180604001604052807f2113e011908c5b043a343df00e47ab58c64b3ae53a6c2e55b2bac4bffae32b0881526020017f21f9696e2fb66b4cd50893be00330b56687ba527226e906b1a4bb97f6261fe788152508160800151603e815181106131aa577f4e487b7100000000000000000000000000000000000000000000000000000000600052603260045260246000fd5b602002602001018190525060405180604001604052807f0d5ed762711e6546f0d1326556504cb6533871d4f0d25645d6da8e8ed7361c6281526020017f29f9e8822cdf8b8c527db3346f0dbf5365b024c0a3c5c65149d6e6305f91b5508152508160800151603f81518110613248577f4e487b7100000000000000000000000000000000000000000000000000000000600052603260045260246000fd5b602002602001018190525060405180604001604052807f0e53649fd1047f50f3caeabca07c1377908ba5b32353517174dca0683ffbb28881526020017f1b8cc14e911280a6ee992e917c9ccb9dd93caa8b859756d8b06e45a92a71165c81525081608001516040815181106132e6577f4e487b7100000000000000000000000000000000000000000000000000000000600052603260045260246000fd5b602002602001018190525060405180604001604052807f2246d08f8d7032c85a318b1a3a3dede719d6c4cb816651bed96bbae66e9ec70681526020017f305411fdebba10f788775f7ad9011a1da66b18a44c1e6b247bbaaf20f49e6bae8152508160800151604181518110613384577f4e487b7100000000000000000000000000000000000000000000000000000000600052603260045260246000fd5b602002602001018190525060405180604001604052807f028e640966b3f043e4dd75ebcf1ede7ef14686d96b34501a3cc7293d8d3b7e4081526020017f17d9e9e3547d516d5ed92b45ad7a8012537a32112b25e023c4a0aaa86ef928428152508160800151604281518110613422577f4e487b7100000000000000000000000000000000000000000000000000000000600052603260045260246000fd5b602002602001018190525060405180604001604052807f1c3f51d4084e0986e3d11bd446cc103f1f8c15ea3b0f8f7b624d8d0e381f256681526020017f24e4b94a2faa6a5cd5784dd00a726d487c201b1a1b46ea0f6adc6b0aff23aad981525081608001516043815181106134c0577f4e487b7100000000000000000000000000000000000000000000000000000000600052603260045260246000fd5b602002602001018190525060405180604001604052807f0318ebd38bdf8e7147461846fc66b22a7c32b1284ed55a86a9c9f6f4e897a3ad81526020017f2523390a75f5f69a9c24127ad2ef9faad4dba65ca2fcd1528e437bc2c06061ab815250816080015160448151811061355e577f4e487b7100000000000000000000000000000000000000000000000000000000600052603260045260246000fd5b602002602001018190525060405180604001604052807f29d42c8783b3891cc60b9388837090cd1a16d47dbcbff1c3fb1fa37bbf3b3cb081526020017f0ee0126ee1773c3f2cf8f254983ec8ed938294a251b4b19c7d754ed3ec074a4c81525081608001516045815181106135fc577f4e487b7100000000000000000000000000000000000000000000000000000000600052603260045260246000fd5b602002602001018190525060405180604001604052807f15114e9fbd4872596ddd96cc3a99f9fef3b46473c21e079e8ccf37a38357cf1181526020017f04237469a5657edbe704f5f2d992b1bfd3f3c0a5942766416632b9c771f68dab815250816080015160468151811061369a577f4e487b7100000000000000000000000000000000000000000000000000000000600052603260045260246000fd5b602002602001018190525060405180604001604052807f2fd87762c626c6f4cf152f0aa07339ba6f5b1570f830c1dbf355d1ec922f80c581526020017f216562db7b1716c54cff25fc0309ca1a8d480168e71a9346f0dcdd0d186016078152508160800151604781518110613738577f4e487b7100000000000000000000000000000000000000000000000000000000600052603260045260246000fd5b602002602001018190525060405180604001604052807f151f3e00c3301c0aeaa603f10fcedcd4c436e86533a18bcaefeabacdf3f6365781526020017f057b646bcc1a80904878e33adfcdcacd795f95ce00ac036cacc7eb2729d2b7cf81525081608001516048815181106137d6577f4e487b7100000000000000000000000000000000000000000000000000000000600052603260045260246000fd5b602002602001018190525060405180604001604052807f1e97947c4ceff7d1121de817dbaf38751359ce29d39f603cec8f1d2b33352ab881526020017f039417e10dd19af88e776fc413915d59496012769c9ac1450c2507089c4e9dd98152508160800151604981518110613874577f4e487b7100000000000000000000000000000000000000000000000000000000600052603260045260246000fd5b602002602001018190525060405180604001604052807f20c97849f24e390d3cde6a4b8e75d1cecf47fbf08d85d43dd7005d21480367ca81526020017f029702a226be2a77b6cd5beccf4f499b6d68fe3915dc6b346ba89f93f58bd2b38152508160800151604a81518110613912577f4e487b7100000000000000000000000000000000000000000000000000000000600052603260045260246000fd5b602002602001018190525060405180604001604052807f027d36b0f40ef2acfa5061f4d2a4a51e6b8b3e58018ad3b89c4f48e495d396b381526020017f11999a2078dcc2835f2a8c7bbfc19c57239351ad5f2fa57fa5f8da94e8c55eb48152508160800151604b815181106139b0577f4e487b7100000000000000000000000000000000000000000000000000000000600052603260045260246000fd5b602002602001018190525060405180604001604052807f295d6e21e84acc99e078cb8dc48d809e08047fdb9306ec15447142e4a6da009a81526020017f1bfa6ff8ef804acb6f3ced122e530ffb93b3ed0e2f2e79240b1440505c734ea48152508160800151604c81518110613a4e577f4e487b7100000000000000000000000000000000000000000000000000000000600052603260045260246000fd5b602002602001018190525060405180604001604052807f0221b6650471efe73f800479e7d5ef58b6d976ce72b3666792298d0b79f4852a81526020017f27b48b31371cf0920ecd1c2abc8c38c40e1030375297652f1a8a24f4001941898152508160800151604d81518110613aec577f4e487b7100000000000000000000000000000000000000000000000000000000600052603260045260246000fd5b602002602001018190525060405180604001604052807ee46dbf6d71a2171df9bebada84c8239ce96d5250fa177941bbdbee5bafc28481526020017f21d157a5c3c1bde7c38a33e53ce2637c515e3e6e2354896c7a7b25e5db6077f18152508160800151604e81518110613b89577f4e487b7100000000000000000000000000000000000000000000000000000000600052603260045260246000fd5b602002602001018190525060405180604001604052807f1dec0d85eb9159106da37698a3be812cb5a90a1a1b4231e64fc0a0d4ea87e35c81526020017f13d524d446e57c8cc859b9851179dd23c16a2d543aa83325f42f467dbbd7257f8152508160800151604f81518110613c27577f4e487b7100000000000000000000000000000000000000000000000000000000600052603260045260246000fd5b602002602001018190525060405180604001604052807f2a594aac9d63adbe7408db9a58c91f20e8c72f88440d9c672362f38b0dc6566281526020017f027709366e71ebb61ef78d552b760063e89dde9e00914e13b76f324d7c14dc748152508160800151605081518110613cc5577f4e487b7100000000000000000000000000000000000000000000000000000000600052603260045260246000fd5b602002602001018190525060405180604001604052807f206f2d07c8e39fa4c8006c8cca145e6b5ae906be63edb1b8f1ef6882c291fd8481526020017f2a91ee6372d224f0a441026595b55b177749037da3b2e30dffe55b6718cc2bec8152508160800151605181518110613d63577f4e487b7100000000000000000000000000000000000000000000000000000000600052603260045260246000fd5b602002602001018190525060405180604001604052807f1f9f8c303d61b0d36fae5cf5e7cc4ce16571dfe1d5a8587355d68a317efbfe9e81526020017f2ebb01d91ab9ed2104297edff1a2f0bf647e017c1b72b0ab1db4db1d0430d2208152508160800151605281518110613e01577f4e487b7100000000000000000000000000000000000000000000000000000000600052603260045260246000fd5b602002602001018190525060405180604001604052807f2c9fe4766cd0552e3283b935605d8835520b262b9b19c1e2107a4745152936db81526020017f2af7908997b91aff66a29d00b3e1e91686fb925804692e4ca99a0781eb945b188152508160800151605381518110613e9f577f4e487b7100000000000000000000000000000000000000000000000000000000600052603260045260246000fd5b602002602001018190525060405180604001604052807f294e07d402984e773f25f66727cd05df24f992e9dcafb421340343d42d7515cc81526020017f28cc20292cb4e875d474ca8a940b0040335f773e9d1dcf0a30b897604bc561568152508160800151605481518110613f3d577f4e487b7100000000000000000000000000000000000000000000000000000000600052603260045260246000fd5b602002602001018190525060405180604001604052807f13f5bb7498dd0bcf617231d7f71bab2c4e799dea6703694b4793829a2f51e9d781526020017f03163cc05165d4fb93464b2a80f76347ec2f384305b9ce91687522835d86f8048152508160800151605581518110613fdb577f4e487b7100000000000000000000000000000000000000000000000000000000600052603260045260246000fd5b602002602001018190525060405180604001604052807f0fa3b1d0e44622188ee81434b8ef53e7a22e2e08a5181b1d0ca2fa6338e289c681526020017f03b53207b90f9bd529f6c278366f576811f8a41b1f9fe030ec3341ac0052d58d8152508160800151605681518110614079577f4e487b7100000000000000000000000000000000000000000000000000000000600052603260045260246000fd5b602002602001018190525060405180604001604052807f1888faf3dedcd2b953473aed6290a7a95892c704cb886db676b3f9eefb0aaf7781526020017f2c87a332293b04818f1373c6275331543b5f38adbe274859114a7c04f8d6a6cc8152508160800151605781518110614117577f4e487b7100000000000000000000000000000000000000000000000000000000600052603260045260246000fd5b602002602001018190525060405180604001604052807f231d4da933be6c41d1e2fa85d51ffac56f08ad9735afcdc4db8f96c535f294dd81526020017f01766c82a59e782687ac788841043dd2c391fb10b44541cd4dba30a6b931b29a81525081608001516058815181106141b5577f4e487b7100000000000000000000000000000000000000000000000000000000600052603260045260246000fd5b602002602001018190525060405180604001604052807f09b2409e0b20822941af67cd430eed2b29804f0aa45c314d2c85a4be99a364eb81526020017f270de143830058864fb0d5cab0a8e05d4aaa945abe905ef286c63142b1a232a58152508160800151605981518110614253577f4e487b7100000000000000000000000000000000000000000000000000000000600052603260045260246000fd5b602002602001018190525060405180604001604052807f104dead0fc29d76cd6de1a5a549277068270cb4015298d921661f8199200a8ae81526020017f0aa649111c5f6f7c159ac0a274287bb11752c10f747c8e45fcc27349201e24028152508160800151605a815181106142f1577f4e487b7100000000000000000000000000000000000000000000000000000000600052603260045260246000fd5b602002602001018190525060405180604001604052807f205bfc79cb4e8e493b52456959bb8181646de258cf9a90191c773ec905f83c3781526020017f133ffaa19820cce646d13f261af765113ab6fca3237fde1b13ab08298d367ece8152508160800151605b8151811061438f577f4e487b7100000000000000000000000000000000000000000000000000000000600052603260045260246000fd5b602002602001018190525060405180604001604052807f1de6e818307095b3516b5ac1d3b0a8ca6971fc923acb14d9d5bdfdccd510584781526020017f212a82d277f41acf1770544c9bb21d8daf43b5aa61e6560f718eb6d066a132788152508160800151605c8151811061442d577f4e487b7100000000000000000000000000000000000000000000000000000000600052603260045260246000fd5b602002602001018190525060405180604001604052807f1758c329b8c8f285cd143a7f742ab5f72681a30af9638b484d0b609fa16dba3381526020017f2a3f507a43aa1007c95e90710396958e2b683971301d40c94dacd57deba287c98152508160800151605d815181106144cb577f4e487b7100000000000000000000000000000000000000000000000000000000600052603260045260246000fd5b602002602001018190525060405180604001604052807f0159e23cb930eff47e82d165bb1fbd30833a0ea2c31a08cd8a0ecdcfe37363d981526020017f04a09552acf80ad6f65eb6dbb35131d548a8427e9c9a6d94cb8c8f2f6e7dbe8d8152508160800151605e81518110614569577f4e487b7100000000000000000000000000000000000000000000000000000000600052603260045260246000fd5b602002602001018190525060405180604001604052807f2dd012369cc7cd964b075b486432b3edba2e5d6cfab5a3899c8ef3544f98cfe181526020017f165df1d4d0a1c866fe74fdc13a64e93ac95a1b81628a12c122e84d402300e42d8152508160800151605f81518110614607577f4e487b7100000000000000000000000000000000000000000000000000000000600052603260045260246000fd5b602002602001018190525060405180604001604052807f17920821abfb661d6e3a48acebbcc939aad2fa80f042f5119ad61688bf3e3e7981526020017f03f9abb38381d7767fedd26556f1634da1e31b87b02750d6d46bcd4e899170d781525081608001516060815181106146a5577f4e487b7100000000000000000000000000000000000000000000000000000000600052603260045260246000fd5b602002602001018190525060405180604001604052807f09646bb2e0dd61491076ea5c3906e30367919331dad02c34a2e26214476a157a81526020017f09ac01c381ebe64361c521f7e6e6f0a89c62c4b7b2353898ca411cb9516959a28152508160800151606181518110614743577f4e487b7100000000000000000000000000000000000000000000000000000000600052603260045260246000fd5b602002602001018190525060405180604001604052807f13b5953b4ca80e7b6ca88f7328ade0820cb68950ecf60fe66cd98d49d3e6fda181526020017f2cb4e95b9c90f81eab0e734a0000a07d02dc9932cc69e5c5442cc7586f78591981525081608001516062815181106147e1577f4e487b7100000000000000000000000000000000000000000000000000000000600052603260045260246000fd5b602002602001018190525060405180604001604052807f2805aa50f2bc5c3feb8c0ceac9193e886909b0509b73cb2850165aa8fc835e8081526020017f10137839fea352db616d993d980e6e0e1d7f85877cf81359fba75c149b26f12f815250816080015160638151811061487f577f4e487b7100000000000000000000000000000000000000000000000000000000600052603260045260246000fd5b602002602001018190525060405180604001604052807f2e39297b06be560e820979f6bf3e357df6521fcb8f6d181bb62d485fa0010daa81526020017f2b50ebb4469a1b52e7d16282a84287291e880c35da7da0140a83aa1c9e981412815250816080015160648151811061491d577f4e487b7100000000000000000000000000000000000000000000000000000000600052603260045260246000fd5b602002602001018190525060405180604001604052807f052b05e56d12c7eb8db385f222f92b9d9cea5f119f6dd4aa6aac81e9d1116c1c81526020017f13f74c389cb66728d2d9ae6c4d5448ff143603100742f9f7bea56562f0511a0c81525081608001516065815181106149bb577f4e487b7100000000000000000000000000000000000000000000000000000000600052603260045260246000fd5b602002602001018190525060405180604001604052807f038dd8610d26eac884a83d3eedbd611bc010d9918e5f18325fa8d3b6e377749881526020017f17ac4cb2cc32ecb587a319ac1b263d799be4209436ad14773a422685f11a28448152508160800151606681518110614a59577f4e487b7100000000000000000000000000000000000000000000000000000000600052603260045260246000fd5b602002602001018190525090565b614a6f61582c565b614a77615846565b836000015181600060038110614ab6577f4e487b7100000000000000000000000000000000000000000000000000000000600052603260045260246000fd5b602002018181525050836020015181600160038110614afe577f4e487b7100000000000000000000000000000000000000000000000000000000600052603260045260246000fd5b6020020181815250508281600260038110614b42577f4e487b7100000000000000000000000000000000000000000000000000000000600052603260045260246000fd5b602002018181525050600060608360808460076107d05a03fa90508060008114614b6b57614b6d565bfe5b5080614bae576040517f08c379a0000000000000000000000000000000000000000000000000000000008152600401614ba590615c28565b60405180910390fd5b505092915050565b614bbe61582c565b614bc6615868565b836000015181600060048110614c05577f4e487b7100000000000000000000000000000000000000000000000000000000600052603260045260246000fd5b602002018181525050836020015181600160048110614c4d577f4e487b7100000000000000000000000000000000000000000000000000000000600052603260045260246000fd5b602002018181525050826000015181600260048110614c95577f4e487b7100000000000000000000000000000000000000000000000000000000600052603260045260246000fd5b602002018181525050826020015181600360048110614cdd577f4e487b7100000000000000000000000000000000000000000000000000000000600052603260045260246000fd5b602002018181525050600060608360c08460066107d05a03fa90508060008114614d0657614d08565bfe5b5080614d49576040517f08c379a0000000000000000000000000000000000000000000000000000000008152600401614d4090615c88565b60405180910390fd5b505092915050565b614d5961582c565b60007f30644e72e131a029b85045b68181585d97816a916871ca8d3c208c16d87cfd47905060008360000151148015614d96575060008360200151145b15614dba576040518060400160405280600081526020016000815250915050614df1565b604051806040016040528084600001518152602001828560200151614ddf9190615ee4565b83614dea9190615e20565b8152509150505b919050565b600080600467ffffffffffffffff811115614e3a577f4e487b7100000000000000000000000000000000000000000000000000000000600052604160045260246000fd5b604051908082528060200260200182016040528015614e7357816020015b614e6061582c565b815260200190600190039081614e585790505b5090506000600467ffffffffffffffff811115614eb9577f4e487b7100000000000000000000000000000000000000000000000000000000600052604160045260246000fd5b604051908082528060200260200182016040528015614ef257816020015b614edf61588a565b815260200190600190039081614ed75790505b5090508a82600081518110614f30577f4e487b7100000000000000000000000000000000000000000000000000000000600052603260045260246000fd5b60200260200101819052508882600181518110614f76577f4e487b7100000000000000000000000000000000000000000000000000000000600052603260045260246000fd5b60200260200101819052508682600281518110614fbc577f4e487b7100000000000000000000000000000000000000000000000000000000600052603260045260246000fd5b60200260200101819052508482600381518110615002577f4e487b7100000000000000000000000000000000000000000000000000000000600052603260045260246000fd5b60200260200101819052508981600081518110615048577f4e487b7100000000000000000000000000000000000000000000000000000000600052603260045260246000fd5b6020026020010181905250878160018151811061508e577f4e487b7100000000000000000000000000000000000000000000000000000000600052603260045260246000fd5b602002602001018190525085816002815181106150d4577f4e487b7100000000000000000000000000000000000000000000000000000000600052603260045260246000fd5b6020026020010181905250838160038151811061511a577f4e487b7100000000000000000000000000000000000000000000000000000000600052603260045260246000fd5b602002602001018190525061512f828261513f565b9250505098975050505050505050565b60008151835114615185576040517f08c379a000000000000000000000000000000000000000000000000000000000815260040161517c90615c68565b60405180910390fd5b600083519050600060068261519a9190615dc6565b905060008167ffffffffffffffff8111156151de577f4e487b7100000000000000000000000000000000000000000000000000000000600052604160045260246000fd5b60405190808252806020026020018201604052801561520c5781602001602082028036833780820191505090505b50905060005b838110156156f157868181518110615253577f4e487b7100000000000000000000000000000000000000000000000000000000600052603260045260246000fd5b60200260200101516000015182600060068461526f9190615dc6565b6152799190615d70565b815181106152b0577f4e487b7100000000000000000000000000000000000000000000000000000000600052603260045260246000fd5b6020026020010181815250508681815181106152f5577f4e487b7100000000000000000000000000000000000000000000000000000000600052603260045260246000fd5b6020026020010151602001518260016006846153119190615dc6565b61531b9190615d70565b81518110615352577f4e487b7100000000000000000000000000000000000000000000000000000000600052603260045260246000fd5b602002602001018181525050858181518110615397577f4e487b7100000000000000000000000000000000000000000000000000000000600052603260045260246000fd5b6020026020010151600001516000600281106153dc577f4e487b7100000000000000000000000000000000000000000000000000000000600052603260045260246000fd5b60200201518260026006846153f19190615dc6565b6153fb9190615d70565b81518110615432577f4e487b7100000000000000000000000000000000000000000000000000000000600052603260045260246000fd5b602002602001018181525050858181518110615477577f4e487b7100000000000000000000000000000000000000000000000000000000600052603260045260246000fd5b6020026020010151600001516001600281106154bc577f4e487b7100000000000000000000000000000000000000000000000000000000600052603260045260246000fd5b60200201518260036006846154d19190615dc6565b6154db9190615d70565b81518110615512577f4e487b7100000000000000000000000000000000000000000000000000000000600052603260045260246000fd5b602002602001018181525050858181518110615557577f4e487b7100000000000000000000000000000000000000000000000000000000600052603260045260246000fd5b60200260200101516020015160006002811061559c577f4e487b7100000000000000000000000000000000000000000000000000000000600052603260045260246000fd5b60200201518260046006846155b19190615dc6565b6155bb9190615d70565b815181106155f2577f4e487b7100000000000000000000000000000000000000000000000000000000600052603260045260246000fd5b602002602001018181525050858181518110615637577f4e487b7100000000000000000000000000000000000000000000000000000000600052603260045260246000fd5b60200260200101516020015160016002811061567c577f4e487b7100000000000000000000000000000000000000000000000000000000600052603260045260246000fd5b60200201518260056006846156919190615dc6565b61569b9190615d70565b815181106156d2577f4e487b7100000000000000000000000000000000000000000000000000000000600052603260045260246000fd5b60200260200101818152505080806156e990615e9b565b915050615212565b506156fa6158b0565b6000602082602086026020860160086107d05a03fa9050806000811461571f57615721565bfe5b5080615762576040517f08c379a000000000000000000000000000000000000000000000000000000000815260040161575990615ca8565b60405180910390fd5b60008260006001811061579e577f4e487b7100000000000000000000000000000000000000000000000000000000600052603260045260246000fd5b602002015114159550505050505092915050565b60405180606001604052806157c561582c565b81526020016157d261588a565b81526020016157df61582c565b81525090565b6040518060a001604052806157f861582c565b815260200161580561588a565b815260200161581261588a565b815260200161581f61588a565b8152602001606081525090565b604051806040016040528060008152602001600081525090565b6040518060600160405280600390602082028036833780820191505090505090565b6040518060800160405280600490602082028036833780820191505090505090565b604051806040016040528061589d6158d2565b81526020016158aa6158d2565b81525090565b6040518060200160405280600190602082028036833780820191505090505090565b6040518060400160405280600290602082028036833780820191505090505090565b600061590761590284615ced565b615cc8565b9050808285604086028201111561591d57600080fd5b60005b8581101561594d57816159338882615a6b565b845260208401935060408301925050600181019050615920565b5050509392505050565b600061596a61596584615d13565b615cc8565b9050808285602086028201111561598057600080fd5b60005b858110156159b057816159968882615a92565b845260208401935060208301925050600181019050615983565b5050509392505050565b60006159cd6159c884615d39565b615cc8565b905080828560208602820111156159e357600080fd5b60005b85811015615a1357816159f98882615a92565b8452602084019350602083019250506001810190506159e6565b5050509392505050565b600082601f830112615a2e57600080fd5b6002615a3b8482856158f4565b91505092915050565b600082601f830112615a5557600080fd5b6066615a62848285615957565b91505092915050565b600082601f830112615a7c57600080fd5b6002615a898482856159ba565b91505092915050565b600081359050615aa1816160a9565b92915050565b600080600080610dc08587031215615abe57600080fd5b6000615acc87828801615a6b565b9450506040615add87828801615a1d565b93505060c0615aee87828801615a6b565b925050610100615b0087828801615a44565b91505092959194509250565b615b1581615e54565b82525050565b6000615b28601283615d5f565b9150615b3382615fb3565b602082019050919050565b6000615b4b601283615d5f565b9150615b5682615fdc565b602082019050919050565b6000615b6e601f83615d5f565b9150615b7982616005565b602082019050919050565b6000615b91601683615d5f565b9150615b9c8261602e565b602082019050919050565b6000615bb4601283615d5f565b9150615bbf82616057565b602082019050919050565b6000615bd7601583615d5f565b9150615be282616080565b602082019050919050565b6000602082019050615c026000830184615b0c565b92915050565b60006020820190508181036000830152615c2181615b1b565b9050919050565b60006020820190508181036000830152615c4181615b3e565b9050919050565b60006020820190508181036000830152615c6181615b61565b9050919050565b60006020820190508181036000830152615c8181615b84565b9050919050565b60006020820190508181036000830152615ca181615ba7565b9050919050565b60006020820190508181036000830152615cc181615bca565b9050919050565b6000615cd2615ce3565b9050615cde8282615e6a565b919050565b6000604051905090565b600067ffffffffffffffff821115615d0857615d07615f73565b5b602082029050919050565b600067ffffffffffffffff821115615d2e57615d2d615f73565b5b602082029050919050565b600067ffffffffffffffff821115615d5457615d53615f73565b5b602082029050919050565b600082825260208201905092915050565b6000615d7b82615e60565b9150615d8683615e60565b9250827fffffffffffffffffffffffffffffffffffffffffffffffffffffffffffffffff03821115615dbb57615dba615f15565b5b828201905092915050565b6000615dd182615e60565b9150615ddc83615e60565b9250817fffffffffffffffffffffffffffffffffffffffffffffffffffffffffffffffff0483118215151615615e1557615e14615f15565b5b828202905092915050565b6000615e2b82615e60565b9150615e3683615e60565b925082821015615e4957615e48615f15565b5b828203905092915050565b60008115159050919050565b6000819050919050565b615e7382615fa2565b810181811067ffffffffffffffff82111715615e9257615e91615f73565b5b80604052505050565b6000615ea682615e60565b91507fffffffffffffffffffffffffffffffffffffffffffffffffffffffffffffffff821415615ed957615ed8615f15565b5b600182019050919050565b6000615eef82615e60565b9150615efa83615e60565b925082615f0a57615f09615f44565b5b828206905092915050565b7f4e487b7100000000000000000000000000000000000000000000000000000000600052601160045260246000fd5b7f4e487b7100000000000000000000000000000000000000000000000000000000600052601260045260246000fd5b7f4e487b7100000000000000000000000000000000000000000000000000000000600052604160045260246000fd5b6000601f19601f8301169050919050565b7f76657269666965722d6261642d696e7075740000000000000000000000000000600082015250565b7f70616972696e672d6d756c2d6661696c65640000000000000000000000000000600082015250565b7f76657269666965722d6774652d736e61726b2d7363616c61722d6669656c6400600082015250565b7f70616972696e672d6c656e677468732d6661696c656400000000000000000000600082015250565b7f70616972696e672d6164642d6661696c65640000000000000000000000000000600082015250565b7f70616972696e672d6f70636f64652d6661696c65640000000000000000000000600082015250565b6160b281615e60565b81146160bd57600080fd5b5056fea2646970667358221220d7a6e48973717d388486d0312e97bbd54ede1e326dd5908ad7e9e23aaf77739164736f6c63430008040033",
  "linkReferences": {},
  "deployedLinkReferences": {}
}